{
  "contractName": "BridgeHandledRequests",
  "abi": [
    {
      "inputs": [
        {
          "internalType": "bytes32",
          "name": "",
          "type": "bytes32"
        }
      ],
      "name": "handledRequestTx",
      "outputs": [
        {
          "internalType": "bool",
          "name": "",
          "type": "bool"
        }
      ],
      "stateMutability": "view",
      "type": "function"
    }
  ],
  "bytecode": "0x608060405234801561001057600080fd5b50610154806100206000396000f3fe608060405234801561001057600080fd5b506004361061002b5760003560e01c80638a75eee214610030575b600080fd5b61004a600480360381019061004591906100bb565b610060565b6040516100579190610103565b60405180910390f35b60006020528060005260406000206000915054906101000a900460ff1681565b600080fd5b6000819050919050565b61009881610085565b81146100a357600080fd5b50565b6000813590506100b58161008f565b92915050565b6000602082840312156100d1576100d0610080565b5b60006100df848285016100a6565b91505092915050565b60008115159050919050565b6100fd816100e8565b82525050565b600060208201905061011860008301846100f4565b9291505056fea26469706673582212208eac67317fdb0da1e079685ab2213c02beae441a378b4cc57dcf114524b2927464736f6c634300080e0033",
  "immutableReferences": {},
  "source": "// SPDX-License-Identifier: MIT\n\n// Copyright 2019 The klaytn Authors\n// This file is part of the klaytn library.\n//\n// The klaytn library is free software: you can redistribute it and/or modify\n// it under the terms of the GNU Lesser General Public License as published by\n// the Free Software Foundation, either version 3 of the License, or\n// (at your option) any later version.\n//\n// The klaytn library is distributed in the hope that it will be useful,\n// but WITHOUT ANY WARRANTY; without even the implied warranty of\n// MERCHANTABILITY or FITNESS FOR A PARTICULAR PURPOSE. See the\n// GNU Lesser General Public License for more details.\n//\n// You should have received a copy of the GNU Lesser General Public License\n// along with the klaytn library. If not, see <http://www.gnu.org/licenses/>.\n\npragma solidity ^0.8.0;\n\ncontract BridgeHandledRequests {\n    // TODO-Klaytn-Servicechain handleTxHash can be saved after Klaytn supports it.\n    mapping(bytes32 => bool) public handledRequestTx;\n\n    function _setHandledRequestTxHash(bytes32 _requestTxHash) internal {\n        handledRequestTx[_requestTxHash] = true;\n    }\n}\n",
  "sourcePath": "/Users/henry/git/servicechain-bridge-contracts/contracts/sc/bridge/BridgeHandledRequests.sol",
  "compiler": {
    "name": "solc",
    "version": "0.8.14+commit.80d49f37.Emscripten.clang"
  },
  "schemaVersion": "3.4.7",
  "updatedAt": "2022-06-15T12:34:59.474Z",
  "devdoc": {
    "kind": "dev",
    "methods": {},
    "version": 1
  },
  "userdoc": {
    "kind": "user",
    "methods": {},
    "version": 1
  }
}