{
  "contractName": "Bridge",
  "abi": [
    {
      "inputs": [
        {
          "internalType": "bool",
          "name": "_modeMintBurn",
          "type": "bool"
        }
      ],
      "stateMutability": "payable",
      "type": "constructor"
    },
    {
      "anonymous": false,
      "inputs": [
        {
          "indexed": true,
          "internalType": "address",
          "name": "token",
          "type": "address"
        },
        {
          "indexed": true,
          "internalType": "uint256",
          "name": "fee",
          "type": "uint256"
        }
      ],
      "name": "ERC20FeeChanged",
      "type": "event"
    },
    {
      "anonymous": false,
      "inputs": [
        {
          "indexed": true,
          "internalType": "address",
          "name": "feeReceiver",
          "type": "address"
        }
      ],
      "name": "FeeReceiverChanged",
      "type": "event"
    },
    {
      "anonymous": false,
      "inputs": [
        {
          "indexed": false,
          "internalType": "bytes32",
          "name": "requestTxHash",
          "type": "bytes32"
        },
        {
          "indexed": false,
          "internalType": "enum BridgeTransfer.TokenType",
          "name": "tokenType",
          "type": "uint8"
        },
        {
          "indexed": true,
          "internalType": "address",
          "name": "from",
          "type": "address"
        },
        {
          "indexed": true,
          "internalType": "address",
          "name": "to",
          "type": "address"
        },
        {
          "indexed": true,
          "internalType": "address",
          "name": "tokenAddress",
          "type": "address"
        },
        {
          "indexed": false,
          "internalType": "uint256",
          "name": "valueOrTokenId",
          "type": "uint256"
        },
        {
          "indexed": false,
          "internalType": "uint64",
          "name": "handleNonce",
          "type": "uint64"
        },
        {
          "indexed": false,
          "internalType": "uint64",
          "name": "lowerHandleNonce",
          "type": "uint64"
        },
        {
          "indexed": false,
          "internalType": "bytes",
          "name": "extraData",
          "type": "bytes"
        }
      ],
      "name": "HandleValueTransfer",
      "type": "event"
    },
    {
      "anonymous": false,
      "inputs": [
        {
          "indexed": true,
          "internalType": "uint256",
          "name": "fee",
          "type": "uint256"
        }
      ],
      "name": "KLAYFeeChanged",
      "type": "event"
    },
    {
      "anonymous": false,
      "inputs": [],
      "name": "KLAYLocked",
      "type": "event"
    },
    {
      "anonymous": false,
      "inputs": [],
      "name": "KLAYUnlocked",
      "type": "event"
    },
    {
      "anonymous": false,
      "inputs": [
        {
          "indexed": true,
          "internalType": "address",
          "name": "previousOwner",
          "type": "address"
        },
        {
          "indexed": true,
          "internalType": "address",
          "name": "newOwner",
          "type": "address"
        }
      ],
      "name": "OwnershipTransferred",
      "type": "event"
    },
    {
      "anonymous": false,
      "inputs": [
        {
          "indexed": false,
          "internalType": "enum BridgeTransfer.TokenType",
          "name": "tokenType",
          "type": "uint8"
        },
        {
          "indexed": true,
          "internalType": "address",
          "name": "from",
          "type": "address"
        },
        {
          "indexed": true,
          "internalType": "address",
          "name": "to",
          "type": "address"
        },
        {
          "indexed": true,
          "internalType": "address",
          "name": "tokenAddress",
          "type": "address"
        },
        {
          "indexed": false,
          "internalType": "uint256",
          "name": "valueOrTokenId",
          "type": "uint256"
        },
        {
          "indexed": false,
          "internalType": "uint64",
          "name": "requestNonce",
          "type": "uint64"
        },
        {
          "indexed": false,
          "internalType": "uint256",
          "name": "fee",
          "type": "uint256"
        },
        {
          "indexed": false,
          "internalType": "bytes",
          "name": "extraData",
          "type": "bytes"
        }
      ],
      "name": "RequestValueTransfer",
      "type": "event"
    },
    {
      "anonymous": false,
      "inputs": [
        {
          "indexed": false,
          "internalType": "enum BridgeTransfer.TokenType",
          "name": "tokenType",
          "type": "uint8"
        },
        {
          "indexed": true,
          "internalType": "address",
          "name": "from",
          "type": "address"
        },
        {
          "indexed": true,
          "internalType": "address",
          "name": "to",
          "type": "address"
        },
        {
          "indexed": true,
          "internalType": "address",
          "name": "tokenAddress",
          "type": "address"
        },
        {
          "indexed": false,
          "internalType": "uint256",
          "name": "valueOrTokenId",
          "type": "uint256"
        },
        {
          "indexed": false,
          "internalType": "uint64",
          "name": "requestNonce",
          "type": "uint64"
        },
        {
          "indexed": false,
          "internalType": "uint256",
          "name": "fee",
          "type": "uint256"
        },
        {
          "indexed": false,
          "internalType": "bytes",
          "name": "extraData",
          "type": "bytes"
        },
        {
          "indexed": false,
          "internalType": "uint8",
          "name": "encodingVer",
          "type": "uint8"
        },
        {
          "indexed": false,
          "internalType": "bytes",
          "name": "encodedData",
          "type": "bytes"
        }
      ],
      "name": "RequestValueTransferEncoded",
      "type": "event"
    },
    {
      "anonymous": false,
      "inputs": [
        {
          "indexed": true,
          "internalType": "address",
          "name": "token",
          "type": "address"
        }
      ],
      "name": "TokenDeregistered",
      "type": "event"
    },
    {
      "anonymous": false,
      "inputs": [
        {
          "indexed": true,
          "internalType": "address",
          "name": "token",
          "type": "address"
        }
      ],
      "name": "TokenLocked",
      "type": "event"
    },
    {
      "anonymous": false,
      "inputs": [
        {
          "indexed": true,
          "internalType": "address",
          "name": "token",
          "type": "address"
        }
      ],
      "name": "TokenRegistered",
      "type": "event"
    },
    {
      "anonymous": false,
      "inputs": [
        {
          "indexed": true,
          "internalType": "address",
          "name": "token",
          "type": "address"
        }
      ],
      "name": "TokenUnlocked",
      "type": "event"
    },
    {
      "inputs": [],
      "name": "MAX_OPERATOR",
      "outputs": [
        {
          "internalType": "uint64",
          "name": "",
          "type": "uint64"
        }
      ],
      "stateMutability": "view",
      "type": "function"
    },
    {
      "inputs": [],
      "name": "VERSION",
      "outputs": [
        {
          "internalType": "uint64",
          "name": "",
          "type": "uint64"
        }
      ],
      "stateMutability": "view",
      "type": "function"
    },
    {
      "inputs": [],
      "name": "chargeWithoutEvent",
      "outputs": [],
      "stateMutability": "payable",
      "type": "function"
    },
    {
      "inputs": [
        {
          "internalType": "uint64",
          "name": "",
          "type": "uint64"
        }
      ],
      "name": "closedValueTransferVotes",
      "outputs": [
        {
          "internalType": "bool",
          "name": "",
          "type": "bool"
        }
      ],
      "stateMutability": "view",
      "type": "function"
    },
    {
      "inputs": [],
      "name": "configurationNonce",
      "outputs": [
        {
          "internalType": "uint64",
          "name": "",
          "type": "uint64"
        }
      ],
      "stateMutability": "view",
      "type": "function"
    },
    {
      "inputs": [],
      "name": "counterpartBridge",
      "outputs": [
        {
          "internalType": "address",
          "name": "",
          "type": "address"
        }
      ],
      "stateMutability": "view",
      "type": "function"
    },
    {
      "inputs": [
        {
          "internalType": "address",
          "name": "_operator",
          "type": "address"
        }
      ],
      "name": "deregisterOperator",
      "outputs": [],
      "stateMutability": "nonpayable",
      "type": "function"
    },
    {
      "inputs": [
        {
          "internalType": "address",
          "name": "_token",
          "type": "address"
        }
      ],
      "name": "deregisterToken",
      "outputs": [],
      "stateMutability": "nonpayable",
      "type": "function"
    },
    {
      "inputs": [
        {
          "internalType": "address",
          "name": "",
          "type": "address"
        }
      ],
      "name": "feeOfERC20",
      "outputs": [
        {
          "internalType": "uint256",
          "name": "",
          "type": "uint256"
        }
      ],
      "stateMutability": "view",
      "type": "function"
    },
    {
      "inputs": [],
      "name": "feeOfKLAY",
      "outputs": [
        {
          "internalType": "uint256",
          "name": "",
          "type": "uint256"
        }
      ],
      "stateMutability": "view",
      "type": "function"
    },
    {
      "inputs": [],
      "name": "feeReceiver",
      "outputs": [
        {
          "internalType": "address payable",
          "name": "",
          "type": "address"
        }
      ],
      "stateMutability": "view",
      "type": "function"
    },
    {
      "inputs": [],
      "name": "getOperatorList",
      "outputs": [
        {
          "internalType": "address[]",
          "name": "",
          "type": "address[]"
        }
      ],
      "stateMutability": "view",
      "type": "function"
    },
    {
      "inputs": [],
      "name": "getRegisteredTokenList",
      "outputs": [
        {
          "internalType": "address[]",
          "name": "",
          "type": "address[]"
        }
      ],
      "stateMutability": "view",
      "type": "function"
    },
    {
      "inputs": [
        {
          "internalType": "bytes32",
          "name": "_requestTxHash",
          "type": "bytes32"
        },
        {
          "internalType": "address",
          "name": "_from",
          "type": "address"
        },
        {
          "internalType": "address",
          "name": "_to",
          "type": "address"
        },
        {
          "internalType": "address",
          "name": "_tokenAddress",
          "type": "address"
        },
        {
          "internalType": "uint256",
          "name": "_value",
          "type": "uint256"
        },
        {
          "internalType": "uint64",
          "name": "_requestedNonce",
          "type": "uint64"
        },
        {
          "internalType": "uint64",
          "name": "_requestedBlockNumber",
          "type": "uint64"
        },
        {
          "internalType": "bytes",
          "name": "_extraData",
          "type": "bytes"
        }
      ],
      "name": "handleERC20Transfer",
      "outputs": [],
      "stateMutability": "nonpayable",
      "type": "function"
    },
    {
      "inputs": [
        {
          "internalType": "bytes32",
          "name": "_requestTxHash",
          "type": "bytes32"
        },
        {
          "internalType": "address",
          "name": "_from",
          "type": "address"
        },
        {
          "internalType": "address",
          "name": "_to",
          "type": "address"
        },
        {
          "internalType": "address",
          "name": "_tokenAddress",
          "type": "address"
        },
        {
          "internalType": "uint256",
          "name": "_tokenId",
          "type": "uint256"
        },
        {
          "internalType": "uint64",
          "name": "_requestedNonce",
          "type": "uint64"
        },
        {
          "internalType": "uint64",
          "name": "_requestedBlockNumber",
          "type": "uint64"
        },
        {
          "internalType": "string",
          "name": "_tokenURI",
          "type": "string"
        },
        {
          "internalType": "bytes",
          "name": "_extraData",
          "type": "bytes"
        }
      ],
      "name": "handleERC721Transfer",
      "outputs": [],
      "stateMutability": "nonpayable",
      "type": "function"
    },
    {
      "inputs": [
        {
          "internalType": "bytes32",
          "name": "_requestTxHash",
          "type": "bytes32"
        },
        {
          "internalType": "address",
          "name": "_from",
          "type": "address"
        },
        {
          "internalType": "address payable",
          "name": "_to",
          "type": "address"
        },
        {
          "internalType": "uint256",
          "name": "_value",
          "type": "uint256"
        },
        {
          "internalType": "uint64",
          "name": "_requestedNonce",
          "type": "uint64"
        },
        {
          "internalType": "uint64",
          "name": "_requestedBlockNumber",
          "type": "uint64"
        },
        {
          "internalType": "bytes",
          "name": "_extraData",
          "type": "bytes"
        }
      ],
      "name": "handleKLAYTransfer",
      "outputs": [],
      "stateMutability": "nonpayable",
      "type": "function"
    },
    {
      "inputs": [
        {
          "internalType": "uint64",
          "name": "",
          "type": "uint64"
        }
      ],
      "name": "handleNoncesToBlockNums",
      "outputs": [
        {
          "internalType": "uint64",
          "name": "",
          "type": "uint64"
        }
      ],
      "stateMutability": "view",
      "type": "function"
    },
    {
      "inputs": [
        {
          "internalType": "bytes32",
          "name": "",
          "type": "bytes32"
        }
      ],
      "name": "handledRequestTx",
      "outputs": [
        {
          "internalType": "bool",
          "name": "",
          "type": "bool"
        }
      ],
      "stateMutability": "view",
      "type": "function"
    },
    {
      "inputs": [
        {
          "internalType": "address",
          "name": "",
          "type": "address"
        }
      ],
      "name": "indexOfTokens",
      "outputs": [
        {
          "internalType": "uint256",
          "name": "",
          "type": "uint256"
        }
      ],
      "stateMutability": "view",
      "type": "function"
    },
    {
      "inputs": [],
      "name": "isLockedKLAY",
      "outputs": [
        {
          "internalType": "bool",
          "name": "",
          "type": "bool"
        }
      ],
      "stateMutability": "view",
      "type": "function"
    },
    {
      "inputs": [],
      "name": "isRunning",
      "outputs": [
        {
          "internalType": "bool",
          "name": "",
          "type": "bool"
        }
      ],
      "stateMutability": "view",
      "type": "function"
    },
    {
      "inputs": [],
      "name": "lockKLAY",
      "outputs": [],
      "stateMutability": "nonpayable",
      "type": "function"
    },
    {
      "inputs": [
        {
          "internalType": "address",
          "name": "_token",
          "type": "address"
        }
      ],
      "name": "lockToken",
      "outputs": [],
      "stateMutability": "nonpayable",
      "type": "function"
    },
    {
      "inputs": [
        {
          "internalType": "address",
          "name": "",
          "type": "address"
        }
      ],
      "name": "lockedTokens",
      "outputs": [
        {
          "internalType": "bool",
          "name": "",
          "type": "bool"
        }
      ],
      "stateMutability": "view",
      "type": "function"
    },
    {
      "inputs": [],
      "name": "lowerHandleNonce",
      "outputs": [
        {
          "internalType": "uint64",
          "name": "",
          "type": "uint64"
        }
      ],
      "stateMutability": "view",
      "type": "function"
    },
    {
      "inputs": [],
      "name": "modeMintBurn",
      "outputs": [
        {
          "internalType": "bool",
          "name": "",
          "type": "bool"
        }
      ],
      "stateMutability": "view",
      "type": "function"
    },
    {
      "inputs": [
        {
          "internalType": "address",
          "name": "_from",
          "type": "address"
        },
        {
          "internalType": "address",
          "name": "_to",
          "type": "address"
        },
        {
          "internalType": "uint256",
          "name": "_value",
          "type": "uint256"
        },
        {
          "internalType": "uint256",
          "name": "_feeLimit",
          "type": "uint256"
        },
        {
          "internalType": "bytes",
          "name": "_extraData",
          "type": "bytes"
        }
      ],
      "name": "onERC20Received",
      "outputs": [],
      "stateMutability": "nonpayable",
      "type": "function"
    },
    {
      "inputs": [
        {
          "internalType": "address",
          "name": "_from",
          "type": "address"
        },
        {
          "internalType": "uint256",
          "name": "_tokenId",
          "type": "uint256"
        },
        {
          "internalType": "address",
          "name": "_to",
          "type": "address"
        },
        {
          "internalType": "bytes",
          "name": "_extraData",
          "type": "bytes"
        }
      ],
      "name": "onERC721Received",
      "outputs": [],
      "stateMutability": "nonpayable",
      "type": "function"
    },
    {
      "inputs": [
        {
          "internalType": "uint256",
          "name": "",
          "type": "uint256"
        }
      ],
      "name": "operatorList",
      "outputs": [
        {
          "internalType": "address",
          "name": "",
          "type": "address"
        }
      ],
      "stateMutability": "view",
      "type": "function"
    },
    {
      "inputs": [
        {
          "internalType": "uint8",
          "name": "",
          "type": "uint8"
        }
      ],
      "name": "operatorThresholds",
      "outputs": [
        {
          "internalType": "uint8",
          "name": "",
          "type": "uint8"
        }
      ],
      "stateMutability": "view",
      "type": "function"
    },
    {
      "inputs": [
        {
          "internalType": "address",
          "name": "",
          "type": "address"
        }
      ],
      "name": "operators",
      "outputs": [
        {
          "internalType": "bool",
          "name": "",
          "type": "bool"
        }
      ],
      "stateMutability": "view",
      "type": "function"
    },
    {
      "inputs": [],
      "name": "owner",
      "outputs": [
        {
          "internalType": "address",
          "name": "",
          "type": "address"
        }
      ],
      "stateMutability": "view",
      "type": "function"
    },
    {
      "inputs": [],
      "name": "recoveryBlockNumber",
      "outputs": [
        {
          "internalType": "uint64",
          "name": "",
          "type": "uint64"
        }
      ],
      "stateMutability": "view",
      "type": "function"
    },
    {
      "inputs": [
        {
          "internalType": "address",
          "name": "_operator",
          "type": "address"
        }
      ],
      "name": "registerOperator",
      "outputs": [],
      "stateMutability": "nonpayable",
      "type": "function"
    },
    {
      "inputs": [
        {
          "internalType": "address",
          "name": "_token",
          "type": "address"
        },
        {
          "internalType": "address",
          "name": "_cToken",
          "type": "address"
        }
      ],
      "name": "registerToken",
      "outputs": [],
      "stateMutability": "nonpayable",
      "type": "function"
    },
    {
      "inputs": [
        {
          "internalType": "uint256",
          "name": "",
          "type": "uint256"
        }
      ],
      "name": "registeredTokenList",
      "outputs": [
        {
          "internalType": "address",
          "name": "",
          "type": "address"
        }
      ],
      "stateMutability": "view",
      "type": "function"
    },
    {
      "inputs": [
        {
          "internalType": "address",
          "name": "",
          "type": "address"
        }
      ],
      "name": "registeredTokens",
      "outputs": [
        {
          "internalType": "address",
          "name": "",
          "type": "address"
        }
      ],
      "stateMutability": "view",
      "type": "function"
    },
    {
      "inputs": [],
      "name": "renounceOwnership",
      "outputs": [],
      "stateMutability": "nonpayable",
      "type": "function"
    },
    {
      "inputs": [
        {
          "internalType": "address",
          "name": "_tokenAddress",
          "type": "address"
        },
        {
          "internalType": "address",
          "name": "_to",
          "type": "address"
        },
        {
          "internalType": "uint256",
          "name": "_value",
          "type": "uint256"
        },
        {
          "internalType": "uint256",
          "name": "_feeLimit",
          "type": "uint256"
        },
        {
          "internalType": "bytes",
          "name": "_extraData",
          "type": "bytes"
        }
      ],
      "name": "requestERC20Transfer",
      "outputs": [],
      "stateMutability": "nonpayable",
      "type": "function"
    },
    {
      "inputs": [
        {
          "internalType": "address",
          "name": "_tokenAddress",
          "type": "address"
        },
        {
          "internalType": "address",
          "name": "_to",
          "type": "address"
        },
        {
          "internalType": "uint256",
          "name": "_tokenId",
          "type": "uint256"
        },
        {
          "internalType": "bytes",
          "name": "_extraData",
          "type": "bytes"
        }
      ],
      "name": "requestERC721Transfer",
      "outputs": [],
      "stateMutability": "nonpayable",
      "type": "function"
    },
    {
      "inputs": [
        {
          "internalType": "address",
          "name": "_to",
          "type": "address"
        },
        {
          "internalType": "uint256",
          "name": "_value",
          "type": "uint256"
        },
        {
          "internalType": "bytes",
          "name": "_extraData",
          "type": "bytes"
        }
      ],
      "name": "requestKLAYTransfer",
      "outputs": [],
      "stateMutability": "payable",
      "type": "function"
    },
    {
      "inputs": [],
      "name": "requestNonce",
      "outputs": [
        {
          "internalType": "uint64",
          "name": "",
          "type": "uint64"
        }
      ],
      "stateMutability": "view",
      "type": "function"
    },
    {
      "inputs": [
        {
          "internalType": "address",
          "name": "_bridge",
          "type": "address"
        }
      ],
      "name": "setCounterPartBridge",
      "outputs": [],
      "stateMutability": "nonpayable",
      "type": "function"
    },
    {
      "inputs": [
        {
          "internalType": "address",
          "name": "_token",
          "type": "address"
        },
        {
          "internalType": "uint256",
          "name": "_fee",
          "type": "uint256"
        },
        {
          "internalType": "uint64",
          "name": "_requestNonce",
          "type": "uint64"
        }
      ],
      "name": "setERC20Fee",
      "outputs": [],
      "stateMutability": "nonpayable",
      "type": "function"
    },
    {
      "inputs": [
        {
          "internalType": "address payable",
          "name": "_feeReceiver",
          "type": "address"
        }
      ],
      "name": "setFeeReceiver",
      "outputs": [],
      "stateMutability": "nonpayable",
      "type": "function"
    },
    {
      "inputs": [
        {
          "internalType": "uint256",
          "name": "_fee",
          "type": "uint256"
        },
        {
          "internalType": "uint64",
          "name": "_requestNonce",
          "type": "uint64"
        }
      ],
      "name": "setKLAYFee",
      "outputs": [],
      "stateMutability": "nonpayable",
      "type": "function"
    },
    {
      "inputs": [
        {
          "internalType": "enum BridgeOperator.VoteType",
          "name": "_voteType",
          "type": "uint8"
        },
        {
          "internalType": "uint8",
          "name": "_threshold",
          "type": "uint8"
        }
      ],
      "name": "setOperatorThreshold",
      "outputs": [],
      "stateMutability": "nonpayable",
      "type": "function"
    },
    {
      "inputs": [
        {
          "internalType": "bool",
          "name": "_status",
          "type": "bool"
        }
      ],
      "name": "start",
      "outputs": [],
      "stateMutability": "nonpayable",
      "type": "function"
    },
    {
      "inputs": [
        {
          "internalType": "address",
          "name": "newOwner",
          "type": "address"
        }
      ],
      "name": "transferOwnership",
      "outputs": [],
      "stateMutability": "nonpayable",
      "type": "function"
    },
    {
      "inputs": [],
      "name": "unlockKLAY",
      "outputs": [],
      "stateMutability": "nonpayable",
      "type": "function"
    },
    {
      "inputs": [
        {
          "internalType": "address",
          "name": "_token",
          "type": "address"
        }
      ],
      "name": "unlockToken",
      "outputs": [],
      "stateMutability": "nonpayable",
      "type": "function"
    },
    {
      "inputs": [],
      "name": "upperHandleNonce",
      "outputs": [
        {
          "internalType": "uint64",
          "name": "",
          "type": "uint64"
        }
      ],
      "stateMutability": "view",
      "type": "function"
    },
    {
      "stateMutability": "payable",
      "type": "receive"
    }
  ],
  "bytecode": "0x60806040526000600160006101000a81548173ffffffffffffffffffffffffffffffffffffffff021916908373ffffffffffffffffffffffffffffffffffffffff16021790555060006002556000600f60086101000a81548160ff0219169083151502179055506001600f60096101000a81548160ff0219169083151502179055506001601060086101000a81548167ffffffffffffffff021916908367ffffffffffffffff16021790555060405162007180380380620071808339818101604052810190620000d0919062000393565b80600080600160006101000a81548173ffffffffffffffffffffffffffffffffffffffff021916908373ffffffffffffffffffffffffffffffffffffffff1602179055505062000135620001296200028360201b60201c565b6200028b60201b60201c565b60005b6002808111156200014e576200014d620003c5565b5b60ff168160ff161015620001a5576001600e60008360ff1660ff16815260200190815260200160002060006101000a81548160ff021916908360ff16021790555080806200019c9062000430565b91505062000138565b506001600c60003373ffffffffffffffffffffffffffffffffffffffff1673ffffffffffffffffffffffffffffffffffffffff16815260200190815260200160002060006101000a81548160ff021916908315150217905550600d339080600181540180825580915050600190039060005260206000200160009091909190916101000a81548173ffffffffffffffffffffffffffffffffffffffff021916908373ffffffffffffffffffffffffffffffffffffffff16021790555080600f60086101000a81548160ff02191690831515021790555050506200045e565b600033905090565b6000600460009054906101000a900473ffffffffffffffffffffffffffffffffffffffff16905081600460006101000a81548173ffffffffffffffffffffffffffffffffffffffff021916908373ffffffffffffffffffffffffffffffffffffffff1602179055508173ffffffffffffffffffffffffffffffffffffffff168173ffffffffffffffffffffffffffffffffffffffff167f8be0079c531659141344cd1fd0a4f28419497f9722a3daafe3b4186f6b6457e060405160405180910390a35050565b600080fd5b60008115159050919050565b6200036d8162000356565b81146200037957600080fd5b50565b6000815190506200038d8162000362565b92915050565b600060208284031215620003ac57620003ab62000351565b5b6000620003bc848285016200037c565b91505092915050565b7f4e487b7100000000000000000000000000000000000000000000000000000000600052602160045260246000fd5b7f4e487b7100000000000000000000000000000000000000000000000000000000600052601160045260246000fd5b600060ff82169050919050565b60006200043d8262000423565b915060ff8203620004535762000452620003f4565b5b600182019050919050565b616d12806200046e6000396000f3fe6080604052600436106103035760003560e01c80638a75eee211610190578063c263b5d6116100dc578063ea21eade11610095578063f1656e531161006f578063f1656e5314610baf578063f171996614610bd8578063f2fde38b14610c03578063ffa1ad7414610c2c57610364565b8063ea21eade14610b32578063ee2aec6514610b5d578063efdcd97414610b8657610364565b8063c263b5d614610a45578063c877cf3714610a70578063cb38f40714610a99578063cf0da29014610ad6578063d8cf98ca14610aff578063dd9222d614610b2857610364565b80639f07132911610149578063afb6022311610123578063afb602231461099d578063b2c01030146109c6578063b3f00674146109f1578063bab2af1d14610a1c57610364565b80639f07132914610932578063a066a7ed14610949578063ac6fff0b1461097257610364565b80638a75eee2146107fc5780638c0bd916146108395780638da5cb5b146108765780639832c1d7146108a1578063989ba0d3146108de5780639ef2017b1461090957610364565b8063407e6bae1161024f5780635526f76b11610208578063715018a6116101e2578063715018a61461077557806375ebdc091461078c5780637c1a0302146107a857806387b04c55146107d357610364565b80635526f76b146106d05780635eb7413a1461070d5780636e176ec21461074a57610364565b8063407e6bae146105ae5780634739f7e5146105d7578063488af8711461060057806348a18a6a1461063d5780634b40b8261461067a57806354edad72146106a557610364565b806322604742116102bc5780633682a450116102965780633682a450146104f25780633a3099d11461051b5780633a348533146105465780633e4fe9491461057157610364565b8063226047421461047757806326c23b54146104a05780632f88396c146104c957610364565b806310693fcd1461036957806313a6738a1461039257806313e7c9d8146103cf5780631a2ae53e1461040c5780631ebdca38146104355780632014e5d11461044c57610364565b366103645761036233600254600067ffffffffffffffff81111561032a57610329614dc7565b5b6040519080825280601f01601f19166020018201604052801561035c5781602001600182028036833780820191505090505b50610c57565b005b600080fd5b34801561037557600080fd5b50610390600480360381019061038b9190614e68565b610e45565b005b34801561039e57600080fd5b506103b960048036038101906103b49190614ed5565b6110c4565b6040516103c69190614f11565b60405180910390f35b3480156103db57600080fd5b506103f660048036038101906103f19190614e68565b6110eb565b6040516104039190614f47565b60405180910390f35b34801561041857600080fd5b50610433600480360381019061042e9190614f98565b61110b565b005b34801561044157600080fd5b5061044a6111b3565b005b34801561045857600080fd5b506104616112ce565b60405161046e9190614f47565b60405180910390f35b34801561048357600080fd5b5061049e600480360381019061049991906150ef565b6112e1565b005b3480156104ac57600080fd5b506104c760048036038101906104c29190615172565b611363565b005b3480156104d557600080fd5b506104f060048036038101906104eb9190615209565b611442565b005b3480156104fe57600080fd5b5061051960048036038101906105149190614e68565b6114ec565b005b34801561052757600080fd5b50610530611705565b60405161053d9190614f11565b60405180910390f35b34801561055257600080fd5b5061055b61170a565b604051610568919061526b565b60405180910390f35b34801561057d57600080fd5b5061059860048036038101906105939190615286565b611730565b6040516105a5919061526b565b60405180910390f35b3480156105ba57600080fd5b506105d560048036038101906105d091906152e9565b61176f565b005b3480156105e357600080fd5b506105fe60048036038101906105f991906153bb565b611a5f565b005b34801561060c57600080fd5b5061062760048036038101906106229190614e68565b611d1c565b604051610634919061540a565b60405180910390f35b34801561064957600080fd5b50610664600480360381019061065f9190614e68565b611d34565b604051610671919061540a565b60405180910390f35b34801561068657600080fd5b5061068f611d4c565b60405161069c9190614f11565b60405180910390f35b3480156106b157600080fd5b506106ba611d66565b6040516106c79190614f11565b60405180910390f35b3480156106dc57600080fd5b506106f760048036038101906106f2919061545e565b611d80565b604051610704919061549a565b60405180910390f35b34801561071957600080fd5b50610734600480360381019061072f9190614e68565b611da0565b6040516107419190614f47565b60405180910390f35b34801561075657600080fd5b5061075f611dc0565b60405161076c9190614f47565b60405180910390f35b34801561078157600080fd5b5061078a611dd3565b005b6107a660048036038101906107a19190615515565b611e5b565b005b3480156107b457600080fd5b506107bd611ec1565b6040516107ca9190614f11565b60405180910390f35b3480156107df57600080fd5b506107fa60048036038101906107f59190614e68565b611edb565b005b34801561080857600080fd5b50610823600480360381019061081e9190615589565b611f9b565b6040516108309190614f47565b60405180910390f35b34801561084557600080fd5b50610860600480360381019061085b9190614e68565b611fbb565b60405161086d919061526b565b60405180910390f35b34801561088257600080fd5b5061088b611fee565b604051610898919061526b565b60405180910390f35b3480156108ad57600080fd5b506108c860048036038101906108c39190614ed5565b612018565b6040516108d59190614f47565b60405180910390f35b3480156108ea57600080fd5b506108f3612038565b6040516109009190614f11565b60405180910390f35b34801561091557600080fd5b50610930600480360381019061092b9190614e68565b612052565b005b34801561093e57600080fd5b506109476122c8565b005b34801561095557600080fd5b50610970600480360381019061096b91906155f4565b6123e3565b005b34801561097e57600080fd5b506109876125d5565b6040516109949190614f11565b60405180910390f35b3480156109a957600080fd5b506109c460048036038101906109bf9190615753565b6125ef565b005b3480156109d257600080fd5b506109db612894565b6040516109e89190615913565b60405180910390f35b3480156109fd57600080fd5b50610a06612922565b604051610a139190615944565b60405180910390f35b348015610a2857600080fd5b50610a436004803603810190610a3e9190614e68565b612948565b005b348015610a5157600080fd5b50610a5a612da2565b604051610a67919061540a565b60405180910390f35b348015610a7c57600080fd5b50610a976004803603810190610a92919061598b565b612da8565b005b348015610aa557600080fd5b50610ac06004803603810190610abb9190615286565b612e41565b604051610acd919061526b565b60405180910390f35b348015610ae257600080fd5b50610afd6004803603810190610af891906159b8565b612e80565b005b348015610b0b57600080fd5b50610b266004803603810190610b219190614e68565b612e93565b005b610b30613144565b005b348015610b3e57600080fd5b50610b47613146565b604051610b549190615913565b60405180910390f35b348015610b6957600080fd5b50610b846004803603810190610b7f9190615a60565b6131d4565b005b348015610b9257600080fd5b50610bad6004803603810190610ba89190615aa0565b613329565b005b348015610bbb57600080fd5b50610bd66004803603810190610bd19190615172565b6133b1565b005b348015610be457600080fd5b50610bed6133c6565b604051610bfa9190614f47565b60405180910390f35b348015610c0f57600080fd5b50610c2a6004803603810190610c259190614e68565b6133d9565b005b348015610c3857600080fd5b50610c416134d0565b604051610c4e9190614f11565b60405180910390f35b60001515601260009054906101000a900460ff16151514610cad576040517f08c379a0000000000000000000000000000000000000000000000000000000008152600401610ca490615b2a565b60405180910390fd5b600f60099054906101000a900460ff16610cfc576040517f08c379a0000000000000000000000000000000000000000000000000000000008152600401610cf390615b96565b60405180910390fd5b813411610d3e576040517f08c379a0000000000000000000000000000000000000000000000000000000008152600401610d3590615c02565b60405180910390fd5b6000610d49836134d5565b9050600073ffffffffffffffffffffffffffffffffffffffff168473ffffffffffffffffffffffffffffffffffffffff163373ffffffffffffffffffffffffffffffffffffffff167feff76c36e53fa5ff52f27acc8a34d5047a8246abb07b77b12f1309f71e337f0960008734610dc09190615c51565b600f600a9054906101000a900467ffffffffffffffff168789604051610dea959493929190615d84565b60405180910390a4600f600a81819054906101000a900467ffffffffffffffff1680929190610e1890615dde565b91906101000a81548167ffffffffffffffff021916908367ffffffffffffffff1602179055505050505050565b610e4d6136af565b73ffffffffffffffffffffffffffffffffffffffff16610e6b611fee565b73ffffffffffffffffffffffffffffffffffffffff1614610ec1576040517f08c379a0000000000000000000000000000000000000000000000000000000008152600401610eb890615e5a565b60405180910390fd5b80600073ffffffffffffffffffffffffffffffffffffffff16600660008373ffffffffffffffffffffffffffffffffffffffff1673ffffffffffffffffffffffffffffffffffffffff16815260200190815260200160002060009054906101000a900473ffffffffffffffffffffffffffffffffffffffff1673ffffffffffffffffffffffffffffffffffffffff1603610f90576040517f08c379a0000000000000000000000000000000000000000000000000000000008152600401610f8790615ec6565b60405180910390fd5b8160001515600960008373ffffffffffffffffffffffffffffffffffffffff1673ffffffffffffffffffffffffffffffffffffffff16815260200190815260200160002060009054906101000a900460ff16151514611024576040517f08c379a000000000000000000000000000000000000000000000000000000000815260040161101b90615f32565b60405180910390fd5b6001600960008573ffffffffffffffffffffffffffffffffffffffff1673ffffffffffffffffffffffffffffffffffffffff16815260200190815260200160002060006101000a81548160ff0219169083151502179055508273ffffffffffffffffffffffffffffffffffffffff167fca1b0a14e18ada4c44846768dd186e35630cdc5cfeaca83c404ae4acaafbecd760405160405180910390a2505050565b60116020528060005260406000206000915054906101000a900467ffffffffffffffff1681565b600c6020528060005260406000206000915054906101000a900460ff1681565b600c60003373ffffffffffffffffffffffffffffffffffffffff1673ffffffffffffffffffffffffffffffffffffffff16815260200190815260200160002060009054906101000a900460ff16611197576040517f08c379a000000000000000000000000000000000000000000000000000000000815260040161118e90615f9e565b60405180910390fd5b6111a0816136b7565b156111af576111ae826137b4565b5b5050565b6111bb6136af565b73ffffffffffffffffffffffffffffffffffffffff166111d9611fee565b73ffffffffffffffffffffffffffffffffffffffff161461122f576040517f08c379a000000000000000000000000000000000000000000000000000000000815260040161122690615e5a565b60405180910390fd5b60011515601260009054906101000a900460ff16151514611285576040517f08c379a000000000000000000000000000000000000000000000000000000000815260040161127c9061600a565b60405180910390fd5b6000601260006101000a81548160ff0219169083151502179055507fd20610c9b78a6903ef134539e3deb5d243be461de6ef12d4c29536bb9b54fa1b60405160405180910390a1565b600f60099054906101000a900460ff1681565b8373ffffffffffffffffffffffffffffffffffffffff166323b872dd3330856040518463ffffffff1660e01b815260040161131e9392919061602a565b600060405180830381600087803b15801561133857600080fd5b505af115801561134c573d6000803e3d6000fd5b5050505061135d84338585856137eb565b50505050565b8473ffffffffffffffffffffffffffffffffffffffff166323b872dd3330858761138d9190616061565b6040518463ffffffff1660e01b81526004016113ab9392919061602a565b6020604051808303816000875af11580156113ca573d6000803e3d6000fd5b505050506040513d601f19601f820116820180604052508101906113ee91906160cc565b61142d576040517f08c379a00000000000000000000000000000000000000000000000000000000081526004016114249061616b565b60405180910390fd5b61143b853386868686613bb8565b5050505050565b600c60003373ffffffffffffffffffffffffffffffffffffffff1673ffffffffffffffffffffffffffffffffffffffff16815260200190815260200160002060009054906101000a900460ff166114ce576040517f08c379a00000000000000000000000000000000000000000000000000000000081526004016114c590615f9e565b60405180910390fd5b6114d7816136b7565b156114e7576114e68383613f30565b5b505050565b6114f46136af565b73ffffffffffffffffffffffffffffffffffffffff16611512611fee565b73ffffffffffffffffffffffffffffffffffffffff1614611568576040517f08c379a000000000000000000000000000000000000000000000000000000000815260040161155f90615e5a565b60405180910390fd5b600c67ffffffffffffffff16600d80549050106115ba576040517f08c379a00000000000000000000000000000000000000000000000000000000081526004016115b1906161d7565b60405180910390fd5b600c60008273ffffffffffffffffffffffffffffffffffffffff1673ffffffffffffffffffffffffffffffffffffffff16815260200190815260200160002060009054906101000a900460ff1615611647576040517f08c379a000000000000000000000000000000000000000000000000000000000815260040161163e90616243565b60405180910390fd5b6001600c60008373ffffffffffffffffffffffffffffffffffffffff1673ffffffffffffffffffffffffffffffffffffffff16815260200190815260200160002060006101000a81548160ff021916908315150217905550600d819080600181540180825580915050600190039060005260206000200160009091909190916101000a81548173ffffffffffffffffffffffffffffffffffffffff021916908373ffffffffffffffffffffffffffffffffffffffff16021790555050565b600c81565b600560009054906101000a900473ffffffffffffffffffffffffffffffffffffffff1681565b6008818154811061174057600080fd5b906000526020600020016000915054906101000a900473ffffffffffffffffffffffffffffffffffffffff1681565b600c60003373ffffffffffffffffffffffffffffffffffffffff1673ffffffffffffffffffffffffffffffffffffffff16815260200190815260200160002060009054906101000a900460ff166117fb576040517f08c379a00000000000000000000000000000000000000000000000000000000081526004016117f290615f9e565b60405180910390fd5b61180483613fbc565b61180d8361402c565b15611a555761181b88614125565b81601160008567ffffffffffffffff1667ffffffffffffffff16815260200190815260200160002060006101000a81548167ffffffffffffffff021916908367ffffffffffffffff16021790555061187283614153565b8473ffffffffffffffffffffffffffffffffffffffff168673ffffffffffffffffffffffffffffffffffffffff168873ffffffffffffffffffffffffffffffffffffffff167f12b02f226d965a2881e0e8ffed6c421803a22d57ad91f9ef996fe0748ea101758b60018989600f60129054906101000a900467ffffffffffffffff168960405161190796959493929190616272565b60405180910390a4600f60089054906101000a900460ff1615611996578473ffffffffffffffffffffffffffffffffffffffff166340c10f1987866040518363ffffffff1660e01b815260040161195f9291906162da565b600060405180830381600087803b15801561197957600080fd5b505af115801561198d573d6000803e3d6000fd5b50505050611a54565b8473ffffffffffffffffffffffffffffffffffffffff1663a9059cbb87866040518363ffffffff1660e01b81526004016119d19291906162da565b6020604051808303816000875af11580156119f0573d6000803e3d6000fd5b505050506040513d601f19601f82011682018060405250810190611a1491906160cc565b611a53576040517f08c379a0000000000000000000000000000000000000000000000000000000008152600401611a4a90616375565b60405180910390fd5b5b5b5050505050505050565b611a676136af565b73ffffffffffffffffffffffffffffffffffffffff16611a85611fee565b73ffffffffffffffffffffffffffffffffffffffff1614611adb576040517f08c379a0000000000000000000000000000000000000000000000000000000008152600401611ad290615e5a565b60405180910390fd5b81600073ffffffffffffffffffffffffffffffffffffffff16600660008373ffffffffffffffffffffffffffffffffffffffff1673ffffffffffffffffffffffffffffffffffffffff16815260200190815260200160002060009054906101000a900473ffffffffffffffffffffffffffffffffffffffff1673ffffffffffffffffffffffffffffffffffffffff1614611baa576040517f08c379a0000000000000000000000000000000000000000000000000000000008152600401611ba1906163e1565b60405180910390fd5b81600660008573ffffffffffffffffffffffffffffffffffffffff1673ffffffffffffffffffffffffffffffffffffffff16815260200190815260200160002060006101000a81548173ffffffffffffffffffffffffffffffffffffffff021916908373ffffffffffffffffffffffffffffffffffffffff160217905550600880549050600760008573ffffffffffffffffffffffffffffffffffffffff1673ffffffffffffffffffffffffffffffffffffffff168152602001908152602001600020819055506008839080600181540180825580915050600190039060005260206000200160009091909190916101000a81548173ffffffffffffffffffffffffffffffffffffffff021916908373ffffffffffffffffffffffffffffffffffffffff1602179055508273ffffffffffffffffffffffffffffffffffffffff167f158412daecdc1456d01568828bcdb18464cc7f1ce0215ddbc3f3cfede9d1e63d60405160405180910390a2505050565b60036020528060005260406000206000915090505481565b60076020528060005260406000206000915090505481565b600f60129054906101000a900467ffffffffffffffff1681565b601060009054906101000a900467ffffffffffffffff1681565b600e6020528060005260406000206000915054906101000a900460ff1681565b60096020528060005260406000206000915054906101000a900460ff1681565b600f60089054906101000a900460ff1681565b611ddb6136af565b73ffffffffffffffffffffffffffffffffffffffff16611df9611fee565b73ffffffffffffffffffffffffffffffffffffffff1614611e4f576040517f08c379a0000000000000000000000000000000000000000000000000000000008152600401611e4690615e5a565b60405180910390fd5b611e5960006143c6565b565b60008334611e699190615c51565b9050611eba858285858080601f016020809104026020016040519081016040528093929190818152602001838380828437600081840152601f19601f82011690508083019250505050505050610c57565b5050505050565b600f600a9054906101000a900467ffffffffffffffff1681565b611ee36136af565b73ffffffffffffffffffffffffffffffffffffffff16611f01611fee565b73ffffffffffffffffffffffffffffffffffffffff1614611f57576040517f08c379a0000000000000000000000000000000000000000000000000000000008152600401611f4e90615e5a565b60405180910390fd5b80600560006101000a81548173ffffffffffffffffffffffffffffffffffffffff021916908373ffffffffffffffffffffffffffffffffffffffff16021790555050565b60006020528060005260406000206000915054906101000a900460ff1681565b60066020528060005260406000206000915054906101000a900473ffffffffffffffffffffffffffffffffffffffff1681565b6000600460009054906101000a900473ffffffffffffffffffffffffffffffffffffffff16905090565b600b6020528060005260406000206000915054906101000a900460ff1681565b601060089054906101000a900467ffffffffffffffff1681565b61205a6136af565b73ffffffffffffffffffffffffffffffffffffffff16612078611fee565b73ffffffffffffffffffffffffffffffffffffffff16146120ce576040517f08c379a00000000000000000000000000000000000000000000000000000000081526004016120c590615e5a565b60405180910390fd5b80600073ffffffffffffffffffffffffffffffffffffffff16600660008373ffffffffffffffffffffffffffffffffffffffff1673ffffffffffffffffffffffffffffffffffffffff16815260200190815260200160002060009054906101000a900473ffffffffffffffffffffffffffffffffffffffff1673ffffffffffffffffffffffffffffffffffffffff160361219d576040517f08c379a000000000000000000000000000000000000000000000000000000000815260040161219490615ec6565b60405180910390fd5b8160011515600960008373ffffffffffffffffffffffffffffffffffffffff1673ffffffffffffffffffffffffffffffffffffffff16815260200190815260200160002060009054906101000a900460ff16151514612231576040517f08c379a00000000000000000000000000000000000000000000000000000000081526004016122289061644d565b60405180910390fd5b600960008473ffffffffffffffffffffffffffffffffffffffff1673ffffffffffffffffffffffffffffffffffffffff16815260200190815260200160002060006101000a81549060ff02191690558273ffffffffffffffffffffffffffffffffffffffff167f81ec08d3372506e176c49e626d8beb7e091712ef92908a130f4ccc6524fe2eec60405160405180910390a2505050565b6122d06136af565b73ffffffffffffffffffffffffffffffffffffffff166122ee611fee565b73ffffffffffffffffffffffffffffffffffffffff1614612344576040517f08c379a000000000000000000000000000000000000000000000000000000000815260040161233b90615e5a565b60405180910390fd5b60001515601260009054906101000a900460ff1615151461239a576040517f08c379a000000000000000000000000000000000000000000000000000000000815260040161239190615b2a565b60405180910390fd5b6001601260006101000a81548160ff0219169083151502179055507f915f3053cbc6842207cd97b68c0b585109b4f2fe61c5dbeb25d7678bfdfb8dfa60405160405180910390a1565b600c60003373ffffffffffffffffffffffffffffffffffffffff1673ffffffffffffffffffffffffffffffffffffffff16815260200190815260200160002060009054906101000a900460ff1661246f576040517f08c379a000000000000000000000000000000000000000000000000000000000815260040161246690615f9e565b60405180910390fd5b61247883613fbc565b6124818361402c565b156125cc5761248f87614125565b81601160008567ffffffffffffffff1667ffffffffffffffff16815260200190815260200160002060006101000a81548167ffffffffffffffff021916908367ffffffffffffffff1602179055506124e683614153565b600073ffffffffffffffffffffffffffffffffffffffff168573ffffffffffffffffffffffffffffffffffffffff168773ffffffffffffffffffffffffffffffffffffffff167f12b02f226d965a2881e0e8ffed6c421803a22d57ad91f9ef996fe0748ea101758a60008989600f60129054906101000a900467ffffffffffffffff168960405161257c96959493929190616272565b60405180910390a48473ffffffffffffffffffffffffffffffffffffffff166108fc859081150290604051600060405180830381858888f193505050501580156125ca573d6000803e3d6000fd5b505b50505050505050565b600f60009054906101000a900467ffffffffffffffff1681565b600c60003373ffffffffffffffffffffffffffffffffffffffff1673ffffffffffffffffffffffffffffffffffffffff16815260200190815260200160002060009054906101000a900460ff1661267b576040517f08c379a000000000000000000000000000000000000000000000000000000000815260040161267290615f9e565b60405180910390fd5b61268484613fbc565b61268d8461402c565b156128895761269b89614125565b82601160008667ffffffffffffffff1667ffffffffffffffff16815260200190815260200160002060006101000a81548167ffffffffffffffff021916908367ffffffffffffffff1602179055506126f284614153565b8573ffffffffffffffffffffffffffffffffffffffff168773ffffffffffffffffffffffffffffffffffffffff168973ffffffffffffffffffffffffffffffffffffffff167f12b02f226d965a2881e0e8ffed6c421803a22d57ad91f9ef996fe0748ea101758c60028a8a600f60129054906101000a900467ffffffffffffffff168960405161278796959493929190616272565b60405180910390a4600f60089054906101000a900460ff1615612818578573ffffffffffffffffffffffffffffffffffffffff166350bb4e7f8887856040518463ffffffff1660e01b81526004016127e1939291906164b1565b600060405180830381600087803b1580156127fb57600080fd5b505af115801561280f573d6000803e3d6000fd5b50505050612888565b8573ffffffffffffffffffffffffffffffffffffffff166342842e0e3089886040518463ffffffff1660e01b81526004016128559392919061602a565b600060405180830381600087803b15801561286f57600080fd5b505af1158015612883573d6000803e3d6000fd5b505050505b5b505050505050505050565b6060600d80548060200260200160405190810160405280929190818152602001828054801561291857602002820191906000526020600020905b8160009054906101000a900473ffffffffffffffffffffffffffffffffffffffff1673ffffffffffffffffffffffffffffffffffffffff16815260200190600101908083116128ce575b5050505050905090565b600160009054906101000a900473ffffffffffffffffffffffffffffffffffffffff1681565b6129506136af565b73ffffffffffffffffffffffffffffffffffffffff1661296e611fee565b73ffffffffffffffffffffffffffffffffffffffff16146129c4576040517f08c379a00000000000000000000000000000000000000000000000000000000081526004016129bb90615e5a565b60405180910390fd5b80600073ffffffffffffffffffffffffffffffffffffffff16600660008373ffffffffffffffffffffffffffffffffffffffff1673ffffffffffffffffffffffffffffffffffffffff16815260200190815260200160002060009054906101000a900473ffffffffffffffffffffffffffffffffffffffff1673ffffffffffffffffffffffffffffffffffffffff1603612a93576040517f08c379a0000000000000000000000000000000000000000000000000000000008152600401612a8a90615ec6565b60405180910390fd5b600660008373ffffffffffffffffffffffffffffffffffffffff1673ffffffffffffffffffffffffffffffffffffffff16815260200190815260200160002060006101000a81549073ffffffffffffffffffffffffffffffffffffffff0219169055600960008373ffffffffffffffffffffffffffffffffffffffff1673ffffffffffffffffffffffffffffffffffffffff16815260200190815260200160002060006101000a81549060ff02191690556000600760008473ffffffffffffffffffffffffffffffffffffffff1673ffffffffffffffffffffffffffffffffffffffff168152602001908152602001600020549050600760008473ffffffffffffffffffffffffffffffffffffffff1673ffffffffffffffffffffffffffffffffffffffff168152602001908152602001600020600090556001600880549050612bdd9190615c51565b811015612d135760086001600880549050612bf89190615c51565b81548110612c0957612c086164ef565b5b9060005260206000200160009054906101000a900473ffffffffffffffffffffffffffffffffffffffff1660088281548110612c4857612c476164ef565b5b9060005260206000200160006101000a81548173ffffffffffffffffffffffffffffffffffffffff021916908373ffffffffffffffffffffffffffffffffffffffff160217905550806007600060088481548110612ca957612ca86164ef565b5b9060005260206000200160009054906101000a900473ffffffffffffffffffffffffffffffffffffffff1673ffffffffffffffffffffffffffffffffffffffff1673ffffffffffffffffffffffffffffffffffffffff168152602001908152602001600020819055505b6008805480612d2557612d2461651e565b5b6001900381819060005260206000200160006101000a81549073ffffffffffffffffffffffffffffffffffffffff021916905590558273ffffffffffffffffffffffffffffffffffffffff167f1d735ca20b63676dde668b718be78606b061d6bd7534ff815a90a121a6c084b660405160405180910390a2505050565b60025481565b612db06136af565b73ffffffffffffffffffffffffffffffffffffffff16612dce611fee565b73ffffffffffffffffffffffffffffffffffffffff1614612e24576040517f08c379a0000000000000000000000000000000000000000000000000000000008152600401612e1b90615e5a565b60405180910390fd5b80600f60096101000a81548160ff02191690831515021790555050565b600d8181548110612e5157600080fd5b906000526020600020016000915054906101000a900473ffffffffffffffffffffffffffffffffffffffff1681565b612e8d33858486856137eb565b50505050565b612e9b6136af565b73ffffffffffffffffffffffffffffffffffffffff16612eb9611fee565b73ffffffffffffffffffffffffffffffffffffffff1614612f0f576040517f08c379a0000000000000000000000000000000000000000000000000000000008152600401612f0690615e5a565b60405180910390fd5b600c60008273ffffffffffffffffffffffffffffffffffffffff1673ffffffffffffffffffffffffffffffffffffffff16815260200190815260200160002060009054906101000a900460ff16612f6557600080fd5b600c60008273ffffffffffffffffffffffffffffffffffffffff1673ffffffffffffffffffffffffffffffffffffffff16815260200190815260200160002060006101000a81549060ff021916905560005b600d80549050811015613140578173ffffffffffffffffffffffffffffffffffffffff16600d8281548110612fef57612fee6164ef565b5b9060005260206000200160009054906101000a900473ffffffffffffffffffffffffffffffffffffffff1673ffffffffffffffffffffffffffffffffffffffff160361312d57600d6001600d805490506130499190615c51565b8154811061305a576130596164ef565b5b9060005260206000200160009054906101000a900473ffffffffffffffffffffffffffffffffffffffff16600d8281548110613099576130986164ef565b5b9060005260206000200160006101000a81548173ffffffffffffffffffffffffffffffffffffffff021916908373ffffffffffffffffffffffffffffffffffffffff160217905550600d8054806130f3576130f261651e565b5b6001900381819060005260206000200160006101000a81549073ffffffffffffffffffffffffffffffffffffffff02191690559055613140565b80806131389061654d565b915050612fb7565b5050565b565b606060088054806020026020016040519081016040528092919081815260200182805480156131ca57602002820191906000526020600020905b8160009054906101000a900473ffffffffffffffffffffffffffffffffffffffff1673ffffffffffffffffffffffffffffffffffffffff1681526020019060010190808311613180575b5050505050905090565b6131dc6136af565b73ffffffffffffffffffffffffffffffffffffffff166131fa611fee565b73ffffffffffffffffffffffffffffffffffffffff1614613250576040517f08c379a000000000000000000000000000000000000000000000000000000000815260040161324790615e5a565b60405180910390fd5b60008160ff1611613296576040517f08c379a000000000000000000000000000000000000000000000000000000000815260040161328d906165e1565b60405180910390fd5b8060ff16600d8054905010156132e1576040517f08c379a00000000000000000000000000000000000000000000000000000000081526004016132d89061664d565b60405180910390fd5b80600e60008460028111156132f9576132f8615c85565b5b60ff1660ff16815260200190815260200160002060006101000a81548160ff021916908360ff1602179055505050565b6133316136af565b73ffffffffffffffffffffffffffffffffffffffff1661334f611fee565b73ffffffffffffffffffffffffffffffffffffffff16146133a5576040517f08c379a000000000000000000000000000000000000000000000000000000000815260040161339c90615e5a565b60405180910390fd5b6133ae8161448c565b50565b6133bf338686868686613bb8565b5050505050565b601260009054906101000a900460ff1681565b6133e16136af565b73ffffffffffffffffffffffffffffffffffffffff166133ff611fee565b73ffffffffffffffffffffffffffffffffffffffff1614613455576040517f08c379a000000000000000000000000000000000000000000000000000000000815260040161344c90615e5a565b60405180910390fd5b600073ffffffffffffffffffffffffffffffffffffffff168173ffffffffffffffffffffffffffffffffffffffff16036134c4576040517f08c379a00000000000000000000000000000000000000000000000000000000081526004016134bb906166df565b60405180910390fd5b6134cd816143c6565b50565b600281565b6000806002549050600073ffffffffffffffffffffffffffffffffffffffff16600160009054906101000a900473ffffffffffffffffffffffffffffffffffffffff1673ffffffffffffffffffffffffffffffffffffffff161415801561353c5750600081115b1561365d5780831015613584576040517f08c379a000000000000000000000000000000000000000000000000000000000815260040161357b9061674b565b60405180910390fd5b600160009054906101000a900473ffffffffffffffffffffffffffffffffffffffff1673ffffffffffffffffffffffffffffffffffffffff166108fc829081150290604051600060405180830381858888f193505050501580156135ec573d6000803e3d6000fd5b50600081846135fb9190615c51565b1115613654573373ffffffffffffffffffffffffffffffffffffffff166108fc82856136279190615c51565b9081150290604051600060405180830381858888f19350505050158015613652573d6000803e3d6000fd5b505b809150506136aa565b3373ffffffffffffffffffffffffffffffffffffffff166108fc849081150290604051600060405180830381858888f193505050501580156136a3573d6000803e3d6000fd5b5060009150505b919050565b600033905090565b60008167ffffffffffffffff16600f60009054906101000a900467ffffffffffffffff1667ffffffffffffffff1614613725576040517f08c379a000000000000000000000000000000000000000000000000000000000815260040161371c906167b7565b60405180910390fd5b60008036604051613737929190616807565b6040518091039020905061374d60018483614513565b156137a957600f600081819054906101000a900467ffffffffffffffff168092919061377890615dde565b91906101000a81548167ffffffffffffffff021916908367ffffffffffffffff1602179055505060019150506137af565b60009150505b919050565b80600281905550807fa7a33d0996347e1aa55ca2206015b61b9534bdd881d59d59aa680e25eefac36560405160405180910390a250565b84600073ffffffffffffffffffffffffffffffffffffffff16600660008373ffffffffffffffffffffffffffffffffffffffff1673ffffffffffffffffffffffffffffffffffffffff16815260200190815260200160002060009054906101000a900473ffffffffffffffffffffffffffffffffffffffff1673ffffffffffffffffffffffffffffffffffffffff16036138ba576040517f08c379a00000000000000000000000000000000000000000000000000000000081526004016138b190615ec6565b60405180910390fd5b8560001515600960008373ffffffffffffffffffffffffffffffffffffffff1673ffffffffffffffffffffffffffffffffffffffff16815260200190815260200160002060009054906101000a900460ff1615151461394e576040517f08c379a000000000000000000000000000000000000000000000000000000000815260040161394590615f32565b60405180910390fd5b600f60099054906101000a900460ff1661399d576040517f08c379a000000000000000000000000000000000000000000000000000000000815260040161399490615b96565b60405180910390fd5b60008773ffffffffffffffffffffffffffffffffffffffff1663c87b56dd866040518263ffffffff1660e01b81526004016139d8919061540a565b600060405180830381865afa1580156139f5573d6000803e3d6000fd5b505050506040513d6000823e3d601f19601f82011682018060405250810190613a1e9190616890565b9050600f60089054906101000a900460ff1615613aa1578773ffffffffffffffffffffffffffffffffffffffff166342966c68866040518263ffffffff1660e01b8152600401613a6e919061540a565b600060405180830381600087803b158015613a8857600080fd5b505af1158015613a9c573d6000803e3d6000fd5b505050505b8773ffffffffffffffffffffffffffffffffffffffff168673ffffffffffffffffffffffffffffffffffffffff168873ffffffffffffffffffffffffffffffffffffffff167f17d76053ca34a4dd8c402fe6498deb797fac89bf7ed02f3f5161aa9368cc8c1f600289600f600a9054906101000a900467ffffffffffffffff1660008b60028a604051602001613b3791906168d9565b604051602081830303815290604052604051613b59979695949392919061697b565b60405180910390a4600f600a81819054906101000a900467ffffffffffffffff1680929190613b8790615dde565b91906101000a81548167ffffffffffffffff021916908367ffffffffffffffff160217905550505050505050505050565b85600073ffffffffffffffffffffffffffffffffffffffff16600660008373ffffffffffffffffffffffffffffffffffffffff1673ffffffffffffffffffffffffffffffffffffffff16815260200190815260200160002060009054906101000a900473ffffffffffffffffffffffffffffffffffffffff1673ffffffffffffffffffffffffffffffffffffffff1603613c87576040517f08c379a0000000000000000000000000000000000000000000000000000000008152600401613c7e90615ec6565b60405180910390fd5b8660001515600960008373ffffffffffffffffffffffffffffffffffffffff1673ffffffffffffffffffffffffffffffffffffffff16815260200190815260200160002060009054906101000a900460ff16151514613d1b576040517f08c379a0000000000000000000000000000000000000000000000000000000008152600401613d1290615f32565b60405180910390fd5b600f60099054906101000a900460ff16613d6a576040517f08c379a0000000000000000000000000000000000000000000000000000000008152600401613d6190615b96565b60405180910390fd5b60008511613dad576040517f08c379a0000000000000000000000000000000000000000000000000000000008152600401613da490616a44565b60405180910390fd5b6000613dba888a876147e2565b9050600f60089054906101000a900460ff1615613e3d578873ffffffffffffffffffffffffffffffffffffffff166342966c68876040518263ffffffff1660e01b8152600401613e0a919061540a565b600060405180830381600087803b158015613e2457600080fd5b505af1158015613e38573d6000803e3d6000fd5b505050505b8873ffffffffffffffffffffffffffffffffffffffff168773ffffffffffffffffffffffffffffffffffffffff168973ffffffffffffffffffffffffffffffffffffffff167feff76c36e53fa5ff52f27acc8a34d5047a8246abb07b77b12f1309f71e337f0960018a600f600a9054906101000a900467ffffffffffffffff16878b604051613ed0959493929190615d84565b60405180910390a4600f600a81819054906101000a900467ffffffffffffffff1680929190613efe90615dde565b91906101000a81548167ffffffffffffffff021916908367ffffffffffffffff16021790555050505050505050505050565b80600360008473ffffffffffffffffffffffffffffffffffffffff1673ffffffffffffffffffffffffffffffffffffffff16815260200190815260200160002081905550808273ffffffffffffffffffffffffffffffffffffffff167fdb5ad2e76ae20cfa4e7adbc7305d7538442164d85ead9937c98620a1aa4c255b60405160405180910390a35050565b8067ffffffffffffffff16600f60129054906101000a900467ffffffffffffffff1667ffffffffffffffff161115614029576040517f08c379a000000000000000000000000000000000000000000000000000000000815260040161402090616ab0565b60405180910390fd5b50565b6000600b60008367ffffffffffffffff1667ffffffffffffffff16815260200190815260200160002060009054906101000a900460ff16156140a3576040517f08c379a000000000000000000000000000000000000000000000000000000000815260040161409a90616b1c565b60405180910390fd5b600080366040516140b5929190616807565b604051809103902090506140cb60008483614513565b1561411a576001600b60008567ffffffffffffffff1667ffffffffffffffff16815260200190815260200160002060006101000a81548160ff0219169083151502179055506001915050614120565b60009150505b919050565b600160008083815260200190815260200160002060006101000a81548160ff02191690831515021790555050565b601060009054906101000a900467ffffffffffffffff1667ffffffffffffffff168167ffffffffffffffff1611156141af5780601060006101000a81548167ffffffffffffffff021916908367ffffffffffffffff1602179055505b600060c8600f60129054906101000a900467ffffffffffffffff166141d49190616b3c565b9050601060009054906101000a900467ffffffffffffffff1667ffffffffffffffff168167ffffffffffffffff16111561422257601060009054906101000a900467ffffffffffffffff1690505b6000600f60129054906101000a900467ffffffffffffffff1690505b8167ffffffffffffffff168167ffffffffffffffff16111580156142a757506000601160008367ffffffffffffffff1667ffffffffffffffff16815260200190815260200160002060009054906101000a900467ffffffffffffffff1667ffffffffffffffff16115b1561439857601160008267ffffffffffffffff1667ffffffffffffffff16815260200190815260200160002060009054906101000a900467ffffffffffffffff16601060086101000a81548167ffffffffffffffff021916908367ffffffffffffffff160217905550601160008267ffffffffffffffff1667ffffffffffffffff16815260200190815260200160002060006101000a81549067ffffffffffffffff0219169055600b60008267ffffffffffffffff1667ffffffffffffffff16815260200190815260200160002060006101000a81549060ff0219169055808061439090615dde565b91505061423e565b80600f60126101000a81548167ffffffffffffffff021916908367ffffffffffffffff160217905550505050565b6000600460009054906101000a900473ffffffffffffffffffffffffffffffffffffffff16905081600460006101000a81548173ffffffffffffffffffffffffffffffffffffffff021916908373ffffffffffffffffffffffffffffffffffffffff1602179055508173ffffffffffffffffffffffffffffffffffffffff168173ffffffffffffffffffffffffffffffffffffffff167f8be0079c531659141344cd1fd0a4f28419497f9722a3daafe3b4186f6b6457e060405160405180910390a35050565b80600160006101000a81548173ffffffffffffffffffffffffffffffffffffffff021916908373ffffffffffffffffffffffffffffffffffffffff1602179055508073ffffffffffffffffffffffffffffffffffffffff167f647672599d3468abcfa241a13c9e3d34383caadb5cc80fb67c3cdfcd5f78605960405160405180910390a250565b600080600a600086600281111561452d5761452c615c85565b5b60ff1660ff16815260200190815260200160002060008567ffffffffffffffff1667ffffffffffffffff168152602001908152602001600020905060008160010160003373ffffffffffffffffffffffffffffffffffffffff1673ffffffffffffffffffffffffffffffffffffffff1681526020019081526020016000205490506000801b81036146225781600001339080600181540180825580915050600190039060005260206000200160009091909190916101000a81548173ffffffffffffffffffffffffffffffffffffffff021916908373ffffffffffffffffffffffffffffffffffffffff16021790555061466e565b816003016000828152602001908152602001600020600081819054906101000a900460ff168092919061465490616b7a565b91906101000a81548160ff021916908360ff160217905550505b838260010160003373ffffffffffffffffffffffffffffffffffffffff1673ffffffffffffffffffffffffffffffffffffffff16815260200190815260200160002081905550600082600301600086815260200190815260200160002060009054906101000a900460ff1660ff160361470d57816002018490806001815401808255809150506001900390600052602060002001600090919091909150555b816003016000858152602001908152602001600020600081819054906101000a900460ff168092919061473f90616ba3565b91906101000a81548160ff021916908360ff16021790555050600e600087600281111561476f5761476e615c85565b5b60ff1660ff16815260200190815260200160002060009054906101000a900460ff1660ff1682600301600086815260200190815260200160002060009054906101000a900460ff1660ff16106147d4576147c98686614b5d565b6001925050506147db565b6000925050505b9392505050565b600080600360008573ffffffffffffffffffffffffffffffffffffffff1673ffffffffffffffffffffffffffffffffffffffff168152602001908152602001600020549050600073ffffffffffffffffffffffffffffffffffffffff16600160009054906101000a900473ffffffffffffffffffffffffffffffffffffffff1673ffffffffffffffffffffffffffffffffffffffff16141580156148865750600081115b15614a9357808310156148ce576040517f08c379a00000000000000000000000000000000000000000000000000000000081526004016148c59061674b565b60405180910390fd5b8373ffffffffffffffffffffffffffffffffffffffff1663a9059cbb600160009054906101000a900473ffffffffffffffffffffffffffffffffffffffff16836040518363ffffffff1660e01b815260040161492b929190616c21565b6020604051808303816000875af115801561494a573d6000803e3d6000fd5b505050506040513d601f19601f8201168201806040525081019061496e91906160cc565b6149ad576040517f08c379a00000000000000000000000000000000000000000000000000000000081526004016149a490616cbc565b60405180910390fd5b600081846149bb9190615c51565b1115614a8a578373ffffffffffffffffffffffffffffffffffffffff1663a9059cbb8683866149ea9190615c51565b6040518363ffffffff1660e01b8152600401614a079291906162da565b6020604051808303816000875af1158015614a26573d6000803e3d6000fd5b505050506040513d601f19601f82011682018060405250810190614a4a91906160cc565b614a89576040517f08c379a0000000000000000000000000000000000000000000000000000000008152600401614a8090616cbc565b60405180910390fd5b5b80915050614b56565b8373ffffffffffffffffffffffffffffffffffffffff1663a9059cbb86856040518363ffffffff1660e01b8152600401614ace9291906162da565b6020604051808303816000875af1158015614aed573d6000803e3d6000fd5b505050506040513d601f19601f82011682018060405250810190614b1191906160cc565b614b50576040517f08c379a0000000000000000000000000000000000000000000000000000000008152600401614b4790616cbc565b60405180910390fd5b60009150505b9392505050565b6000600a6000846002811115614b7657614b75615c85565b5b60ff1660ff16815260200190815260200160002060008367ffffffffffffffff1667ffffffffffffffff168152602001908152602001600020905060005b81600001805490508160ff161015614c6157816001016000836000018360ff1681548110614be557614be46164ef565b5b9060005260206000200160009054906101000a900473ffffffffffffffffffffffffffffffffffffffff1673ffffffffffffffffffffffffffffffffffffffff1673ffffffffffffffffffffffffffffffffffffffff168152602001908152602001600020600090558080614c5990616ba3565b915050614bb4565b5060005b81600201805490508160ff161015614cd257816003016000836002018360ff1681548110614c9657614c956164ef565b5b9060005260206000200154815260200190815260200160002060006101000a81549060ff02191690558080614cca90616ba3565b915050614c65565b50600a6000846002811115614cea57614ce9615c85565b5b60ff1660ff16815260200190815260200160002060008367ffffffffffffffff1667ffffffffffffffff16815260200190815260200160002060008082016000614d349190614d4b565b600282016000614d449190614d6c565b5050505050565b5080546000825590600052602060002090810190614d699190614d8d565b50565b5080546000825590600052602060002090810190614d8a9190614daa565b50565b5b80821115614da6576000816000905550600101614d8e565b5090565b5b80821115614dc3576000816000905550600101614dab565b5090565b7f4e487b7100000000000000000000000000000000000000000000000000000000600052604160045260246000fd5b6000604051905090565b600080fd5b600080fd5b600073ffffffffffffffffffffffffffffffffffffffff82169050919050565b6000614e3582614e0a565b9050919050565b614e4581614e2a565b8114614e5057600080fd5b50565b600081359050614e6281614e3c565b92915050565b600060208284031215614e7e57614e7d614e00565b5b6000614e8c84828501614e53565b91505092915050565b600067ffffffffffffffff82169050919050565b614eb281614e95565b8114614ebd57600080fd5b50565b600081359050614ecf81614ea9565b92915050565b600060208284031215614eeb57614eea614e00565b5b6000614ef984828501614ec0565b91505092915050565b614f0b81614e95565b82525050565b6000602082019050614f266000830184614f02565b92915050565b60008115159050919050565b614f4181614f2c565b82525050565b6000602082019050614f5c6000830184614f38565b92915050565b6000819050919050565b614f7581614f62565b8114614f8057600080fd5b50565b600081359050614f9281614f6c565b92915050565b60008060408385031215614faf57614fae614e00565b5b6000614fbd85828601614f83565b9250506020614fce85828601614ec0565b9150509250929050565b600080fd5b600080fd5b6000601f19601f8301169050919050565b614ffc82614fe2565b810181811067ffffffffffffffff8211171561501b5761501a614dc7565b5b80604052505050565b600061502e614df6565b905061503a8282614ff3565b919050565b600067ffffffffffffffff82111561505a57615059614dc7565b5b61506382614fe2565b9050602081019050919050565b82818337600083830152505050565b600061509261508d8461503f565b615024565b9050828152602081018484840111156150ae576150ad614fdd565b5b6150b9848285615070565b509392505050565b600082601f8301126150d6576150d5614fd8565b5b81356150e684826020860161507f565b91505092915050565b6000806000806080858703121561510957615108614e00565b5b600061511787828801614e53565b945050602061512887828801614e53565b935050604061513987828801614f83565b925050606085013567ffffffffffffffff81111561515a57615159614e05565b5b615166878288016150c1565b91505092959194509250565b600080600080600060a0868803121561518e5761518d614e00565b5b600061519c88828901614e53565b95505060206151ad88828901614e53565b94505060406151be88828901614f83565b93505060606151cf88828901614f83565b925050608086013567ffffffffffffffff8111156151f0576151ef614e05565b5b6151fc888289016150c1565b9150509295509295909350565b60008060006060848603121561522257615221614e00565b5b600061523086828701614e53565b935050602061524186828701614f83565b925050604061525286828701614ec0565b9150509250925092565b61526581614e2a565b82525050565b6000602082019050615280600083018461525c565b92915050565b60006020828403121561529c5761529b614e00565b5b60006152aa84828501614f83565b91505092915050565b6000819050919050565b6152c6816152b3565b81146152d157600080fd5b50565b6000813590506152e3816152bd565b92915050565b600080600080600080600080610100898b03121561530a57615309614e00565b5b60006153188b828c016152d4565b98505060206153298b828c01614e53565b975050604061533a8b828c01614e53565b965050606061534b8b828c01614e53565b955050608061535c8b828c01614f83565b94505060a061536d8b828c01614ec0565b93505060c061537e8b828c01614ec0565b92505060e089013567ffffffffffffffff81111561539f5761539e614e05565b5b6153ab8b828c016150c1565b9150509295985092959890939650565b600080604083850312156153d2576153d1614e00565b5b60006153e085828601614e53565b92505060206153f185828601614e53565b9150509250929050565b61540481614f62565b82525050565b600060208201905061541f60008301846153fb565b92915050565b600060ff82169050919050565b61543b81615425565b811461544657600080fd5b50565b60008135905061545881615432565b92915050565b60006020828403121561547457615473614e00565b5b600061548284828501615449565b91505092915050565b61549481615425565b82525050565b60006020820190506154af600083018461548b565b92915050565b600080fd5b600080fd5b60008083601f8401126154d5576154d4614fd8565b5b8235905067ffffffffffffffff8111156154f2576154f16154b5565b5b60208301915083600182028301111561550e5761550d6154ba565b5b9250929050565b6000806000806060858703121561552f5761552e614e00565b5b600061553d87828801614e53565b945050602061554e87828801614f83565b935050604085013567ffffffffffffffff81111561556f5761556e614e05565b5b61557b878288016154bf565b925092505092959194509250565b60006020828403121561559f5761559e614e00565b5b60006155ad848285016152d4565b91505092915050565b60006155c182614e0a565b9050919050565b6155d1816155b6565b81146155dc57600080fd5b50565b6000813590506155ee816155c8565b92915050565b600080600080600080600060e0888a03121561561357615612614e00565b5b60006156218a828b016152d4565b97505060206156328a828b01614e53565b96505060406156438a828b016155df565b95505060606156548a828b01614f83565b94505060806156658a828b01614ec0565b93505060a06156768a828b01614ec0565b92505060c088013567ffffffffffffffff81111561569757615696614e05565b5b6156a38a828b016150c1565b91505092959891949750929550565b600067ffffffffffffffff8211156156cd576156cc614dc7565b5b6156d682614fe2565b9050602081019050919050565b60006156f66156f1846156b2565b615024565b90508281526020810184848401111561571257615711614fdd565b5b61571d848285615070565b509392505050565b600082601f83011261573a57615739614fd8565b5b813561574a8482602086016156e3565b91505092915050565b60008060008060008060008060006101208a8c03121561577657615775614e00565b5b60006157848c828d016152d4565b99505060206157958c828d01614e53565b98505060406157a68c828d01614e53565b97505060606157b78c828d01614e53565b96505060806157c88c828d01614f83565b95505060a06157d98c828d01614ec0565b94505060c06157ea8c828d01614ec0565b93505060e08a013567ffffffffffffffff81111561580b5761580a614e05565b5b6158178c828d01615725565b9250506101008a013567ffffffffffffffff81111561583957615838614e05565b5b6158458c828d016150c1565b9150509295985092959850929598565b600081519050919050565b600082825260208201905092915050565b6000819050602082019050919050565b61588a81614e2a565b82525050565b600061589c8383615881565b60208301905092915050565b6000602082019050919050565b60006158c082615855565b6158ca8185615860565b93506158d583615871565b8060005b838110156159065781516158ed8882615890565b97506158f8836158a8565b9250506001810190506158d9565b5085935050505092915050565b6000602082019050818103600083015261592d81846158b5565b905092915050565b61593e816155b6565b82525050565b60006020820190506159596000830184615935565b92915050565b61596881614f2c565b811461597357600080fd5b50565b6000813590506159858161595f565b92915050565b6000602082840312156159a1576159a0614e00565b5b60006159af84828501615976565b91505092915050565b600080600080608085870312156159d2576159d1614e00565b5b60006159e087828801614e53565b94505060206159f187828801614f83565b9350506040615a0287828801614e53565b925050606085013567ffffffffffffffff811115615a2357615a22614e05565b5b615a2f878288016150c1565b91505092959194509250565b60038110615a4857600080fd5b50565b600081359050615a5a81615a3b565b92915050565b60008060408385031215615a7757615a76614e00565b5b6000615a8585828601615a4b565b9250506020615a9685828601615449565b9150509250929050565b600060208284031215615ab657615ab5614e00565b5b6000615ac4848285016155df565b91505092915050565b600082825260208201905092915050565b7f6c6f636b65640000000000000000000000000000000000000000000000000000600082015250565b6000615b14600683615acd565b9150615b1f82615ade565b602082019050919050565b60006020820190508181036000830152615b4381615b07565b9050919050565b7f73746f7070656420627269646765000000000000000000000000000000000000600082015250565b6000615b80600e83615acd565b9150615b8b82615b4a565b602082019050919050565b60006020820190508181036000830152615baf81615b73565b9050919050565b7f696e73756666696369656e7420616d6f756e7400000000000000000000000000600082015250565b6000615bec601383615acd565b9150615bf782615bb6565b602082019050919050565b60006020820190508181036000830152615c1b81615bdf565b9050919050565b7f4e487b7100000000000000000000000000000000000000000000000000000000600052601160045260246000fd5b6000615c5c82614f62565b9150615c6783614f62565b925082821015615c7a57615c79615c22565b5b828203905092915050565b7f4e487b7100000000000000000000000000000000000000000000000000000000600052602160045260246000fd5b60038110615cc557615cc4615c85565b5b50565b6000819050615cd682615cb4565b919050565b6000615ce682615cc8565b9050919050565b615cf681615cdb565b82525050565b600081519050919050565b600082825260208201905092915050565b60005b83811015615d36578082015181840152602081019050615d1b565b83811115615d45576000848401525b50505050565b6000615d5682615cfc565b615d608185615d07565b9350615d70818560208601615d18565b615d7981614fe2565b840191505092915050565b600060a082019050615d996000830188615ced565b615da660208301876153fb565b615db36040830186614f02565b615dc060608301856153fb565b8181036080830152615dd28184615d4b565b90509695505050505050565b6000615de982614e95565b915067ffffffffffffffff8203615e0357615e02615c22565b5b600182019050919050565b7f4f776e61626c653a2063616c6c6572206973206e6f7420746865206f776e6572600082015250565b6000615e44602083615acd565b9150615e4f82615e0e565b602082019050919050565b60006020820190508181036000830152615e7381615e37565b9050919050565b7f6e6f7420616c6c6f77656420746f6b656e000000000000000000000000000000600082015250565b6000615eb0601183615acd565b9150615ebb82615e7a565b602082019050919050565b60006020820190508181036000830152615edf81615ea3565b9050919050565b7f6c6f636b656420746f6b656e0000000000000000000000000000000000000000600082015250565b6000615f1c600c83615acd565b9150615f2782615ee6565b602082019050919050565b60006020820190508181036000830152615f4b81615f0f565b9050919050565b7f6d73672e73656e646572206973206e6f7420616e206f70657261746f72000000600082015250565b6000615f88601d83615acd565b9150615f9382615f52565b602082019050919050565b60006020820190508181036000830152615fb781615f7b565b9050919050565b7f756e6c6f636b6564000000000000000000000000000000000000000000000000600082015250565b6000615ff4600883615acd565b9150615fff82615fbe565b602082019050919050565b6000602082019050818103600083015261602381615fe7565b9050919050565b600060608201905061603f600083018661525c565b61604c602083018561525c565b61605960408301846153fb565b949350505050565b600061606c82614f62565b915061607783614f62565b9250827fffffffffffffffffffffffffffffffffffffffffffffffffffffffffffffffff038211156160ac576160ab615c22565b5b828201905092915050565b6000815190506160c68161595f565b92915050565b6000602082840312156160e2576160e1614e00565b5b60006160f0848285016160b7565b91505092915050565b7f7265717565737445524332305472616e736665723a207472616e73666572467260008201527f6f6d206661696c65640000000000000000000000000000000000000000000000602082015250565b6000616155602983615acd565b9150616160826160f9565b604082019050919050565b6000602082019050818103600083015261618481616148565b9050919050565b7f6d6178206f70657261746f72206c696d69740000000000000000000000000000600082015250565b60006161c1601283615acd565b91506161cc8261618b565b602082019050919050565b600060208201905081810360008301526161f0816161b4565b9050919050565b7f6578697374206f70657261746f72000000000000000000000000000000000000600082015250565b600061622d600e83615acd565b9150616238826161f7565b602082019050919050565b6000602082019050818103600083015261625c81616220565b9050919050565b61626c816152b3565b82525050565b600060c0820190506162876000830189616263565b6162946020830188615ced565b6162a160408301876153fb565b6162ae6060830186614f02565b6162bb6080830185614f02565b81810360a08301526162cd8184615d4b565b9050979650505050505050565b60006040820190506162ef600083018561525c565b6162fc60208301846153fb565b9392505050565b7f68616e646c6545524332305472616e736665723a207472616e7366657220666160008201527f696c656400000000000000000000000000000000000000000000000000000000602082015250565b600061635f602483615acd565b915061636a82616303565b604082019050919050565b6000602082019050818103600083015261638e81616352565b9050919050565b7f616c6c6f77656420746f6b656e00000000000000000000000000000000000000600082015250565b60006163cb600d83615acd565b91506163d682616395565b602082019050919050565b600060208201905081810360008301526163fa816163be565b9050919050565b7f756e6c6f636b656420746f6b656e000000000000000000000000000000000000600082015250565b6000616437600e83615acd565b915061644282616401565b602082019050919050565b600060208201905081810360008301526164668161642a565b9050919050565b600081519050919050565b60006164838261646d565b61648d8185615acd565b935061649d818560208601615d18565b6164a681614fe2565b840191505092915050565b60006060820190506164c6600083018661525c565b6164d360208301856153fb565b81810360408301526164e58184616478565b9050949350505050565b7f4e487b7100000000000000000000000000000000000000000000000000000000600052603260045260246000fd5b7f4e487b7100000000000000000000000000000000000000000000000000000000600052603160045260246000fd5b600061655882614f62565b91507fffffffffffffffffffffffffffffffffffffffffffffffffffffffffffffffff820361658a57616589615c22565b5b600182019050919050565b7f7a65726f207468726573686f6c64000000000000000000000000000000000000600082015250565b60006165cb600e83615acd565b91506165d682616595565b602082019050919050565b600060208201905081810360008301526165fa816165be565b9050919050565b7f626967676572207468616e206e756d206f66206f70657261746f727300000000600082015250565b6000616637601c83615acd565b915061664282616601565b602082019050919050565b600060208201905081810360008301526166668161662a565b9050919050565b7f4f776e61626c653a206e6577206f776e657220697320746865207a65726f206160008201527f6464726573730000000000000000000000000000000000000000000000000000602082015250565b60006166c9602683615acd565b91506166d48261666d565b604082019050919050565b600060208201905081810360008301526166f8816166bc565b9050919050565b7f696e73756666696369656e74206665654c696d69740000000000000000000000600082015250565b6000616735601583615acd565b9150616740826166ff565b602082019050919050565b6000602082019050818103600083015261676481616728565b9050919050565b7f6e6f6e6365206d69736d61746368000000000000000000000000000000000000600082015250565b60006167a1600e83615acd565b91506167ac8261676b565b602082019050919050565b600060208201905081810360008301526167d081616794565b9050919050565b600081905092915050565b60006167ee83856167d7565b93506167fb838584615070565b82840190509392505050565b60006168148284866167e2565b91508190509392505050565b600061683361682e846156b2565b615024565b90508281526020810184848401111561684f5761684e614fdd565b5b61685a848285615d18565b509392505050565b600082601f83011261687757616876614fd8565b5b8151616887848260208601616820565b91505092915050565b6000602082840312156168a6576168a5614e00565b5b600082015167ffffffffffffffff8111156168c4576168c3614e05565b5b6168d084828501616862565b91505092915050565b600060208201905081810360008301526168f38184616478565b905092915050565b6000819050919050565b6000819050919050565b600061692a616925616920846168fb565b616905565b614f62565b9050919050565b61693a8161690f565b82525050565b6000819050919050565b600061696561696061695b84616940565b616905565b615425565b9050919050565b6169758161694a565b82525050565b600060e082019050616990600083018a615ced565b61699d60208301896153fb565b6169aa6040830188614f02565b6169b76060830187616931565b81810360808301526169c98186615d4b565b90506169d860a083018561696c565b81810360c08301526169ea8184615d4b565b905098975050505050505050565b7f7a65726f206d73672e76616c7565000000000000000000000000000000000000600082015250565b6000616a2e600e83615acd565b9150616a39826169f8565b602082019050919050565b60006020820190508181036000830152616a5d81616a21565b9050919050565b7f72656d6f76656420766f74650000000000000000000000000000000000000000600082015250565b6000616a9a600c83615acd565b9150616aa582616a64565b602082019050919050565b60006020820190508181036000830152616ac981616a8d565b9050919050565b7f636c6f73656420766f7465000000000000000000000000000000000000000000600082015250565b6000616b06600b83615acd565b9150616b1182616ad0565b602082019050919050565b60006020820190508181036000830152616b3581616af9565b9050919050565b6000616b4782614e95565b9150616b5283614e95565b92508267ffffffffffffffff03821115616b6f57616b6e615c22565b5b828201905092915050565b6000616b8582615425565b915060008203616b9857616b97615c22565b5b600182039050919050565b6000616bae82615425565b915060ff8203616bc157616bc0615c22565b5b600182019050919050565b6000616be7616be2616bdd84614e0a565b616905565b614e0a565b9050919050565b6000616bf982616bcc565b9050919050565b6000616c0b82616bee565b9050919050565b616c1b81616c00565b82525050565b6000604082019050616c366000830185616c12565b616c4360208301846153fb565b9392505050565b7f5f7061794552433230466565416e64526566756e644368616e67653a2074726160008201527f6e73666572206661696c65640000000000000000000000000000000000000000602082015250565b6000616ca6602c83615acd565b9150616cb182616c4a565b604082019050919050565b60006020820190508181036000830152616cd581616c99565b905091905056fea2646970667358221220b18a7c48ac36f6475ec334388fb13b4f8dfbd070abc0ae133f06ae064ec4b06f64736f6c634300080e0033",
  "immutableReferences": {},
  "source": "// SPDX-License-Identifier: MIT\n\n// Copyright 2019 The klaytn Authors\n// This file is part of the klaytn library.\n//\n// The klaytn library is free software: you can redistribute it and/or modify\n// it under the terms of the GNU Lesser General Public License as published by\n// the Free Software Foundation, either version 3 of the License, or\n// (at your option) any later version.\n//\n// The klaytn library is distributed in the hope that it will be useful,\n// but WITHOUT ANY WARRANTY; without even the implied warranty of\n// MERCHANTABILITY or FITNESS FOR A PARTICULAR PURPOSE. See the\n// GNU Lesser General Public License for more details.\n//\n// You should have received a copy of the GNU Lesser General Public License\n// along with the klaytn library. If not, see <http://www.gnu.org/licenses/>.\n\npragma solidity ^0.8.0;\n\nimport \"./BridgeTransferKLAY.sol\";\nimport \"./BridgeTransferERC20.sol\";\nimport \"./BridgeTransferERC721.sol\";\nimport \"./BridgeCounterPart.sol\";\n\n\ncontract Bridge is BridgeCounterPart, BridgeTransferKLAY, BridgeTransferERC20, BridgeTransferERC721 {\n    uint64 public constant VERSION = 2;\n\n    constructor(bool _modeMintBurn) BridgeTransfer(_modeMintBurn) payable {\n    }\n}\n",
  "sourcePath": "/Users/henry/git/servicechain-bridge-contracts/contracts/sc/bridge/Bridge.sol",
  "compiler": {
    "name": "solc",
    "version": "0.8.14+commit.80d49f37.Emscripten.clang"
  },
  "schemaVersion": "3.4.7",
  "updatedAt": "2022-06-15T12:34:59.465Z",
  "devdoc": {
    "kind": "dev",
    "methods": {
      "owner()": {
        "details": "Returns the address of the current owner."
      },
      "renounceOwnership()": {
        "details": "Leaves the contract without owner. It will not be possible to call `onlyOwner` functions anymore. Can only be called by the current owner. NOTE: Renouncing ownership will leave the contract without an owner, thereby removing any functionality that is only available to the owner."
      },
      "transferOwnership(address)": {
        "details": "Transfers ownership of the contract to a new account (`newOwner`). Can only be called by the current owner."
      }
    },
    "version": 1
  },
  "userdoc": {
    "events": {
      "HandleValueTransfer(bytes32,uint8,address,address,address,uint256,uint64,uint64,bytes)": {
        "notice": "Event to log the handle value transfer from the Bridge."
      },
      "RequestValueTransfer(uint8,address,address,address,uint256,uint64,uint256,bytes)": {
        "notice": "Event to log the request value transfer from the Bridge."
      },
      "RequestValueTransferEncoded(uint8,address,address,address,uint256,uint64,uint256,bytes,uint8,bytes)": {
        "notice": "Event to log the request value transfer from the Bridge."
      }
    },
    "kind": "user",
    "methods": {},
    "version": 1
  }
}