{
  "contractName": "BridgeTokens",
  "abi": [
    {
      "anonymous": false,
      "inputs": [
        {
          "indexed": true,
          "internalType": "address",
          "name": "previousOwner",
          "type": "address"
        },
        {
          "indexed": true,
          "internalType": "address",
          "name": "newOwner",
          "type": "address"
        }
      ],
      "name": "OwnershipTransferred",
      "type": "event"
    },
    {
      "anonymous": false,
      "inputs": [
        {
          "indexed": true,
          "internalType": "address",
          "name": "token",
          "type": "address"
        }
      ],
      "name": "TokenDeregistered",
      "type": "event"
    },
    {
      "anonymous": false,
      "inputs": [
        {
          "indexed": true,
          "internalType": "address",
          "name": "token",
          "type": "address"
        }
      ],
      "name": "TokenLocked",
      "type": "event"
    },
    {
      "anonymous": false,
      "inputs": [
        {
          "indexed": true,
          "internalType": "address",
          "name": "token",
          "type": "address"
        }
      ],
      "name": "TokenRegistered",
      "type": "event"
    },
    {
      "anonymous": false,
      "inputs": [
        {
          "indexed": true,
          "internalType": "address",
          "name": "token",
          "type": "address"
        }
      ],
      "name": "TokenUnlocked",
      "type": "event"
    },
    {
      "inputs": [
        {
          "internalType": "address",
          "name": "",
          "type": "address"
        }
      ],
      "name": "indexOfTokens",
      "outputs": [
        {
          "internalType": "uint256",
          "name": "",
          "type": "uint256"
        }
      ],
      "stateMutability": "view",
      "type": "function"
    },
    {
      "inputs": [
        {
          "internalType": "address",
          "name": "",
          "type": "address"
        }
      ],
      "name": "lockedTokens",
      "outputs": [
        {
          "internalType": "bool",
          "name": "",
          "type": "bool"
        }
      ],
      "stateMutability": "view",
      "type": "function"
    },
    {
      "inputs": [],
      "name": "owner",
      "outputs": [
        {
          "internalType": "address",
          "name": "",
          "type": "address"
        }
      ],
      "stateMutability": "view",
      "type": "function"
    },
    {
      "inputs": [
        {
          "internalType": "uint256",
          "name": "",
          "type": "uint256"
        }
      ],
      "name": "registeredTokenList",
      "outputs": [
        {
          "internalType": "address",
          "name": "",
          "type": "address"
        }
      ],
      "stateMutability": "view",
      "type": "function"
    },
    {
      "inputs": [
        {
          "internalType": "address",
          "name": "",
          "type": "address"
        }
      ],
      "name": "registeredTokens",
      "outputs": [
        {
          "internalType": "address",
          "name": "",
          "type": "address"
        }
      ],
      "stateMutability": "view",
      "type": "function"
    },
    {
      "inputs": [],
      "name": "renounceOwnership",
      "outputs": [],
      "stateMutability": "nonpayable",
      "type": "function"
    },
    {
      "inputs": [
        {
          "internalType": "address",
          "name": "newOwner",
          "type": "address"
        }
      ],
      "name": "transferOwnership",
      "outputs": [],
      "stateMutability": "nonpayable",
      "type": "function"
    },
    {
      "inputs": [],
      "name": "getRegisteredTokenList",
      "outputs": [
        {
          "internalType": "address[]",
          "name": "",
          "type": "address[]"
        }
      ],
      "stateMutability": "view",
      "type": "function"
    },
    {
      "inputs": [
        {
          "internalType": "address",
          "name": "_token",
          "type": "address"
        },
        {
          "internalType": "address",
          "name": "_cToken",
          "type": "address"
        }
      ],
      "name": "registerToken",
      "outputs": [],
      "stateMutability": "nonpayable",
      "type": "function"
    },
    {
      "inputs": [
        {
          "internalType": "address",
          "name": "_token",
          "type": "address"
        }
      ],
      "name": "deregisterToken",
      "outputs": [],
      "stateMutability": "nonpayable",
      "type": "function"
    },
    {
      "inputs": [
        {
          "internalType": "address",
          "name": "_token",
          "type": "address"
        }
      ],
      "name": "lockToken",
      "outputs": [],
      "stateMutability": "nonpayable",
      "type": "function"
    },
    {
      "inputs": [
        {
          "internalType": "address",
          "name": "_token",
          "type": "address"
        }
      ],
      "name": "unlockToken",
      "outputs": [],
      "stateMutability": "nonpayable",
      "type": "function"
    }
  ],
  "bytecode": "0x608060405234801561001057600080fd5b5061002d61002261003260201b60201c565b61003a60201b60201c565b6100fe565b600033905090565b60008060009054906101000a900473ffffffffffffffffffffffffffffffffffffffff169050816000806101000a81548173ffffffffffffffffffffffffffffffffffffffff021916908373ffffffffffffffffffffffffffffffffffffffff1602179055508173ffffffffffffffffffffffffffffffffffffffff168173ffffffffffffffffffffffffffffffffffffffff167f8be0079c531659141344cd1fd0a4f28419497f9722a3daafe3b4186f6b6457e060405160405180910390a35050565b6118568061010d6000396000f3fe608060405234801561001057600080fd5b50600436106100b45760003560e01c80638c0bd916116100715780638c0bd9161461018b5780638da5cb5b146101bb5780639ef2017b146101d9578063bab2af1d146101f5578063ea21eade14610211578063f2fde38b1461022f576100b4565b806310693fcd146100b95780633e4fe949146100d55780634739f7e51461010557806348a18a6a146101215780635eb7413a14610151578063715018a614610181575b600080fd5b6100d360048036038101906100ce9190611266565b61024b565b005b6100ef60048036038101906100ea91906112c9565b6104ca565b6040516100fc9190611305565b60405180910390f35b61011f600480360381019061011a9190611320565b610509565b005b61013b60048036038101906101369190611266565b6107c6565b604051610148919061136f565b60405180910390f35b61016b60048036038101906101669190611266565b6107de565b60405161017891906113a5565b60405180910390f35b6101896107fe565b005b6101a560048036038101906101a09190611266565b610886565b6040516101b29190611305565b60405180910390f35b6101c36108b9565b6040516101d09190611305565b60405180910390f35b6101f360048036038101906101ee9190611266565b6108e2565b005b61020f600480360381019061020a9190611266565b610b58565b005b610219610fb2565b604051610226919061147e565b60405180910390f35b61024960048036038101906102449190611266565b611040565b005b610253611137565b73ffffffffffffffffffffffffffffffffffffffff166102716108b9565b73ffffffffffffffffffffffffffffffffffffffff16146102c7576040517f08c379a00000000000000000000000000000000000000000000000000000000081526004016102be906114fd565b60405180910390fd5b80600073ffffffffffffffffffffffffffffffffffffffff16600160008373ffffffffffffffffffffffffffffffffffffffff1673ffffffffffffffffffffffffffffffffffffffff16815260200190815260200160002060009054906101000a900473ffffffffffffffffffffffffffffffffffffffff1673ffffffffffffffffffffffffffffffffffffffff1603610396576040517f08c379a000000000000000000000000000000000000000000000000000000000815260040161038d90611569565b60405180910390fd5b8160001515600460008373ffffffffffffffffffffffffffffffffffffffff1673ffffffffffffffffffffffffffffffffffffffff16815260200190815260200160002060009054906101000a900460ff1615151461042a576040517f08c379a0000000000000000000000000000000000000000000000000000000008152600401610421906115d5565b60405180910390fd5b6001600460008573ffffffffffffffffffffffffffffffffffffffff1673ffffffffffffffffffffffffffffffffffffffff16815260200190815260200160002060006101000a81548160ff0219169083151502179055508273ffffffffffffffffffffffffffffffffffffffff167fca1b0a14e18ada4c44846768dd186e35630cdc5cfeaca83c404ae4acaafbecd760405160405180910390a2505050565b600381815481106104da57600080fd5b906000526020600020016000915054906101000a900473ffffffffffffffffffffffffffffffffffffffff1681565b610511611137565b73ffffffffffffffffffffffffffffffffffffffff1661052f6108b9565b73ffffffffffffffffffffffffffffffffffffffff1614610585576040517f08c379a000000000000000000000000000000000000000000000000000000000815260040161057c906114fd565b60405180910390fd5b81600073ffffffffffffffffffffffffffffffffffffffff16600160008373ffffffffffffffffffffffffffffffffffffffff1673ffffffffffffffffffffffffffffffffffffffff16815260200190815260200160002060009054906101000a900473ffffffffffffffffffffffffffffffffffffffff1673ffffffffffffffffffffffffffffffffffffffff1614610654576040517f08c379a000000000000000000000000000000000000000000000000000000000815260040161064b90611641565b60405180910390fd5b81600160008573ffffffffffffffffffffffffffffffffffffffff1673ffffffffffffffffffffffffffffffffffffffff16815260200190815260200160002060006101000a81548173ffffffffffffffffffffffffffffffffffffffff021916908373ffffffffffffffffffffffffffffffffffffffff160217905550600380549050600260008573ffffffffffffffffffffffffffffffffffffffff1673ffffffffffffffffffffffffffffffffffffffff168152602001908152602001600020819055506003839080600181540180825580915050600190039060005260206000200160009091909190916101000a81548173ffffffffffffffffffffffffffffffffffffffff021916908373ffffffffffffffffffffffffffffffffffffffff1602179055508273ffffffffffffffffffffffffffffffffffffffff167f158412daecdc1456d01568828bcdb18464cc7f1ce0215ddbc3f3cfede9d1e63d60405160405180910390a2505050565b60026020528060005260406000206000915090505481565b60046020528060005260406000206000915054906101000a900460ff1681565b610806611137565b73ffffffffffffffffffffffffffffffffffffffff166108246108b9565b73ffffffffffffffffffffffffffffffffffffffff161461087a576040517f08c379a0000000000000000000000000000000000000000000000000000000008152600401610871906114fd565b60405180910390fd5b610884600061113f565b565b60016020528060005260406000206000915054906101000a900473ffffffffffffffffffffffffffffffffffffffff1681565b60008060009054906101000a900473ffffffffffffffffffffffffffffffffffffffff16905090565b6108ea611137565b73ffffffffffffffffffffffffffffffffffffffff166109086108b9565b73ffffffffffffffffffffffffffffffffffffffff161461095e576040517f08c379a0000000000000000000000000000000000000000000000000000000008152600401610955906114fd565b60405180910390fd5b80600073ffffffffffffffffffffffffffffffffffffffff16600160008373ffffffffffffffffffffffffffffffffffffffff1673ffffffffffffffffffffffffffffffffffffffff16815260200190815260200160002060009054906101000a900473ffffffffffffffffffffffffffffffffffffffff1673ffffffffffffffffffffffffffffffffffffffff1603610a2d576040517f08c379a0000000000000000000000000000000000000000000000000000000008152600401610a2490611569565b60405180910390fd5b8160011515600460008373ffffffffffffffffffffffffffffffffffffffff1673ffffffffffffffffffffffffffffffffffffffff16815260200190815260200160002060009054906101000a900460ff16151514610ac1576040517f08c379a0000000000000000000000000000000000000000000000000000000008152600401610ab8906116ad565b60405180910390fd5b600460008473ffffffffffffffffffffffffffffffffffffffff1673ffffffffffffffffffffffffffffffffffffffff16815260200190815260200160002060006101000a81549060ff02191690558273ffffffffffffffffffffffffffffffffffffffff167f81ec08d3372506e176c49e626d8beb7e091712ef92908a130f4ccc6524fe2eec60405160405180910390a2505050565b610b60611137565b73ffffffffffffffffffffffffffffffffffffffff16610b7e6108b9565b73ffffffffffffffffffffffffffffffffffffffff1614610bd4576040517f08c379a0000000000000000000000000000000000000000000000000000000008152600401610bcb906114fd565b60405180910390fd5b80600073ffffffffffffffffffffffffffffffffffffffff16600160008373ffffffffffffffffffffffffffffffffffffffff1673ffffffffffffffffffffffffffffffffffffffff16815260200190815260200160002060009054906101000a900473ffffffffffffffffffffffffffffffffffffffff1673ffffffffffffffffffffffffffffffffffffffff1603610ca3576040517f08c379a0000000000000000000000000000000000000000000000000000000008152600401610c9a90611569565b60405180910390fd5b600160008373ffffffffffffffffffffffffffffffffffffffff1673ffffffffffffffffffffffffffffffffffffffff16815260200190815260200160002060006101000a81549073ffffffffffffffffffffffffffffffffffffffff0219169055600460008373ffffffffffffffffffffffffffffffffffffffff1673ffffffffffffffffffffffffffffffffffffffff16815260200190815260200160002060006101000a81549060ff02191690556000600260008473ffffffffffffffffffffffffffffffffffffffff1673ffffffffffffffffffffffffffffffffffffffff168152602001908152602001600020549050600260008473ffffffffffffffffffffffffffffffffffffffff1673ffffffffffffffffffffffffffffffffffffffff168152602001908152602001600020600090556001600380549050610ded91906116fc565b811015610f235760036001600380549050610e0891906116fc565b81548110610e1957610e18611730565b5b9060005260206000200160009054906101000a900473ffffffffffffffffffffffffffffffffffffffff1660038281548110610e5857610e57611730565b5b9060005260206000200160006101000a81548173ffffffffffffffffffffffffffffffffffffffff021916908373ffffffffffffffffffffffffffffffffffffffff160217905550806002600060038481548110610eb957610eb8611730565b5b9060005260206000200160009054906101000a900473ffffffffffffffffffffffffffffffffffffffff1673ffffffffffffffffffffffffffffffffffffffff1673ffffffffffffffffffffffffffffffffffffffff168152602001908152602001600020819055505b6003805480610f3557610f3461175f565b5b6001900381819060005260206000200160006101000a81549073ffffffffffffffffffffffffffffffffffffffff021916905590558273ffffffffffffffffffffffffffffffffffffffff167f1d735ca20b63676dde668b718be78606b061d6bd7534ff815a90a121a6c084b660405160405180910390a2505050565b6060600380548060200260200160405190810160405280929190818152602001828054801561103657602002820191906000526020600020905b8160009054906101000a900473ffffffffffffffffffffffffffffffffffffffff1673ffffffffffffffffffffffffffffffffffffffff1681526020019060010190808311610fec575b5050505050905090565b611048611137565b73ffffffffffffffffffffffffffffffffffffffff166110666108b9565b73ffffffffffffffffffffffffffffffffffffffff16146110bc576040517f08c379a00000000000000000000000000000000000000000000000000000000081526004016110b3906114fd565b60405180910390fd5b600073ffffffffffffffffffffffffffffffffffffffff168173ffffffffffffffffffffffffffffffffffffffff160361112b576040517f08c379a000000000000000000000000000000000000000000000000000000000815260040161112290611800565b60405180910390fd5b6111348161113f565b50565b600033905090565b60008060009054906101000a900473ffffffffffffffffffffffffffffffffffffffff169050816000806101000a81548173ffffffffffffffffffffffffffffffffffffffff021916908373ffffffffffffffffffffffffffffffffffffffff1602179055508173ffffffffffffffffffffffffffffffffffffffff168173ffffffffffffffffffffffffffffffffffffffff167f8be0079c531659141344cd1fd0a4f28419497f9722a3daafe3b4186f6b6457e060405160405180910390a35050565b600080fd5b600073ffffffffffffffffffffffffffffffffffffffff82169050919050565b600061123382611208565b9050919050565b61124381611228565b811461124e57600080fd5b50565b6000813590506112608161123a565b92915050565b60006020828403121561127c5761127b611203565b5b600061128a84828501611251565b91505092915050565b6000819050919050565b6112a681611293565b81146112b157600080fd5b50565b6000813590506112c38161129d565b92915050565b6000602082840312156112df576112de611203565b5b60006112ed848285016112b4565b91505092915050565b6112ff81611228565b82525050565b600060208201905061131a60008301846112f6565b92915050565b6000806040838503121561133757611336611203565b5b600061134585828601611251565b925050602061135685828601611251565b9150509250929050565b61136981611293565b82525050565b60006020820190506113846000830184611360565b92915050565b60008115159050919050565b61139f8161138a565b82525050565b60006020820190506113ba6000830184611396565b92915050565b600081519050919050565b600082825260208201905092915050565b6000819050602082019050919050565b6113f581611228565b82525050565b600061140783836113ec565b60208301905092915050565b6000602082019050919050565b600061142b826113c0565b61143581856113cb565b9350611440836113dc565b8060005b8381101561147157815161145888826113fb565b975061146383611413565b925050600181019050611444565b5085935050505092915050565b600060208201905081810360008301526114988184611420565b905092915050565b600082825260208201905092915050565b7f4f776e61626c653a2063616c6c6572206973206e6f7420746865206f776e6572600082015250565b60006114e76020836114a0565b91506114f2826114b1565b602082019050919050565b60006020820190508181036000830152611516816114da565b9050919050565b7f6e6f7420616c6c6f77656420746f6b656e000000000000000000000000000000600082015250565b60006115536011836114a0565b915061155e8261151d565b602082019050919050565b6000602082019050818103600083015261158281611546565b9050919050565b7f6c6f636b656420746f6b656e0000000000000000000000000000000000000000600082015250565b60006115bf600c836114a0565b91506115ca82611589565b602082019050919050565b600060208201905081810360008301526115ee816115b2565b9050919050565b7f616c6c6f77656420746f6b656e00000000000000000000000000000000000000600082015250565b600061162b600d836114a0565b9150611636826115f5565b602082019050919050565b6000602082019050818103600083015261165a8161161e565b9050919050565b7f756e6c6f636b656420746f6b656e000000000000000000000000000000000000600082015250565b6000611697600e836114a0565b91506116a282611661565b602082019050919050565b600060208201905081810360008301526116c68161168a565b9050919050565b7f4e487b7100000000000000000000000000000000000000000000000000000000600052601160045260246000fd5b600061170782611293565b915061171283611293565b925082821015611725576117246116cd565b5b828203905092915050565b7f4e487b7100000000000000000000000000000000000000000000000000000000600052603260045260246000fd5b7f4e487b7100000000000000000000000000000000000000000000000000000000600052603160045260246000fd5b7f4f776e61626c653a206e6577206f776e657220697320746865207a65726f206160008201527f6464726573730000000000000000000000000000000000000000000000000000602082015250565b60006117ea6026836114a0565b91506117f58261178e565b604082019050919050565b60006020820190508181036000830152611819816117dd565b905091905056fea2646970667358221220ff1bbe0b7e4b60ce1c5af4d84759fa82584f94575c8a1bb36a7b559ec4823d8864736f6c634300080e0033",
  "immutableReferences": {},
  "source": "// SPDX-License-Identifier: MIT\n\n// Copyright 2019 The klaytn Authors\n// This file is part of the klaytn library.\n//\n// The klaytn library is free software: you can redistribute it and/or modify\n// it under the terms of the GNU Lesser General Public License as published by\n// the Free Software Foundation, either version 3 of the License, or\n// (at your option) any later version.\n//\n// The klaytn library is distributed in the hope that it will be useful,\n// but WITHOUT ANY WARRANTY; without even the implied warranty of\n// MERCHANTABILITY or FITNESS FOR A PARTICULAR PURPOSE. See the\n// GNU Lesser General Public License for more details.\n//\n// You should have received a copy of the GNU Lesser General Public License\n// along with the klaytn library. If not, see <http://www.gnu.org/licenses/>.\n\npragma solidity ^0.8.0;\n\nimport \"@klaytn/contracts/access/Ownable.sol\";\n\ncontract BridgeTokens is Ownable {\n    mapping(address => address) public registeredTokens; // <token, counterpart token>\n    mapping(address => uint) public indexOfTokens; // <token, index>\n    address[] public registeredTokenList;\n    mapping(address => bool) public lockedTokens;\n\n    event TokenRegistered(address indexed token);\n    event TokenDeregistered(address indexed token);\n    event TokenLocked(address indexed token);\n    event TokenUnlocked(address indexed token);\n\n    modifier onlyRegisteredToken(address _token) {\n        require(registeredTokens[_token] != address(0), \"not allowed token\");\n        _;\n    }\n\n    modifier onlyNotRegisteredToken(address _token) {\n        require(registeredTokens[_token] == address(0), \"allowed token\");\n        _;\n    }\n\n    modifier onlyLockedToken(address _token) {\n        require(lockedTokens[_token] == true, \"unlocked token\");\n        _;\n    }\n\n    modifier onlyUnlockedToken(address _token) {\n        require(lockedTokens[_token] == false, \"locked token\");\n        _;\n    }\n\n    function getRegisteredTokenList() external view returns(address[] memory) {\n        return registeredTokenList;\n    }\n\n    // registerToken can update the allowed token with the counterpart token.\n    function registerToken(address _token, address _cToken)\n        external\n        onlyOwner\n        onlyNotRegisteredToken(_token)\n    {\n        registeredTokens[_token] = _cToken;\n        indexOfTokens[_token] = registeredTokenList.length;\n        registeredTokenList.push(_token);\n\n        emit TokenRegistered(_token);\n    }\n\n    // deregisterToken can remove the token in registeredToken list.\n    function deregisterToken(address _token)\n        external\n        onlyOwner\n        onlyRegisteredToken(_token)\n    {\n        delete registeredTokens[_token];\n        delete lockedTokens[_token];\n\n        uint idx = indexOfTokens[_token];\n        delete indexOfTokens[_token];\n\n        if (idx < registeredTokenList.length-1) {\n            registeredTokenList[idx] = registeredTokenList[registeredTokenList.length-1];\n            indexOfTokens[registeredTokenList[idx]] = idx;\n        }\n        //registeredTokenList.length--;\n        registeredTokenList.pop();\n\n        emit TokenDeregistered(_token);\n    }\n\n    // lockToken can lock the token to prevent request token transferring.\n    function lockToken(address _token)\n        external\n        onlyOwner\n        onlyRegisteredToken(_token)\n        onlyUnlockedToken(_token)\n    {\n        lockedTokens[_token] = true;\n\n        emit TokenLocked(_token);\n    }\n\n    // unlockToken can unlock the token to  request token transferring.\n    function unlockToken(address _token)\n        external\n        onlyOwner\n        onlyRegisteredToken(_token)\n        onlyLockedToken(_token)\n    {\n        delete lockedTokens[_token];\n\n        emit TokenUnlocked(_token);\n    }\n}\n",
  "sourcePath": "/Users/henry/git/servicechain-bridge-contracts/contracts/sc/bridge/BridgeTokens.sol",
  "compiler": {
    "name": "solc",
    "version": "0.8.14+commit.80d49f37.Emscripten.clang"
  },
  "schemaVersion": "3.4.7",
  "updatedAt": "2022-06-15T12:34:59.476Z",
  "devdoc": {
    "kind": "dev",
    "methods": {
      "owner()": {
        "details": "Returns the address of the current owner."
      },
      "renounceOwnership()": {
        "details": "Leaves the contract without owner. It will not be possible to call `onlyOwner` functions anymore. Can only be called by the current owner. NOTE: Renouncing ownership will leave the contract without an owner, thereby removing any functionality that is only available to the owner."
      },
      "transferOwnership(address)": {
        "details": "Transfers ownership of the contract to a new account (`newOwner`). Can only be called by the current owner."
      }
    },
    "version": 1
  },
  "userdoc": {
    "kind": "user",
    "methods": {},
    "version": 1
  }
}