{
  "contractName": "Callback",
  "abi": [
    {
      "anonymous": false,
      "inputs": [
        {
          "indexed": false,
          "internalType": "address",
          "name": "owner",
          "type": "address"
        },
        {
          "indexed": false,
          "internalType": "uint256",
          "name": "valueOrID",
          "type": "uint256"
        },
        {
          "indexed": false,
          "internalType": "address",
          "name": "tokenAddress",
          "type": "address"
        },
        {
          "indexed": false,
          "internalType": "uint256",
          "name": "price",
          "type": "uint256"
        }
      ],
      "name": "RegisteredOffer",
      "type": "event"
    },
    {
      "inputs": [
        {
          "internalType": "address",
          "name": "_owner",
          "type": "address"
        },
        {
          "internalType": "uint256",
          "name": "_valueOrID",
          "type": "uint256"
        },
        {
          "internalType": "address",
          "name": "_tokenAddress",
          "type": "address"
        },
        {
          "internalType": "uint256",
          "name": "_price",
          "type": "uint256"
        }
      ],
      "name": "registerOffer",
      "outputs": [],
      "stateMutability": "nonpayable",
      "type": "function"
    }
  ],
  "bytecode": "0x608060405234801561001057600080fd5b50610228806100206000396000f3fe608060405234801561001057600080fd5b506004361061002b5760003560e01c80635ec467e214610030575b600080fd5b61004a60048036038101906100459190610128565b61004c565b005b7f6e0b5117e49b57aaf37c635363b1b78a14ad521875ec99079d95bee2838cfeb88484848460405161008194939291906101ad565b60405180910390a150505050565b600080fd5b600073ffffffffffffffffffffffffffffffffffffffff82169050919050565b60006100bf82610094565b9050919050565b6100cf816100b4565b81146100da57600080fd5b50565b6000813590506100ec816100c6565b92915050565b6000819050919050565b610105816100f2565b811461011057600080fd5b50565b600081359050610122816100fc565b92915050565b600080600080608085870312156101425761014161008f565b5b6000610150878288016100dd565b945050602061016187828801610113565b9350506040610172878288016100dd565b925050606061018387828801610113565b91505092959194509250565b610198816100b4565b82525050565b6101a7816100f2565b82525050565b60006080820190506101c2600083018761018f565b6101cf602083018661019e565b6101dc604083018561018f565b6101e9606083018461019e565b9594505050505056fea2646970667358221220a8e1c48c8625c3976cf4f847a4707bcd870030ad62be7f8537c76db8ba2ed46764736f6c634300080e0033",
  "immutableReferences": {},
  "source": "// SPDX-License-Identifier: MIT\n\n// Copyright 2019 The klaytn Authors\n// This file is part of the klaytn library.\n//\n// The klaytn library is free software: you can redistribute it and/or modify\n// it under the terms of the GNU Lesser General Public License as published by\n// the Free Software Foundation, either version 3 of the License, or\n// (at your option) any later version.\n//\n// The klaytn library is distributed in the hope that it will be useful,\n// but WITHOUT ANY WARRANTY; without even the implied warranty of\n// MERCHANTABILITY or FITNESS FOR A PARTICULAR PURPOSE. See the\n// GNU Lesser General Public License for more details.\n//\n// You should have received a copy of the GNU Lesser General Public License\n// along with the klaytn library. If not, see <http://www.gnu.org/licenses/>.\n\npragma solidity ^0.8.0;\n\ncontract Callback {\n    event RegisteredOffer(\n        address owner,\n        uint256 valueOrID,\n        address tokenAddress,\n        uint256 price\n    );\n\n    function registerOffer(\n        address _owner,\n        uint256 _valueOrID,\n        address _tokenAddress,\n        uint256 _price\n    )\n        public\n    {\n        emit RegisteredOffer(_owner, _valueOrID, _tokenAddress, _price);\n    }\n}\n",
  "sourcePath": "/Users/henry/git/servicechain-bridge-contracts/contracts/sc/bridge/extend/Callback.sol",
  "compiler": {
    "name": "solc",
    "version": "0.8.14+commit.80d49f37.Emscripten.clang"
  },
  "schemaVersion": "3.4.7",
  "updatedAt": "2022-06-15T12:34:59.482Z",
  "devdoc": {
    "kind": "dev",
    "methods": {},
    "version": 1
  },
  "userdoc": {
    "kind": "user",
    "methods": {},
    "version": 1
  }
}