{
  "contractName": "ServiceChainNFT",
  "abi": [
    {
      "inputs": [
        {
          "internalType": "address",
          "name": "_bridge",
          "type": "address"
        }
      ],
      "stateMutability": "nonpayable",
      "type": "constructor"
    },
    {
      "anonymous": false,
      "inputs": [
        {
          "indexed": true,
          "internalType": "address",
          "name": "owner",
          "type": "address"
        },
        {
          "indexed": true,
          "internalType": "address",
          "name": "approved",
          "type": "address"
        },
        {
          "indexed": true,
          "internalType": "uint256",
          "name": "tokenId",
          "type": "uint256"
        }
      ],
      "name": "Approval",
      "type": "event"
    },
    {
      "anonymous": false,
      "inputs": [
        {
          "indexed": true,
          "internalType": "address",
          "name": "owner",
          "type": "address"
        },
        {
          "indexed": true,
          "internalType": "address",
          "name": "operator",
          "type": "address"
        },
        {
          "indexed": false,
          "internalType": "bool",
          "name": "approved",
          "type": "bool"
        }
      ],
      "name": "ApprovalForAll",
      "type": "event"
    },
    {
      "anonymous": false,
      "inputs": [
        {
          "indexed": true,
          "internalType": "address",
          "name": "previousOwner",
          "type": "address"
        },
        {
          "indexed": true,
          "internalType": "address",
          "name": "newOwner",
          "type": "address"
        }
      ],
      "name": "OwnershipTransferred",
      "type": "event"
    },
    {
      "anonymous": false,
      "inputs": [
        {
          "indexed": true,
          "internalType": "bytes32",
          "name": "role",
          "type": "bytes32"
        },
        {
          "indexed": true,
          "internalType": "bytes32",
          "name": "previousAdminRole",
          "type": "bytes32"
        },
        {
          "indexed": true,
          "internalType": "bytes32",
          "name": "newAdminRole",
          "type": "bytes32"
        }
      ],
      "name": "RoleAdminChanged",
      "type": "event"
    },
    {
      "anonymous": false,
      "inputs": [
        {
          "indexed": true,
          "internalType": "bytes32",
          "name": "role",
          "type": "bytes32"
        },
        {
          "indexed": true,
          "internalType": "address",
          "name": "account",
          "type": "address"
        },
        {
          "indexed": true,
          "internalType": "address",
          "name": "sender",
          "type": "address"
        }
      ],
      "name": "RoleGranted",
      "type": "event"
    },
    {
      "anonymous": false,
      "inputs": [
        {
          "indexed": true,
          "internalType": "bytes32",
          "name": "role",
          "type": "bytes32"
        },
        {
          "indexed": true,
          "internalType": "address",
          "name": "account",
          "type": "address"
        },
        {
          "indexed": true,
          "internalType": "address",
          "name": "sender",
          "type": "address"
        }
      ],
      "name": "RoleRevoked",
      "type": "event"
    },
    {
      "anonymous": false,
      "inputs": [
        {
          "indexed": true,
          "internalType": "address",
          "name": "from",
          "type": "address"
        },
        {
          "indexed": true,
          "internalType": "address",
          "name": "to",
          "type": "address"
        },
        {
          "indexed": true,
          "internalType": "uint256",
          "name": "tokenId",
          "type": "uint256"
        }
      ],
      "name": "Transfer",
      "type": "event"
    },
    {
      "inputs": [],
      "name": "DEFAULT_ADMIN_ROLE",
      "outputs": [
        {
          "internalType": "bytes32",
          "name": "",
          "type": "bytes32"
        }
      ],
      "stateMutability": "view",
      "type": "function"
    },
    {
      "inputs": [],
      "name": "MINTER_ROLE",
      "outputs": [
        {
          "internalType": "bytes32",
          "name": "",
          "type": "bytes32"
        }
      ],
      "stateMutability": "view",
      "type": "function"
    },
    {
      "inputs": [],
      "name": "NAME",
      "outputs": [
        {
          "internalType": "string",
          "name": "",
          "type": "string"
        }
      ],
      "stateMutability": "view",
      "type": "function"
    },
    {
      "inputs": [],
      "name": "SYMBOL",
      "outputs": [
        {
          "internalType": "string",
          "name": "",
          "type": "string"
        }
      ],
      "stateMutability": "view",
      "type": "function"
    },
    {
      "inputs": [
        {
          "internalType": "address",
          "name": "to",
          "type": "address"
        },
        {
          "internalType": "uint256",
          "name": "tokenId",
          "type": "uint256"
        }
      ],
      "name": "approve",
      "outputs": [],
      "stateMutability": "nonpayable",
      "type": "function"
    },
    {
      "inputs": [
        {
          "internalType": "address",
          "name": "owner",
          "type": "address"
        }
      ],
      "name": "balanceOf",
      "outputs": [
        {
          "internalType": "uint256",
          "name": "",
          "type": "uint256"
        }
      ],
      "stateMutability": "view",
      "type": "function"
    },
    {
      "inputs": [],
      "name": "bridge",
      "outputs": [
        {
          "internalType": "address",
          "name": "",
          "type": "address"
        }
      ],
      "stateMutability": "view",
      "type": "function"
    },
    {
      "inputs": [
        {
          "internalType": "uint256",
          "name": "tokenId",
          "type": "uint256"
        }
      ],
      "name": "burn",
      "outputs": [],
      "stateMutability": "nonpayable",
      "type": "function"
    },
    {
      "inputs": [
        {
          "internalType": "uint256",
          "name": "tokenId",
          "type": "uint256"
        }
      ],
      "name": "getApproved",
      "outputs": [
        {
          "internalType": "address",
          "name": "",
          "type": "address"
        }
      ],
      "stateMutability": "view",
      "type": "function"
    },
    {
      "inputs": [
        {
          "internalType": "bytes32",
          "name": "role",
          "type": "bytes32"
        }
      ],
      "name": "getRoleAdmin",
      "outputs": [
        {
          "internalType": "bytes32",
          "name": "",
          "type": "bytes32"
        }
      ],
      "stateMutability": "view",
      "type": "function"
    },
    {
      "inputs": [
        {
          "internalType": "bytes32",
          "name": "role",
          "type": "bytes32"
        },
        {
          "internalType": "address",
          "name": "account",
          "type": "address"
        }
      ],
      "name": "grantRole",
      "outputs": [],
      "stateMutability": "nonpayable",
      "type": "function"
    },
    {
      "inputs": [
        {
          "internalType": "bytes32",
          "name": "role",
          "type": "bytes32"
        },
        {
          "internalType": "address",
          "name": "account",
          "type": "address"
        }
      ],
      "name": "hasRole",
      "outputs": [
        {
          "internalType": "bool",
          "name": "",
          "type": "bool"
        }
      ],
      "stateMutability": "view",
      "type": "function"
    },
    {
      "inputs": [
        {
          "internalType": "address",
          "name": "owner",
          "type": "address"
        },
        {
          "internalType": "address",
          "name": "operator",
          "type": "address"
        }
      ],
      "name": "isApprovedForAll",
      "outputs": [
        {
          "internalType": "bool",
          "name": "",
          "type": "bool"
        }
      ],
      "stateMutability": "view",
      "type": "function"
    },
    {
      "inputs": [],
      "name": "name",
      "outputs": [
        {
          "internalType": "string",
          "name": "",
          "type": "string"
        }
      ],
      "stateMutability": "view",
      "type": "function"
    },
    {
      "inputs": [],
      "name": "owner",
      "outputs": [
        {
          "internalType": "address",
          "name": "",
          "type": "address"
        }
      ],
      "stateMutability": "view",
      "type": "function"
    },
    {
      "inputs": [
        {
          "internalType": "uint256",
          "name": "tokenId",
          "type": "uint256"
        }
      ],
      "name": "ownerOf",
      "outputs": [
        {
          "internalType": "address",
          "name": "",
          "type": "address"
        }
      ],
      "stateMutability": "view",
      "type": "function"
    },
    {
      "inputs": [],
      "name": "renounceOwnership",
      "outputs": [],
      "stateMutability": "nonpayable",
      "type": "function"
    },
    {
      "inputs": [
        {
          "internalType": "bytes32",
          "name": "role",
          "type": "bytes32"
        },
        {
          "internalType": "address",
          "name": "account",
          "type": "address"
        }
      ],
      "name": "renounceRole",
      "outputs": [],
      "stateMutability": "nonpayable",
      "type": "function"
    },
    {
      "inputs": [
        {
          "internalType": "uint256",
          "name": "_uid",
          "type": "uint256"
        },
        {
          "internalType": "address",
          "name": "_to",
          "type": "address"
        },
        {
          "internalType": "bytes",
          "name": "_extraData",
          "type": "bytes"
        }
      ],
      "name": "requestValueTransfer",
      "outputs": [],
      "stateMutability": "nonpayable",
      "type": "function"
    },
    {
      "inputs": [
        {
          "internalType": "bytes32",
          "name": "role",
          "type": "bytes32"
        },
        {
          "internalType": "address",
          "name": "account",
          "type": "address"
        }
      ],
      "name": "revokeRole",
      "outputs": [],
      "stateMutability": "nonpayable",
      "type": "function"
    },
    {
      "inputs": [
        {
          "internalType": "address",
          "name": "from",
          "type": "address"
        },
        {
          "internalType": "address",
          "name": "to",
          "type": "address"
        },
        {
          "internalType": "uint256",
          "name": "tokenId",
          "type": "uint256"
        }
      ],
      "name": "safeTransferFrom",
      "outputs": [],
      "stateMutability": "nonpayable",
      "type": "function"
    },
    {
      "inputs": [
        {
          "internalType": "address",
          "name": "from",
          "type": "address"
        },
        {
          "internalType": "address",
          "name": "to",
          "type": "address"
        },
        {
          "internalType": "uint256",
          "name": "tokenId",
          "type": "uint256"
        },
        {
          "internalType": "bytes",
          "name": "data",
          "type": "bytes"
        }
      ],
      "name": "safeTransferFrom",
      "outputs": [],
      "stateMutability": "nonpayable",
      "type": "function"
    },
    {
      "inputs": [
        {
          "internalType": "address",
          "name": "operator",
          "type": "address"
        },
        {
          "internalType": "bool",
          "name": "approved",
          "type": "bool"
        }
      ],
      "name": "setApprovalForAll",
      "outputs": [],
      "stateMutability": "nonpayable",
      "type": "function"
    },
    {
      "inputs": [
        {
          "internalType": "address",
          "name": "_bridge",
          "type": "address"
        }
      ],
      "name": "setBridge",
      "outputs": [],
      "stateMutability": "nonpayable",
      "type": "function"
    },
    {
      "inputs": [],
      "name": "symbol",
      "outputs": [
        {
          "internalType": "string",
          "name": "",
          "type": "string"
        }
      ],
      "stateMutability": "view",
      "type": "function"
    },
    {
      "inputs": [
        {
          "internalType": "uint256",
          "name": "index",
          "type": "uint256"
        }
      ],
      "name": "tokenByIndex",
      "outputs": [
        {
          "internalType": "uint256",
          "name": "",
          "type": "uint256"
        }
      ],
      "stateMutability": "view",
      "type": "function"
    },
    {
      "inputs": [
        {
          "internalType": "address",
          "name": "owner",
          "type": "address"
        },
        {
          "internalType": "uint256",
          "name": "index",
          "type": "uint256"
        }
      ],
      "name": "tokenOfOwnerByIndex",
      "outputs": [
        {
          "internalType": "uint256",
          "name": "",
          "type": "uint256"
        }
      ],
      "stateMutability": "view",
      "type": "function"
    },
    {
      "inputs": [],
      "name": "totalSupply",
      "outputs": [
        {
          "internalType": "uint256",
          "name": "",
          "type": "uint256"
        }
      ],
      "stateMutability": "view",
      "type": "function"
    },
    {
      "inputs": [
        {
          "internalType": "address",
          "name": "from",
          "type": "address"
        },
        {
          "internalType": "address",
          "name": "to",
          "type": "address"
        },
        {
          "internalType": "uint256",
          "name": "tokenId",
          "type": "uint256"
        }
      ],
      "name": "transferFrom",
      "outputs": [],
      "stateMutability": "nonpayable",
      "type": "function"
    },
    {
      "inputs": [
        {
          "internalType": "address",
          "name": "newOwner",
          "type": "address"
        }
      ],
      "name": "transferOwnership",
      "outputs": [],
      "stateMutability": "nonpayable",
      "type": "function"
    },
    {
      "inputs": [
        {
          "internalType": "bytes4",
          "name": "interfaceId",
          "type": "bytes4"
        }
      ],
      "name": "supportsInterface",
      "outputs": [
        {
          "internalType": "bool",
          "name": "",
          "type": "bool"
        }
      ],
      "stateMutability": "view",
      "type": "function"
    },
    {
      "inputs": [
        {
          "internalType": "uint256",
          "name": "tokenId",
          "type": "uint256"
        }
      ],
      "name": "tokenURI",
      "outputs": [
        {
          "internalType": "string",
          "name": "",
          "type": "string"
        }
      ],
      "stateMutability": "view",
      "type": "function"
    },
    {
      "inputs": [
        {
          "internalType": "address",
          "name": "to",
          "type": "address"
        },
        {
          "internalType": "uint256",
          "name": "tokenId",
          "type": "uint256"
        },
        {
          "internalType": "string",
          "name": "_tokenURI",
          "type": "string"
        }
      ],
      "name": "mintWithTokenURI",
      "outputs": [],
      "stateMutability": "nonpayable",
      "type": "function"
    },
    {
      "inputs": [
        {
          "internalType": "address",
          "name": "_user",
          "type": "address"
        },
        {
          "internalType": "uint256",
          "name": "_startID",
          "type": "uint256"
        },
        {
          "internalType": "uint256",
          "name": "_endID",
          "type": "uint256"
        }
      ],
      "name": "registerBulk",
      "outputs": [],
      "stateMutability": "nonpayable",
      "type": "function"
    }
  ],
  "bytecode": "0x60806040523480156200001157600080fd5b50604051620053833803806200538383398181016040528101906200003791906200062b565b806040518060400160405280600f81526020017f53657276696365436861696e4e465400000000000000000000000000000000008152506040518060400160405280600381526020017f53434e00000000000000000000000000000000000000000000000000000000008152508160009080519060200190620000bc92919062000511565b508060019080519060200190620000d592919062000511565b505050620000f8620000ec6200015860201b60201c565b6200016060201b60201c565b62000109816200022660201b60201c565b506200011f6000801b336200036760201b60201c565b620001517f9f2df0fed2c77648de5860a4cc508cd0818c85b8b8a1ab4ceeef8d981c8956a6336200036760201b60201c565b50620007b6565b600033905090565b6000600c60009054906101000a900473ffffffffffffffffffffffffffffffffffffffff16905081600c60006101000a81548173ffffffffffffffffffffffffffffffffffffffff021916908373ffffffffffffffffffffffffffffffffffffffff1602179055508173ffffffffffffffffffffffffffffffffffffffff168173ffffffffffffffffffffffffffffffffffffffff167f8be0079c531659141344cd1fd0a4f28419497f9722a3daafe3b4186f6b6457e060405160405180910390a35050565b620002366200015860201b60201c565b73ffffffffffffffffffffffffffffffffffffffff166200025c6200045960201b60201c565b73ffffffffffffffffffffffffffffffffffffffff1614620002b5576040517f08c379a0000000000000000000000000000000000000000000000000000000008152600401620002ac90620006be565b60405180910390fd5b620002e18173ffffffffffffffffffffffffffffffffffffffff166200048360201b620014ab1760201c565b62000323576040517f08c379a00000000000000000000000000000000000000000000000000000000081526004016200031a9062000730565b60405180910390fd5b80600d60006101000a81548173ffffffffffffffffffffffffffffffffffffffff021916908373ffffffffffffffffffffffffffffffffffffffff16021790555050565b620003798282620004a660201b60201c565b62000455576001600b600084815260200190815260200160002060000160008373ffffffffffffffffffffffffffffffffffffffff1673ffffffffffffffffffffffffffffffffffffffff16815260200190815260200160002060006101000a81548160ff021916908315150217905550620003fa6200015860201b60201c565b73ffffffffffffffffffffffffffffffffffffffff168173ffffffffffffffffffffffffffffffffffffffff16837f2f8788117e7eff1d82e926ec794901d17c78024a50270940304540a733656f0d60405160405180910390a45b5050565b6000600c60009054906101000a900473ffffffffffffffffffffffffffffffffffffffff16905090565b6000808273ffffffffffffffffffffffffffffffffffffffff163b119050919050565b6000600b600084815260200190815260200160002060000160008373ffffffffffffffffffffffffffffffffffffffff1673ffffffffffffffffffffffffffffffffffffffff16815260200190815260200160002060009054906101000a900460ff16905092915050565b8280546200051f9062000781565b90600052602060002090601f0160209004810192826200054357600085556200058f565b82601f106200055e57805160ff19168380011785556200058f565b828001600101855582156200058f579182015b828111156200058e57825182559160200191906001019062000571565b5b5090506200059e9190620005a2565b5090565b5b80821115620005bd576000816000905550600101620005a3565b5090565b600080fd5b600073ffffffffffffffffffffffffffffffffffffffff82169050919050565b6000620005f382620005c6565b9050919050565b6200060581620005e6565b81146200061157600080fd5b50565b6000815190506200062581620005fa565b92915050565b600060208284031215620006445762000643620005c1565b5b6000620006548482850162000614565b91505092915050565b600082825260208201905092915050565b7f4f776e61626c653a2063616c6c6572206973206e6f7420746865206f776e6572600082015250565b6000620006a66020836200065d565b9150620006b3826200066e565b602082019050919050565b60006020820190508181036000830152620006d98162000697565b9050919050565b7f627269646765206973206e6f74206120636f6e74726163740000000000000000600082015250565b6000620007186018836200065d565b91506200072582620006e0565b602082019050919050565b600060208201905081810360008301526200074b8162000709565b9050919050565b7f4e487b7100000000000000000000000000000000000000000000000000000000600052602260045260246000fd5b600060028204905060018216806200079a57607f821691505b602082108103620007b057620007af62000752565b5b50919050565b614bbd80620007c66000396000f3fe608060405234801561001057600080fd5b50600436106102065760003560e01c8063715018a61161011a578063a3f4df7e116100ad578063d547741f1161007c578063d547741f146105e7578063e78cea9214610603578063e985e9c514610621578063f2fde38b14610651578063f76f8d781461066d57610206565b8063a3f4df7e1461055f578063b88d4fde1461057d578063c87b56dd14610599578063d5391393146105c957610206565b806391d14854116100e957806391d14854146104d757806395d89b4114610507578063a217fddf14610525578063a22cb4651461054357610206565b8063715018a6146104775780637a9adac6146104815780638da5cb5b1461049d5780638dd14802146104bb57610206565b80632f745c591161019d57806342966c681161016c57806342966c68146103af5780634f6ccce7146103cb57806350bb4e7f146103fb5780636352211e1461041757806370a082311461044757610206565b80632f745c591461032b57806336568abe1461035b5780633f4c4e3d1461037757806342842e0e1461039357610206565b806318160ddd116101d957806318160ddd146102a557806323b872dd146102c3578063248a9ca3146102df5780632f2ff15d1461030f57610206565b806301ffc9a71461020b57806306fdde031461023b578063081812fc14610259578063095ea7b314610289575b600080fd5b610225600480360381019061022091906130fd565b61068b565b6040516102329190613145565b60405180910390f35b61024361069d565b60405161025091906131f9565b60405180910390f35b610273600480360381019061026e9190613251565b61072f565b60405161028091906132bf565b60405180910390f35b6102a3600480360381019061029e9190613306565b6107b4565b005b6102ad6108cb565b6040516102ba9190613355565b60405180910390f35b6102dd60048036038101906102d89190613370565b6108d8565b005b6102f960048036038101906102f491906133f9565b610938565b6040516103069190613435565b60405180910390f35b61032960048036038101906103249190613450565b610958565b005b61034560048036038101906103409190613306565b610979565b6040516103529190613355565b60405180910390f35b61037560048036038101906103709190613450565b610a1e565b005b610391600480360381019061038c91906134f5565b610aa1565b005b6103ad60048036038101906103a89190613370565b610b69565b005b6103c960048036038101906103c49190613251565b610b89565b005b6103e560048036038101906103e09190613251565b610be5565b6040516103f29190613355565b60405180910390f35b61041560048036038101906104109190613699565b610c56565b005b610431600480360381019061042c9190613251565b610c9a565b60405161043e91906132bf565b60405180910390f35b610461600480360381019061045c9190613708565b610d4b565b60405161046e9190613355565b60405180910390f35b61047f610e02565b005b61049b60048036038101906104969190613735565b610e8a565b005b6104a5610f6d565b6040516104b291906132bf565b60405180910390f35b6104d560048036038101906104d09190613708565b610f97565b005b6104f160048036038101906104ec9190613450565b6110b5565b6040516104fe9190613145565b60405180910390f35b61050f611120565b60405161051c91906131f9565b60405180910390f35b61052d6111b2565b60405161053a9190613435565b60405180910390f35b61055d600480360381019061055891906137b4565b6111b9565b005b6105676111cf565b60405161057491906131f9565b60405180910390f35b61059760048036038101906105929190613895565b611208565b005b6105b360048036038101906105ae9190613251565b61126a565b6040516105c091906131f9565b60405180910390f35b6105d161127c565b6040516105de9190613435565b60405180910390f35b61060160048036038101906105fc9190613450565b6112a0565b005b61060b6112c1565b60405161061891906132bf565b60405180910390f35b61063b60048036038101906106369190613918565b6112e7565b6040516106489190613145565b60405180910390f35b61066b60048036038101906106669190613708565b61137b565b005b610675611472565b60405161068291906131f9565b60405180910390f35b6000610696826114ce565b9050919050565b6060600080546106ac90613987565b80601f01602080910402602001604051908101604052809291908181526020018280546106d890613987565b80156107255780601f106106fa57610100808354040283529160200191610725565b820191906000526020600020905b81548152906001019060200180831161070857829003601f168201915b5050505050905090565b600061073a82611548565b610779576040517f08c379a000000000000000000000000000000000000000000000000000000000815260040161077090613a2a565b60405180910390fd5b6004600083815260200190815260200160002060009054906101000a900473ffffffffffffffffffffffffffffffffffffffff169050919050565b60006107bf82610c9a565b90508073ffffffffffffffffffffffffffffffffffffffff168373ffffffffffffffffffffffffffffffffffffffff160361082f576040517f08c379a000000000000000000000000000000000000000000000000000000000815260040161082690613abc565b60405180910390fd5b8073ffffffffffffffffffffffffffffffffffffffff1661084e6115b4565b73ffffffffffffffffffffffffffffffffffffffff16148061087d575061087c816108776115b4565b6112e7565b5b6108bc576040517f08c379a00000000000000000000000000000000000000000000000000000000081526004016108b390613b4e565b60405180910390fd5b6108c683836115bc565b505050565b6000600880549050905090565b6108e96108e36115b4565b82611675565b610928576040517f08c379a000000000000000000000000000000000000000000000000000000000815260040161091f90613be0565b60405180910390fd5b610933838383611753565b505050565b6000600b6000838152602001908152602001600020600101549050919050565b61096182610938565b61096a816119b9565b61097483836119cd565b505050565b600061098483610d4b565b82106109c5576040517f08c379a00000000000000000000000000000000000000000000000000000000081526004016109bc90613c72565b60405180910390fd5b600660008473ffffffffffffffffffffffffffffffffffffffff1673ffffffffffffffffffffffffffffffffffffffff168152602001908152602001600020600083815260200190815260200160002054905092915050565b610a266115b4565b73ffffffffffffffffffffffffffffffffffffffff168173ffffffffffffffffffffffffffffffffffffffff1614610a93576040517f08c379a0000000000000000000000000000000000000000000000000000000008152600401610a8a90613d04565b60405180910390fd5b610a9d8282611aae565b5050565b610ace33600d60009054906101000a900473ffffffffffffffffffffffffffffffffffffffff16866108d8565b600d60009054906101000a900473ffffffffffffffffffffffffffffffffffffffff1673ffffffffffffffffffffffffffffffffffffffff1663cf0da29033868686866040518663ffffffff1660e01b8152600401610b31959493929190613d62565b600060405180830381600087803b158015610b4b57600080fd5b505af1158015610b5f573d6000803e3d6000fd5b5050505050505050565b610b8483838360405180602001604052806000815250611208565b505050565b610b9a610b946115b4565b82611675565b610bd9576040517f08c379a0000000000000000000000000000000000000000000000000000000008152600401610bd090613e22565b60405180910390fd5b610be281611b90565b50565b6000610bef6108cb565b8210610c30576040517f08c379a0000000000000000000000000000000000000000000000000000000008152600401610c2790613eb4565b60405180910390fd5b60088281548110610c4457610c43613ed4565b5b90600052602060002001549050919050565b7f9f2df0fed2c77648de5860a4cc508cd0818c85b8b8a1ab4ceeef8d981c8956a6610c80816119b9565b610c8a8484611b9c565b610c948383611d75565b50505050565b6000806002600084815260200190815260200160002060009054906101000a900473ffffffffffffffffffffffffffffffffffffffff169050600073ffffffffffffffffffffffffffffffffffffffff168173ffffffffffffffffffffffffffffffffffffffff1603610d42576040517f08c379a0000000000000000000000000000000000000000000000000000000008152600401610d3990613f75565b60405180910390fd5b80915050919050565b60008073ffffffffffffffffffffffffffffffffffffffff168273ffffffffffffffffffffffffffffffffffffffff1603610dbb576040517f08c379a0000000000000000000000000000000000000000000000000000000008152600401610db290614007565b60405180910390fd5b600360008373ffffffffffffffffffffffffffffffffffffffff1673ffffffffffffffffffffffffffffffffffffffff168152602001908152602001600020549050919050565b610e0a6115b4565b73ffffffffffffffffffffffffffffffffffffffff16610e28610f6d565b73ffffffffffffffffffffffffffffffffffffffff1614610e7e576040517f08c379a0000000000000000000000000000000000000000000000000000000008152600401610e7590614073565b60405180910390fd5b610e886000611de9565b565b610e926115b4565b73ffffffffffffffffffffffffffffffffffffffff16610eb0610f6d565b73ffffffffffffffffffffffffffffffffffffffff1614610f06576040517f08c379a0000000000000000000000000000000000000000000000000000000008152600401610efd90614073565b60405180910390fd5b60008290505b81811015610f6757610f5484826040518060400160405280600781526020017f7465737455524900000000000000000000000000000000000000000000000000815250610c56565b8080610f5f906140c2565b915050610f0c565b50505050565b6000600c60009054906101000a900473ffffffffffffffffffffffffffffffffffffffff16905090565b610f9f6115b4565b73ffffffffffffffffffffffffffffffffffffffff16610fbd610f6d565b73ffffffffffffffffffffffffffffffffffffffff1614611013576040517f08c379a000000000000000000000000000000000000000000000000000000000815260040161100a90614073565b60405180910390fd5b6110328173ffffffffffffffffffffffffffffffffffffffff166114ab565b611071576040517f08c379a000000000000000000000000000000000000000000000000000000000815260040161106890614156565b60405180910390fd5b80600d60006101000a81548173ffffffffffffffffffffffffffffffffffffffff021916908373ffffffffffffffffffffffffffffffffffffffff16021790555050565b6000600b600084815260200190815260200160002060000160008373ffffffffffffffffffffffffffffffffffffffff1673ffffffffffffffffffffffffffffffffffffffff16815260200190815260200160002060009054906101000a900460ff16905092915050565b60606001805461112f90613987565b80601f016020809104026020016040519081016040528092919081815260200182805461115b90613987565b80156111a85780601f1061117d576101008083540402835291602001916111a8565b820191906000526020600020905b81548152906001019060200180831161118b57829003601f168201915b5050505050905090565b6000801b81565b6111cb6111c46115b4565b8383611eaf565b5050565b6040518060400160405280600f81526020017f53657276696365436861696e4e4654000000000000000000000000000000000081525081565b6112196112136115b4565b83611675565b611258576040517f08c379a000000000000000000000000000000000000000000000000000000000815260040161124f90613be0565b60405180910390fd5b6112648484848461201b565b50505050565b606061127582612077565b9050919050565b7f9f2df0fed2c77648de5860a4cc508cd0818c85b8b8a1ab4ceeef8d981c8956a681565b6112a982610938565b6112b2816119b9565b6112bc8383611aae565b505050565b600d60009054906101000a900473ffffffffffffffffffffffffffffffffffffffff1681565b6000600560008473ffffffffffffffffffffffffffffffffffffffff1673ffffffffffffffffffffffffffffffffffffffff16815260200190815260200160002060008373ffffffffffffffffffffffffffffffffffffffff1673ffffffffffffffffffffffffffffffffffffffff16815260200190815260200160002060009054906101000a900460ff16905092915050565b6113836115b4565b73ffffffffffffffffffffffffffffffffffffffff166113a1610f6d565b73ffffffffffffffffffffffffffffffffffffffff16146113f7576040517f08c379a00000000000000000000000000000000000000000000000000000000081526004016113ee90614073565b60405180910390fd5b600073ffffffffffffffffffffffffffffffffffffffff168173ffffffffffffffffffffffffffffffffffffffff1603611466576040517f08c379a000000000000000000000000000000000000000000000000000000000815260040161145d906141e8565b60405180910390fd5b61146f81611de9565b50565b6040518060400160405280600381526020017f53434e000000000000000000000000000000000000000000000000000000000081525081565b6000808273ffffffffffffffffffffffffffffffffffffffff163b119050919050565b60007f7965db0b000000000000000000000000000000000000000000000000000000007bffffffffffffffffffffffffffffffffffffffffffffffffffffffff1916827bffffffffffffffffffffffffffffffffffffffffffffffffffffffff191614806115415750611540826121c8565b5b9050919050565b60008073ffffffffffffffffffffffffffffffffffffffff166002600084815260200190815260200160002060009054906101000a900473ffffffffffffffffffffffffffffffffffffffff1673ffffffffffffffffffffffffffffffffffffffff1614159050919050565b600033905090565b816004600083815260200190815260200160002060006101000a81548173ffffffffffffffffffffffffffffffffffffffff021916908373ffffffffffffffffffffffffffffffffffffffff160217905550808273ffffffffffffffffffffffffffffffffffffffff1661162f83610c9a565b73ffffffffffffffffffffffffffffffffffffffff167f8c5be1e5ebec7d5bd14f71427d1e84f3dd0314c0f7b2291e5b200ac8c7c3b92560405160405180910390a45050565b600061168082611548565b6116bf576040517f08c379a00000000000000000000000000000000000000000000000000000000081526004016116b69061427a565b60405180910390fd5b60006116ca83610c9a565b90508073ffffffffffffffffffffffffffffffffffffffff168473ffffffffffffffffffffffffffffffffffffffff16148061170c575061170b81856112e7565b5b8061174a57508373ffffffffffffffffffffffffffffffffffffffff166117328461072f565b73ffffffffffffffffffffffffffffffffffffffff16145b91505092915050565b8273ffffffffffffffffffffffffffffffffffffffff1661177382610c9a565b73ffffffffffffffffffffffffffffffffffffffff16146117c9576040517f08c379a00000000000000000000000000000000000000000000000000000000081526004016117c09061430c565b60405180910390fd5b600073ffffffffffffffffffffffffffffffffffffffff168273ffffffffffffffffffffffffffffffffffffffff1603611838576040517f08c379a000000000000000000000000000000000000000000000000000000000815260040161182f9061439e565b60405180910390fd5b611843838383612242565b61184e6000826115bc565b6001600360008573ffffffffffffffffffffffffffffffffffffffff1673ffffffffffffffffffffffffffffffffffffffff168152602001908152602001600020600082825461189e91906143be565b925050819055506001600360008473ffffffffffffffffffffffffffffffffffffffff1673ffffffffffffffffffffffffffffffffffffffff16815260200190815260200160002060008282546118f591906143f2565b92505081905550816002600083815260200190815260200160002060006101000a81548173ffffffffffffffffffffffffffffffffffffffff021916908373ffffffffffffffffffffffffffffffffffffffff160217905550808273ffffffffffffffffffffffffffffffffffffffff168473ffffffffffffffffffffffffffffffffffffffff167fddf252ad1be2c89b69c2b068fc378daa952ba7f163c4a11628f55a4df523b3ef60405160405180910390a46119b4838383612252565b505050565b6119ca816119c56115b4565b612257565b50565b6119d782826110b5565b611aaa576001600b600084815260200190815260200160002060000160008373ffffffffffffffffffffffffffffffffffffffff1673ffffffffffffffffffffffffffffffffffffffff16815260200190815260200160002060006101000a81548160ff021916908315150217905550611a4f6115b4565b73ffffffffffffffffffffffffffffffffffffffff168173ffffffffffffffffffffffffffffffffffffffff16837f2f8788117e7eff1d82e926ec794901d17c78024a50270940304540a733656f0d60405160405180910390a45b5050565b611ab882826110b5565b15611b8c576000600b600084815260200190815260200160002060000160008373ffffffffffffffffffffffffffffffffffffffff1673ffffffffffffffffffffffffffffffffffffffff16815260200190815260200160002060006101000a81548160ff021916908315150217905550611b316115b4565b73ffffffffffffffffffffffffffffffffffffffff168173ffffffffffffffffffffffffffffffffffffffff16837ff6391f5c32d9c69d2a47ea670b442974b53935d1edc7fd64eb21e047a839171b60405160405180910390a45b5050565b611b99816122f4565b50565b600073ffffffffffffffffffffffffffffffffffffffff168273ffffffffffffffffffffffffffffffffffffffff1603611c0b576040517f08c379a0000000000000000000000000000000000000000000000000000000008152600401611c0290614494565b60405180910390fd5b611c1481611548565b15611c54576040517f08c379a0000000000000000000000000000000000000000000000000000000008152600401611c4b90614500565b60405180910390fd5b611c6060008383612242565b6001600360008473ffffffffffffffffffffffffffffffffffffffff1673ffffffffffffffffffffffffffffffffffffffff1681526020019081526020016000206000828254611cb091906143f2565b92505081905550816002600083815260200190815260200160002060006101000a81548173ffffffffffffffffffffffffffffffffffffffff021916908373ffffffffffffffffffffffffffffffffffffffff160217905550808273ffffffffffffffffffffffffffffffffffffffff16600073ffffffffffffffffffffffffffffffffffffffff167fddf252ad1be2c89b69c2b068fc378daa952ba7f163c4a11628f55a4df523b3ef60405160405180910390a4611d7160008383612252565b5050565b611d7e82611548565b611dbd576040517f08c379a0000000000000000000000000000000000000000000000000000000008152600401611db490614592565b60405180910390fd5b80600a60008481526020019081526020016000209080519060200190611de4929190612fae565b505050565b6000600c60009054906101000a900473ffffffffffffffffffffffffffffffffffffffff16905081600c60006101000a81548173ffffffffffffffffffffffffffffffffffffffff021916908373ffffffffffffffffffffffffffffffffffffffff1602179055508173ffffffffffffffffffffffffffffffffffffffff168173ffffffffffffffffffffffffffffffffffffffff167f8be0079c531659141344cd1fd0a4f28419497f9722a3daafe3b4186f6b6457e060405160405180910390a35050565b8173ffffffffffffffffffffffffffffffffffffffff168373ffffffffffffffffffffffffffffffffffffffff1603611f1d576040517f08c379a0000000000000000000000000000000000000000000000000000000008152600401611f14906145fe565b60405180910390fd5b80600560008573ffffffffffffffffffffffffffffffffffffffff1673ffffffffffffffffffffffffffffffffffffffff16815260200190815260200160002060008473ffffffffffffffffffffffffffffffffffffffff1673ffffffffffffffffffffffffffffffffffffffff16815260200190815260200160002060006101000a81548160ff0219169083151502179055508173ffffffffffffffffffffffffffffffffffffffff168373ffffffffffffffffffffffffffffffffffffffff167f17307eab39ab6107e8899845ad3d59bd9653f200f220920489ca2b5937696c318360405161200e9190613145565b60405180910390a3505050565b612026848484611753565b61203284848484612347565b612071576040517f08c379a000000000000000000000000000000000000000000000000000000000815260040161206890614690565b60405180910390fd5b50505050565b606061208282611548565b6120c1576040517f08c379a00000000000000000000000000000000000000000000000000000000081526004016120b890614722565b60405180910390fd5b6000600a600084815260200190815260200160002080546120e190613987565b80601f016020809104026020016040519081016040528092919081815260200182805461210d90613987565b801561215a5780601f1061212f5761010080835404028352916020019161215a565b820191906000526020600020905b81548152906001019060200180831161213d57829003601f168201915b50505050509050600061216b6124ce565b905060008151036121805781925050506121c3565b6000825111156121b557808260405160200161219d92919061477e565b604051602081830303815290604052925050506121c3565b6121be846124e5565b925050505b919050565b60007f780e9d63000000000000000000000000000000000000000000000000000000007bffffffffffffffffffffffffffffffffffffffffffffffffffffffff1916827bffffffffffffffffffffffffffffffffffffffffffffffffffffffff1916148061223b575061223a8261258c565b5b9050919050565b61224d83838361266e565b505050565b505050565b61226182826110b5565b6122f0576122868173ffffffffffffffffffffffffffffffffffffffff166014612780565b6122948360001c6020612780565b6040516020016122a592919061483a565b6040516020818303038152906040526040517f08c379a00000000000000000000000000000000000000000000000000000000081526004016122e791906131f9565b60405180910390fd5b5050565b6122fd816129bc565b6000600a6000838152602001908152602001600020805461231d90613987565b90501461234457600a600082815260200190815260200160002060006123439190613034565b5b50565b60006123688473ffffffffffffffffffffffffffffffffffffffff166114ab565b156124c1578373ffffffffffffffffffffffffffffffffffffffff1663150b7a026123916115b4565b8786866040518563ffffffff1660e01b81526004016123b394939291906148b8565b6020604051808303816000875af19250505080156123ef57506040513d601f19601f820116820180604052508101906123ec9190614919565b60015b612471573d806000811461241f576040519150601f19603f3d011682016040523d82523d6000602084013e612424565b606091505b506000815103612469576040517f08c379a000000000000000000000000000000000000000000000000000000000815260040161246090614690565b60405180910390fd5b805181602001fd5b63150b7a0260e01b7bffffffffffffffffffffffffffffffffffffffffffffffffffffffff1916817bffffffffffffffffffffffffffffffffffffffffffffffffffffffff1916149150506124c6565b600190505b949350505050565b606060405180602001604052806000815250905090565b60606124f082611548565b61252f576040517f08c379a0000000000000000000000000000000000000000000000000000000008152600401612526906149b8565b60405180910390fd5b60006125396124ce565b905060008151116125595760405180602001604052806000815250612584565b8061256384612ad9565b60405160200161257492919061477e565b6040516020818303038152906040525b915050919050565b60007f80ac58cd000000000000000000000000000000000000000000000000000000007bffffffffffffffffffffffffffffffffffffffffffffffffffffffff1916827bffffffffffffffffffffffffffffffffffffffffffffffffffffffff1916148061265757507f5b5e139f000000000000000000000000000000000000000000000000000000007bffffffffffffffffffffffffffffffffffffffffffffffffffffffff1916827bffffffffffffffffffffffffffffffffffffffffffffffffffffffff1916145b80612667575061266682612c39565b5b9050919050565b612679838383612ca3565b600073ffffffffffffffffffffffffffffffffffffffff168373ffffffffffffffffffffffffffffffffffffffff16036126bb576126b681612ca8565b6126fa565b8173ffffffffffffffffffffffffffffffffffffffff168373ffffffffffffffffffffffffffffffffffffffff16146126f9576126f88382612cf1565b5b5b600073ffffffffffffffffffffffffffffffffffffffff168273ffffffffffffffffffffffffffffffffffffffff160361273c5761273781612e5e565b61277b565b8273ffffffffffffffffffffffffffffffffffffffff168273ffffffffffffffffffffffffffffffffffffffff161461277a576127798282612f2f565b5b5b505050565b60606000600283600261279391906149d8565b61279d91906143f2565b67ffffffffffffffff8111156127b6576127b561356e565b5b6040519080825280601f01601f1916602001820160405280156127e85781602001600182028036833780820191505090505b5090507f3000000000000000000000000000000000000000000000000000000000000000816000815181106128205761281f613ed4565b5b60200101907effffffffffffffffffffffffffffffffffffffffffffffffffffffffffffff1916908160001a9053507f78000000000000000000000000000000000000000000000000000000000000008160018151811061288457612883613ed4565b5b60200101907effffffffffffffffffffffffffffffffffffffffffffffffffffffffffffff1916908160001a905350600060018460026128c491906149d8565b6128ce91906143f2565b90505b600181111561296e577f3031323334353637383961626364656600000000000000000000000000000000600f8616601081106129105761290f613ed4565b5b1a60f81b82828151811061292757612926613ed4565b5b60200101907effffffffffffffffffffffffffffffffffffffffffffffffffffffffffffff1916908160001a905350600485901c94508061296790614a32565b90506128d1565b50600084146129b2576040517f08c379a00000000000000000000000000000000000000000000000000000000081526004016129a990614aa7565b60405180910390fd5b8091505092915050565b60006129c782610c9a565b90506129d581600084612242565b6129e06000836115bc565b6001600360008373ffffffffffffffffffffffffffffffffffffffff1673ffffffffffffffffffffffffffffffffffffffff1681526020019081526020016000206000828254612a3091906143be565b925050819055506002600083815260200190815260200160002060006101000a81549073ffffffffffffffffffffffffffffffffffffffff021916905581600073ffffffffffffffffffffffffffffffffffffffff168273ffffffffffffffffffffffffffffffffffffffff167fddf252ad1be2c89b69c2b068fc378daa952ba7f163c4a11628f55a4df523b3ef60405160405180910390a4612ad581600084612252565b5050565b606060008203612b20576040518060400160405280600181526020017f30000000000000000000000000000000000000000000000000000000000000008152509050612c34565b600082905060005b60008214612b52578080612b3b906140c2565b915050600a82612b4b9190614af6565b9150612b28565b60008167ffffffffffffffff811115612b6e57612b6d61356e565b5b6040519080825280601f01601f191660200182016040528015612ba05781602001600182028036833780820191505090505b5090505b60008514612c2d57600182612bb991906143be565b9150600a85612bc89190614b27565b6030612bd491906143f2565b60f81b818381518110612bea57612be9613ed4565b5b60200101907effffffffffffffffffffffffffffffffffffffffffffffffffffffffffffff1916908160001a905350600a85612c269190614af6565b9450612ba4565b8093505050505b919050565b60007f01ffc9a7000000000000000000000000000000000000000000000000000000007bffffffffffffffffffffffffffffffffffffffffffffffffffffffff1916827bffffffffffffffffffffffffffffffffffffffffffffffffffffffff1916149050919050565b505050565b6008805490506009600083815260200190815260200160002081905550600881908060018154018082558091505060019003906000526020600020016000909190919091505550565b60006001612cfe84610d4b565b612d0891906143be565b9050600060076000848152602001908152602001600020549050818114612ded576000600660008673ffffffffffffffffffffffffffffffffffffffff1673ffffffffffffffffffffffffffffffffffffffff168152602001908152602001600020600084815260200190815260200160002054905080600660008773ffffffffffffffffffffffffffffffffffffffff1673ffffffffffffffffffffffffffffffffffffffff168152602001908152602001600020600084815260200190815260200160002081905550816007600083815260200190815260200160002081905550505b6007600084815260200190815260200160002060009055600660008573ffffffffffffffffffffffffffffffffffffffff1673ffffffffffffffffffffffffffffffffffffffff16815260200190815260200160002060008381526020019081526020016000206000905550505050565b60006001600880549050612e7291906143be565b9050600060096000848152602001908152602001600020549050600060088381548110612ea257612ea1613ed4565b5b906000526020600020015490508060088381548110612ec457612ec3613ed4565b5b906000526020600020018190555081600960008381526020019081526020016000208190555060096000858152602001908152602001600020600090556008805480612f1357612f12614b58565b5b6001900381819060005260206000200160009055905550505050565b6000612f3a83610d4b565b905081600660008573ffffffffffffffffffffffffffffffffffffffff1673ffffffffffffffffffffffffffffffffffffffff168152602001908152602001600020600083815260200190815260200160002081905550806007600084815260200190815260200160002081905550505050565b828054612fba90613987565b90600052602060002090601f016020900481019282612fdc5760008555613023565b82601f10612ff557805160ff1916838001178555613023565b82800160010185558215613023579182015b82811115613022578251825591602001919060010190613007565b5b5090506130309190613074565b5090565b50805461304090613987565b6000825580601f106130525750613071565b601f0160209004906000526020600020908101906130709190613074565b5b50565b5b8082111561308d576000816000905550600101613075565b5090565b6000604051905090565b600080fd5b600080fd5b60007fffffffff0000000000000000000000000000000000000000000000000000000082169050919050565b6130da816130a5565b81146130e557600080fd5b50565b6000813590506130f7816130d1565b92915050565b6000602082840312156131135761311261309b565b5b6000613121848285016130e8565b91505092915050565b60008115159050919050565b61313f8161312a565b82525050565b600060208201905061315a6000830184613136565b92915050565b600081519050919050565b600082825260208201905092915050565b60005b8381101561319a57808201518184015260208101905061317f565b838111156131a9576000848401525b50505050565b6000601f19601f8301169050919050565b60006131cb82613160565b6131d5818561316b565b93506131e581856020860161317c565b6131ee816131af565b840191505092915050565b6000602082019050818103600083015261321381846131c0565b905092915050565b6000819050919050565b61322e8161321b565b811461323957600080fd5b50565b60008135905061324b81613225565b92915050565b6000602082840312156132675761326661309b565b5b60006132758482850161323c565b91505092915050565b600073ffffffffffffffffffffffffffffffffffffffff82169050919050565b60006132a98261327e565b9050919050565b6132b98161329e565b82525050565b60006020820190506132d460008301846132b0565b92915050565b6132e38161329e565b81146132ee57600080fd5b50565b600081359050613300816132da565b92915050565b6000806040838503121561331d5761331c61309b565b5b600061332b858286016132f1565b925050602061333c8582860161323c565b9150509250929050565b61334f8161321b565b82525050565b600060208201905061336a6000830184613346565b92915050565b6000806000606084860312156133895761338861309b565b5b6000613397868287016132f1565b93505060206133a8868287016132f1565b92505060406133b98682870161323c565b9150509250925092565b6000819050919050565b6133d6816133c3565b81146133e157600080fd5b50565b6000813590506133f3816133cd565b92915050565b60006020828403121561340f5761340e61309b565b5b600061341d848285016133e4565b91505092915050565b61342f816133c3565b82525050565b600060208201905061344a6000830184613426565b92915050565b600080604083850312156134675761346661309b565b5b6000613475858286016133e4565b9250506020613486858286016132f1565b9150509250929050565b600080fd5b600080fd5b600080fd5b60008083601f8401126134b5576134b4613490565b5b8235905067ffffffffffffffff8111156134d2576134d1613495565b5b6020830191508360018202830111156134ee576134ed61349a565b5b9250929050565b6000806000806060858703121561350f5761350e61309b565b5b600061351d8782880161323c565b945050602061352e878288016132f1565b935050604085013567ffffffffffffffff81111561354f5761354e6130a0565b5b61355b8782880161349f565b925092505092959194509250565b600080fd5b7f4e487b7100000000000000000000000000000000000000000000000000000000600052604160045260246000fd5b6135a6826131af565b810181811067ffffffffffffffff821117156135c5576135c461356e565b5b80604052505050565b60006135d8613091565b90506135e4828261359d565b919050565b600067ffffffffffffffff8211156136045761360361356e565b5b61360d826131af565b9050602081019050919050565b82818337600083830152505050565b600061363c613637846135e9565b6135ce565b90508281526020810184848401111561365857613657613569565b5b61366384828561361a565b509392505050565b600082601f8301126136805761367f613490565b5b8135613690848260208601613629565b91505092915050565b6000806000606084860312156136b2576136b161309b565b5b60006136c0868287016132f1565b93505060206136d18682870161323c565b925050604084013567ffffffffffffffff8111156136f2576136f16130a0565b5b6136fe8682870161366b565b9150509250925092565b60006020828403121561371e5761371d61309b565b5b600061372c848285016132f1565b91505092915050565b60008060006060848603121561374e5761374d61309b565b5b600061375c868287016132f1565b935050602061376d8682870161323c565b925050604061377e8682870161323c565b9150509250925092565b6137918161312a565b811461379c57600080fd5b50565b6000813590506137ae81613788565b92915050565b600080604083850312156137cb576137ca61309b565b5b60006137d9858286016132f1565b92505060206137ea8582860161379f565b9150509250929050565b600067ffffffffffffffff82111561380f5761380e61356e565b5b613818826131af565b9050602081019050919050565b6000613838613833846137f4565b6135ce565b90508281526020810184848401111561385457613853613569565b5b61385f84828561361a565b509392505050565b600082601f83011261387c5761387b613490565b5b813561388c848260208601613825565b91505092915050565b600080600080608085870312156138af576138ae61309b565b5b60006138bd878288016132f1565b94505060206138ce878288016132f1565b93505060406138df8782880161323c565b925050606085013567ffffffffffffffff811115613900576138ff6130a0565b5b61390c87828801613867565b91505092959194509250565b6000806040838503121561392f5761392e61309b565b5b600061393d858286016132f1565b925050602061394e858286016132f1565b9150509250929050565b7f4e487b7100000000000000000000000000000000000000000000000000000000600052602260045260246000fd5b6000600282049050600182168061399f57607f821691505b6020821081036139b2576139b1613958565b5b50919050565b7f4552433732313a20617070726f76656420717565727920666f72206e6f6e657860008201527f697374656e7420746f6b656e0000000000000000000000000000000000000000602082015250565b6000613a14602c8361316b565b9150613a1f826139b8565b604082019050919050565b60006020820190508181036000830152613a4381613a07565b9050919050565b7f4552433732313a20617070726f76616c20746f2063757272656e74206f776e6560008201527f7200000000000000000000000000000000000000000000000000000000000000602082015250565b6000613aa660218361316b565b9150613ab182613a4a565b604082019050919050565b60006020820190508181036000830152613ad581613a99565b9050919050565b7f4552433732313a20617070726f76652063616c6c6572206973206e6f74206f7760008201527f6e6572206e6f7220617070726f76656420666f7220616c6c0000000000000000602082015250565b6000613b3860388361316b565b9150613b4382613adc565b604082019050919050565b60006020820190508181036000830152613b6781613b2b565b9050919050565b7f4552433732313a207472616e736665722063616c6c6572206973206e6f74206f60008201527f776e6572206e6f7220617070726f766564000000000000000000000000000000602082015250565b6000613bca60318361316b565b9150613bd582613b6e565b604082019050919050565b60006020820190508181036000830152613bf981613bbd565b9050919050565b7f455243373231456e756d657261626c653a206f776e657220696e646578206f7560008201527f74206f6620626f756e6473000000000000000000000000000000000000000000602082015250565b6000613c5c602b8361316b565b9150613c6782613c00565b604082019050919050565b60006020820190508181036000830152613c8b81613c4f565b9050919050565b7f416363657373436f6e74726f6c3a2063616e206f6e6c792072656e6f756e636560008201527f20726f6c657320666f722073656c660000000000000000000000000000000000602082015250565b6000613cee602f8361316b565b9150613cf982613c92565b604082019050919050565b60006020820190508181036000830152613d1d81613ce1565b9050919050565b600082825260208201905092915050565b6000613d418385613d24565b9350613d4e83858461361a565b613d57836131af565b840190509392505050565b6000608082019050613d7760008301886132b0565b613d846020830187613346565b613d9160408301866132b0565b8181036060830152613da4818486613d35565b90509695505050505050565b7f4552433732314275726e61626c653a2063616c6c6572206973206e6f74206f7760008201527f6e6572206e6f7220617070726f76656400000000000000000000000000000000602082015250565b6000613e0c60308361316b565b9150613e1782613db0565b604082019050919050565b60006020820190508181036000830152613e3b81613dff565b9050919050565b7f455243373231456e756d657261626c653a20676c6f62616c20696e646578206f60008201527f7574206f6620626f756e64730000000000000000000000000000000000000000602082015250565b6000613e9e602c8361316b565b9150613ea982613e42565b604082019050919050565b60006020820190508181036000830152613ecd81613e91565b9050919050565b7f4e487b7100000000000000000000000000000000000000000000000000000000600052603260045260246000fd5b7f4552433732313a206f776e657220717565727920666f72206e6f6e657869737460008201527f656e7420746f6b656e0000000000000000000000000000000000000000000000602082015250565b6000613f5f60298361316b565b9150613f6a82613f03565b604082019050919050565b60006020820190508181036000830152613f8e81613f52565b9050919050565b7f4552433732313a2061646472657373207a65726f206973206e6f74206120766160008201527f6c6964206f776e65720000000000000000000000000000000000000000000000602082015250565b6000613ff160298361316b565b9150613ffc82613f95565b604082019050919050565b6000602082019050818103600083015261402081613fe4565b9050919050565b7f4f776e61626c653a2063616c6c6572206973206e6f7420746865206f776e6572600082015250565b600061405d60208361316b565b915061406882614027565b602082019050919050565b6000602082019050818103600083015261408c81614050565b9050919050565b7f4e487b7100000000000000000000000000000000000000000000000000000000600052601160045260246000fd5b60006140cd8261321b565b91507fffffffffffffffffffffffffffffffffffffffffffffffffffffffffffffffff82036140ff576140fe614093565b5b600182019050919050565b7f627269646765206973206e6f74206120636f6e74726163740000000000000000600082015250565b600061414060188361316b565b915061414b8261410a565b602082019050919050565b6000602082019050818103600083015261416f81614133565b9050919050565b7f4f776e61626c653a206e6577206f776e657220697320746865207a65726f206160008201527f6464726573730000000000000000000000000000000000000000000000000000602082015250565b60006141d260268361316b565b91506141dd82614176565b604082019050919050565b60006020820190508181036000830152614201816141c5565b9050919050565b7f4552433732313a206f70657261746f7220717565727920666f72206e6f6e657860008201527f697374656e7420746f6b656e0000000000000000000000000000000000000000602082015250565b6000614264602c8361316b565b915061426f82614208565b604082019050919050565b6000602082019050818103600083015261429381614257565b9050919050565b7f4552433732313a207472616e736665722066726f6d20696e636f72726563742060008201527f6f776e6572000000000000000000000000000000000000000000000000000000602082015250565b60006142f660258361316b565b91506143018261429a565b604082019050919050565b60006020820190508181036000830152614325816142e9565b9050919050565b7f4552433732313a207472616e7366657220746f20746865207a65726f2061646460008201527f7265737300000000000000000000000000000000000000000000000000000000602082015250565b600061438860248361316b565b91506143938261432c565b604082019050919050565b600060208201905081810360008301526143b78161437b565b9050919050565b60006143c98261321b565b91506143d48361321b565b9250828210156143e7576143e6614093565b5b828203905092915050565b60006143fd8261321b565b91506144088361321b565b9250827fffffffffffffffffffffffffffffffffffffffffffffffffffffffffffffffff0382111561443d5761443c614093565b5b828201905092915050565b7f4552433732313a206d696e7420746f20746865207a65726f2061646472657373600082015250565b600061447e60208361316b565b915061448982614448565b602082019050919050565b600060208201905081810360008301526144ad81614471565b9050919050565b7f4552433732313a20746f6b656e20616c7265616479206d696e74656400000000600082015250565b60006144ea601c8361316b565b91506144f5826144b4565b602082019050919050565b60006020820190508181036000830152614519816144dd565b9050919050565b7f45524337323155524953746f726167653a2055524920736574206f66206e6f6e60008201527f6578697374656e7420746f6b656e000000000000000000000000000000000000602082015250565b600061457c602e8361316b565b915061458782614520565b604082019050919050565b600060208201905081810360008301526145ab8161456f565b9050919050565b7f4552433732313a20617070726f766520746f2063616c6c657200000000000000600082015250565b60006145e860198361316b565b91506145f3826145b2565b602082019050919050565b60006020820190508181036000830152614617816145db565b9050919050565b7f4552433732313a207472616e7366657220746f206e6f6e20455243373231526560008201527f63656976657220696d706c656d656e7465720000000000000000000000000000602082015250565b600061467a60328361316b565b91506146858261461e565b604082019050919050565b600060208201905081810360008301526146a98161466d565b9050919050565b7f45524337323155524953746f726167653a2055524920717565727920666f722060008201527f6e6f6e6578697374656e7420746f6b656e000000000000000000000000000000602082015250565b600061470c60318361316b565b9150614717826146b0565b604082019050919050565b6000602082019050818103600083015261473b816146ff565b9050919050565b600081905092915050565b600061475882613160565b6147628185614742565b935061477281856020860161317c565b80840191505092915050565b600061478a828561474d565b9150614796828461474d565b91508190509392505050565b7f416363657373436f6e74726f6c3a206163636f756e7420000000000000000000600082015250565b60006147d8601783614742565b91506147e3826147a2565b601782019050919050565b7f206973206d697373696e6720726f6c6520000000000000000000000000000000600082015250565b6000614824601183614742565b915061482f826147ee565b601182019050919050565b6000614845826147cb565b9150614851828561474d565b915061485c82614817565b9150614868828461474d565b91508190509392505050565b600081519050919050565b600061488a82614874565b6148948185613d24565b93506148a481856020860161317c565b6148ad816131af565b840191505092915050565b60006080820190506148cd60008301876132b0565b6148da60208301866132b0565b6148e76040830185613346565b81810360608301526148f9818461487f565b905095945050505050565b600081519050614913816130d1565b92915050565b60006020828403121561492f5761492e61309b565b5b600061493d84828501614904565b91505092915050565b7f4552433732314d657461646174613a2055524920717565727920666f72206e6f60008201527f6e6578697374656e7420746f6b656e0000000000000000000000000000000000602082015250565b60006149a2602f8361316b565b91506149ad82614946565b604082019050919050565b600060208201905081810360008301526149d181614995565b9050919050565b60006149e38261321b565b91506149ee8361321b565b9250817fffffffffffffffffffffffffffffffffffffffffffffffffffffffffffffffff0483118215151615614a2757614a26614093565b5b828202905092915050565b6000614a3d8261321b565b915060008203614a5057614a4f614093565b5b600182039050919050565b7f537472696e67733a20686578206c656e67746820696e73756666696369656e74600082015250565b6000614a9160208361316b565b9150614a9c82614a5b565b602082019050919050565b60006020820190508181036000830152614ac081614a84565b9050919050565b7f4e487b7100000000000000000000000000000000000000000000000000000000600052601260045260246000fd5b6000614b018261321b565b9150614b0c8361321b565b925082614b1c57614b1b614ac7565b5b828204905092915050565b6000614b328261321b565b9150614b3d8361321b565b925082614b4d57614b4c614ac7565b5b828206905092915050565b7f4e487b7100000000000000000000000000000000000000000000000000000000600052603160045260246000fdfea2646970667358221220dde6267ef3655359879b0e476d433b96c7d64761f9efb16a64d771419a42758164736f6c634300080e0033",
  "immutableReferences": {},
  "source": "// SPDX-License-Identifier: MIT\n\n// Copyright 2019 The klaytn Authors\n// This file is part of the klaytn library.\n//\n// The klaytn library is free software: you can redistribute it and/or modify\n// it under the terms of the GNU Lesser General Public License as published by\n// the Free Software Foundation, either version 3 of the License, or\n// (at your option) any later version.\n//\n// The klaytn library is distributed in the hope that it will be useful,\n// but WITHOUT ANY WARRANTY; without even the implied warranty of\n// MERCHANTABILITY or FITNESS FOR A PARTICULAR PURPOSE. See the\n// GNU Lesser General Public License for more details.\n//\n// You should have received a copy of the GNU Lesser General Public License\n// along with the klaytn library. If not, see <http://www.gnu.org/licenses/>.\n\npragma solidity ^0.8.0;\n\nimport \"@klaytn/contracts/token/ERC721/ERC721.sol\";\nimport \"@klaytn/contracts/token/ERC721/extensions/ERC721URIStorage.sol\";\nimport \"@klaytn/contracts/token/ERC721/extensions/ERC721Burnable.sol\";\nimport \"@klaytn/contracts/token/ERC721/extensions/ERC721Enumerable.sol\";\nimport \"@klaytn/contracts/access/AccessControl.sol\";\nimport \"@klaytn/contracts/access/Ownable.sol\";\n\nimport \"./ERC721ServiceChain.sol\";\n\ncontract ServiceChainNFT is ERC721, ERC721Enumerable,  ERC721URIStorage, ERC721Burnable, AccessControl, IERC721Mint, ERC721ServiceChain {\n    bytes32 public constant MINTER_ROLE = keccak256(\"MINTER_ROLE\");\n\n    string public constant NAME = \"ServiceChainNFT\";\n    string public constant SYMBOL = \"SCN\";\n\n    constructor(address _bridge) ERC721(NAME, SYMBOL) ERC721ServiceChain(_bridge) {\n        _grantRole(DEFAULT_ADMIN_ROLE, msg.sender);\n        _grantRole(MINTER_ROLE, msg.sender);\n    }\n\n    function supportsInterface(bytes4 interfaceId)\n        public\n        view\n        override(ERC721, ERC721Enumerable, AccessControl)\n        returns (bool)\n    {\n        return super.supportsInterface(interfaceId);\n    }\n\n    function _burn(uint256 tokenId) internal override(ERC721, ERC721URIStorage) {\n        super._burn(tokenId);\n    }\n\n\tfunction _beforeTokenTransfer(address from, address to, uint256 tokenId)\n        internal\n        override(ERC721, ERC721Enumerable)\n    {\n        super._beforeTokenTransfer(from, to, tokenId);\n    }\n\n\tfunction tokenURI(uint256 tokenId)\n        public\n        view\n        override(ERC721, ERC721URIStorage)\n        returns (string memory)\n    {\n        return super.tokenURI(tokenId);\n    }\n\n    function mintWithTokenURI(address to, uint256 tokenId, string memory _tokenURI)\n        public\n        onlyRole(MINTER_ROLE)\n    {\n        _mint(to, tokenId);\n        _setTokenURI(tokenId, _tokenURI);\n    }\n\n    // registerBulk registers (startID, endID-1) tokens to the user once.\n    // This is only for load test.\n    function registerBulk(address _user, uint256 _startID, uint256 _endID) external onlyOwner {\n        for (uint256 uid = _startID; uid < _endID; uid++) {\n            mintWithTokenURI(_user, uid, \"testURI\");\n        }\n    }\n}\n",
  "sourcePath": "/Users/henry/git/servicechain-bridge-contracts/contracts/sc/tokens/erc721/ServiceChainNFT.sol",
  "compiler": {
    "name": "solc",
    "version": "0.8.14+commit.80d49f37.Emscripten.clang"
  },
  "schemaVersion": "3.4.7",
  "updatedAt": "2022-06-15T12:34:59.504Z",
  "devdoc": {
    "kind": "dev",
    "methods": {
      "approve(address,uint256)": {
        "details": "See {IERC721-approve}."
      },
      "balanceOf(address)": {
        "details": "See {IERC721-balanceOf}."
      },
      "burn(uint256)": {
        "details": "Burns `tokenId`. See {ERC721-_burn}. Requirements: - The caller must own `tokenId` or be an approved operator."
      },
      "getApproved(uint256)": {
        "details": "See {IERC721-getApproved}."
      },
      "getRoleAdmin(bytes32)": {
        "details": "Returns the admin role that controls `role`. See {grantRole} and {revokeRole}. To change a role's admin, use {_setRoleAdmin}."
      },
      "grantRole(bytes32,address)": {
        "details": "Grants `role` to `account`. If `account` had not been already granted `role`, emits a {RoleGranted} event. Requirements: - the caller must have ``role``'s admin role. May emit a {RoleGranted} event."
      },
      "hasRole(bytes32,address)": {
        "details": "Returns `true` if `account` has been granted `role`."
      },
      "isApprovedForAll(address,address)": {
        "details": "See {IERC721-isApprovedForAll}."
      },
      "name()": {
        "details": "See {IERC721Metadata-name}."
      },
      "owner()": {
        "details": "Returns the address of the current owner."
      },
      "ownerOf(uint256)": {
        "details": "See {IERC721-ownerOf}."
      },
      "renounceOwnership()": {
        "details": "Leaves the contract without owner. It will not be possible to call `onlyOwner` functions anymore. Can only be called by the current owner. NOTE: Renouncing ownership will leave the contract without an owner, thereby removing any functionality that is only available to the owner."
      },
      "renounceRole(bytes32,address)": {
        "details": "Revokes `role` from the calling account. Roles are often managed via {grantRole} and {revokeRole}: this function's purpose is to provide a mechanism for accounts to lose their privileges if they are compromised (such as when a trusted device is misplaced). If the calling account had been revoked `role`, emits a {RoleRevoked} event. Requirements: - the caller must be `account`. May emit a {RoleRevoked} event."
      },
      "revokeRole(bytes32,address)": {
        "details": "Revokes `role` from `account`. If `account` had been granted `role`, emits a {RoleRevoked} event. Requirements: - the caller must have ``role``'s admin role. May emit a {RoleRevoked} event."
      },
      "safeTransferFrom(address,address,uint256)": {
        "details": "See {IERC721-safeTransferFrom}."
      },
      "safeTransferFrom(address,address,uint256,bytes)": {
        "details": "See {IERC721-safeTransferFrom}."
      },
      "setApprovalForAll(address,bool)": {
        "details": "See {IERC721-setApprovalForAll}."
      },
      "symbol()": {
        "details": "See {IERC721Metadata-symbol}."
      },
      "tokenByIndex(uint256)": {
        "details": "See {IERC721Enumerable-tokenByIndex}."
      },
      "tokenOfOwnerByIndex(address,uint256)": {
        "details": "See {IERC721Enumerable-tokenOfOwnerByIndex}."
      },
      "totalSupply()": {
        "details": "See {IERC721Enumerable-totalSupply}."
      },
      "transferFrom(address,address,uint256)": {
        "details": "See {IERC721-transferFrom}."
      },
      "transferOwnership(address)": {
        "details": "Transfers ownership of the contract to a new account (`newOwner`). Can only be called by the current owner."
      }
    },
    "version": 1
  },
  "userdoc": {
    "kind": "user",
    "methods": {},
    "version": 1
  }
}