{
  "contractName": "ServiceChainToken",
  "abi": [
    {
      "inputs": [
        {
          "internalType": "address",
          "name": "_bridge",
          "type": "address"
        }
      ],
      "stateMutability": "nonpayable",
      "type": "constructor"
    },
    {
      "anonymous": false,
      "inputs": [
        {
          "indexed": true,
          "internalType": "address",
          "name": "owner",
          "type": "address"
        },
        {
          "indexed": true,
          "internalType": "address",
          "name": "spender",
          "type": "address"
        },
        {
          "indexed": false,
          "internalType": "uint256",
          "name": "value",
          "type": "uint256"
        }
      ],
      "name": "Approval",
      "type": "event"
    },
    {
      "anonymous": false,
      "inputs": [
        {
          "indexed": true,
          "internalType": "address",
          "name": "previousOwner",
          "type": "address"
        },
        {
          "indexed": true,
          "internalType": "address",
          "name": "newOwner",
          "type": "address"
        }
      ],
      "name": "OwnershipTransferred",
      "type": "event"
    },
    {
      "anonymous": false,
      "inputs": [
        {
          "indexed": true,
          "internalType": "bytes32",
          "name": "role",
          "type": "bytes32"
        },
        {
          "indexed": true,
          "internalType": "bytes32",
          "name": "previousAdminRole",
          "type": "bytes32"
        },
        {
          "indexed": true,
          "internalType": "bytes32",
          "name": "newAdminRole",
          "type": "bytes32"
        }
      ],
      "name": "RoleAdminChanged",
      "type": "event"
    },
    {
      "anonymous": false,
      "inputs": [
        {
          "indexed": true,
          "internalType": "bytes32",
          "name": "role",
          "type": "bytes32"
        },
        {
          "indexed": true,
          "internalType": "address",
          "name": "account",
          "type": "address"
        },
        {
          "indexed": true,
          "internalType": "address",
          "name": "sender",
          "type": "address"
        }
      ],
      "name": "RoleGranted",
      "type": "event"
    },
    {
      "anonymous": false,
      "inputs": [
        {
          "indexed": true,
          "internalType": "bytes32",
          "name": "role",
          "type": "bytes32"
        },
        {
          "indexed": true,
          "internalType": "address",
          "name": "account",
          "type": "address"
        },
        {
          "indexed": true,
          "internalType": "address",
          "name": "sender",
          "type": "address"
        }
      ],
      "name": "RoleRevoked",
      "type": "event"
    },
    {
      "anonymous": false,
      "inputs": [
        {
          "indexed": true,
          "internalType": "address",
          "name": "from",
          "type": "address"
        },
        {
          "indexed": true,
          "internalType": "address",
          "name": "to",
          "type": "address"
        },
        {
          "indexed": false,
          "internalType": "uint256",
          "name": "value",
          "type": "uint256"
        }
      ],
      "name": "Transfer",
      "type": "event"
    },
    {
      "inputs": [],
      "name": "DECIMALS",
      "outputs": [
        {
          "internalType": "uint8",
          "name": "",
          "type": "uint8"
        }
      ],
      "stateMutability": "view",
      "type": "function"
    },
    {
      "inputs": [],
      "name": "DEFAULT_ADMIN_ROLE",
      "outputs": [
        {
          "internalType": "bytes32",
          "name": "",
          "type": "bytes32"
        }
      ],
      "stateMutability": "view",
      "type": "function"
    },
    {
      "inputs": [],
      "name": "INITIAL_SUPPLY",
      "outputs": [
        {
          "internalType": "uint256",
          "name": "",
          "type": "uint256"
        }
      ],
      "stateMutability": "view",
      "type": "function"
    },
    {
      "inputs": [],
      "name": "MINTER_ROLE",
      "outputs": [
        {
          "internalType": "bytes32",
          "name": "",
          "type": "bytes32"
        }
      ],
      "stateMutability": "view",
      "type": "function"
    },
    {
      "inputs": [],
      "name": "NAME",
      "outputs": [
        {
          "internalType": "string",
          "name": "",
          "type": "string"
        }
      ],
      "stateMutability": "view",
      "type": "function"
    },
    {
      "inputs": [],
      "name": "SYMBOL",
      "outputs": [
        {
          "internalType": "string",
          "name": "",
          "type": "string"
        }
      ],
      "stateMutability": "view",
      "type": "function"
    },
    {
      "inputs": [
        {
          "internalType": "address",
          "name": "owner",
          "type": "address"
        },
        {
          "internalType": "address",
          "name": "spender",
          "type": "address"
        }
      ],
      "name": "allowance",
      "outputs": [
        {
          "internalType": "uint256",
          "name": "",
          "type": "uint256"
        }
      ],
      "stateMutability": "view",
      "type": "function"
    },
    {
      "inputs": [
        {
          "internalType": "address",
          "name": "spender",
          "type": "address"
        },
        {
          "internalType": "uint256",
          "name": "amount",
          "type": "uint256"
        }
      ],
      "name": "approve",
      "outputs": [
        {
          "internalType": "bool",
          "name": "",
          "type": "bool"
        }
      ],
      "stateMutability": "nonpayable",
      "type": "function"
    },
    {
      "inputs": [
        {
          "internalType": "address",
          "name": "account",
          "type": "address"
        }
      ],
      "name": "balanceOf",
      "outputs": [
        {
          "internalType": "uint256",
          "name": "",
          "type": "uint256"
        }
      ],
      "stateMutability": "view",
      "type": "function"
    },
    {
      "inputs": [],
      "name": "bridge",
      "outputs": [
        {
          "internalType": "address",
          "name": "",
          "type": "address"
        }
      ],
      "stateMutability": "view",
      "type": "function"
    },
    {
      "inputs": [
        {
          "internalType": "uint256",
          "name": "amount",
          "type": "uint256"
        }
      ],
      "name": "burn",
      "outputs": [],
      "stateMutability": "nonpayable",
      "type": "function"
    },
    {
      "inputs": [
        {
          "internalType": "address",
          "name": "account",
          "type": "address"
        },
        {
          "internalType": "uint256",
          "name": "amount",
          "type": "uint256"
        }
      ],
      "name": "burnFrom",
      "outputs": [],
      "stateMutability": "nonpayable",
      "type": "function"
    },
    {
      "inputs": [],
      "name": "decimals",
      "outputs": [
        {
          "internalType": "uint8",
          "name": "",
          "type": "uint8"
        }
      ],
      "stateMutability": "view",
      "type": "function"
    },
    {
      "inputs": [
        {
          "internalType": "address",
          "name": "spender",
          "type": "address"
        },
        {
          "internalType": "uint256",
          "name": "subtractedValue",
          "type": "uint256"
        }
      ],
      "name": "decreaseAllowance",
      "outputs": [
        {
          "internalType": "bool",
          "name": "",
          "type": "bool"
        }
      ],
      "stateMutability": "nonpayable",
      "type": "function"
    },
    {
      "inputs": [
        {
          "internalType": "bytes32",
          "name": "role",
          "type": "bytes32"
        }
      ],
      "name": "getRoleAdmin",
      "outputs": [
        {
          "internalType": "bytes32",
          "name": "",
          "type": "bytes32"
        }
      ],
      "stateMutability": "view",
      "type": "function"
    },
    {
      "inputs": [
        {
          "internalType": "bytes32",
          "name": "role",
          "type": "bytes32"
        },
        {
          "internalType": "address",
          "name": "account",
          "type": "address"
        }
      ],
      "name": "grantRole",
      "outputs": [],
      "stateMutability": "nonpayable",
      "type": "function"
    },
    {
      "inputs": [
        {
          "internalType": "bytes32",
          "name": "role",
          "type": "bytes32"
        },
        {
          "internalType": "address",
          "name": "account",
          "type": "address"
        }
      ],
      "name": "hasRole",
      "outputs": [
        {
          "internalType": "bool",
          "name": "",
          "type": "bool"
        }
      ],
      "stateMutability": "view",
      "type": "function"
    },
    {
      "inputs": [
        {
          "internalType": "address",
          "name": "spender",
          "type": "address"
        },
        {
          "internalType": "uint256",
          "name": "addedValue",
          "type": "uint256"
        }
      ],
      "name": "increaseAllowance",
      "outputs": [
        {
          "internalType": "bool",
          "name": "",
          "type": "bool"
        }
      ],
      "stateMutability": "nonpayable",
      "type": "function"
    },
    {
      "inputs": [],
      "name": "name",
      "outputs": [
        {
          "internalType": "string",
          "name": "",
          "type": "string"
        }
      ],
      "stateMutability": "view",
      "type": "function"
    },
    {
      "inputs": [],
      "name": "owner",
      "outputs": [
        {
          "internalType": "address",
          "name": "",
          "type": "address"
        }
      ],
      "stateMutability": "view",
      "type": "function"
    },
    {
      "inputs": [],
      "name": "renounceOwnership",
      "outputs": [],
      "stateMutability": "nonpayable",
      "type": "function"
    },
    {
      "inputs": [
        {
          "internalType": "bytes32",
          "name": "role",
          "type": "bytes32"
        },
        {
          "internalType": "address",
          "name": "account",
          "type": "address"
        }
      ],
      "name": "renounceRole",
      "outputs": [],
      "stateMutability": "nonpayable",
      "type": "function"
    },
    {
      "inputs": [
        {
          "internalType": "uint256",
          "name": "_amount",
          "type": "uint256"
        },
        {
          "internalType": "address",
          "name": "_to",
          "type": "address"
        },
        {
          "internalType": "uint256",
          "name": "_feeLimit",
          "type": "uint256"
        },
        {
          "internalType": "bytes",
          "name": "_extraData",
          "type": "bytes"
        }
      ],
      "name": "requestValueTransfer",
      "outputs": [],
      "stateMutability": "nonpayable",
      "type": "function"
    },
    {
      "inputs": [
        {
          "internalType": "bytes32",
          "name": "role",
          "type": "bytes32"
        },
        {
          "internalType": "address",
          "name": "account",
          "type": "address"
        }
      ],
      "name": "revokeRole",
      "outputs": [],
      "stateMutability": "nonpayable",
      "type": "function"
    },
    {
      "inputs": [
        {
          "internalType": "address",
          "name": "_bridge",
          "type": "address"
        }
      ],
      "name": "setBridge",
      "outputs": [],
      "stateMutability": "nonpayable",
      "type": "function"
    },
    {
      "inputs": [
        {
          "internalType": "bytes4",
          "name": "interfaceId",
          "type": "bytes4"
        }
      ],
      "name": "supportsInterface",
      "outputs": [
        {
          "internalType": "bool",
          "name": "",
          "type": "bool"
        }
      ],
      "stateMutability": "view",
      "type": "function"
    },
    {
      "inputs": [],
      "name": "symbol",
      "outputs": [
        {
          "internalType": "string",
          "name": "",
          "type": "string"
        }
      ],
      "stateMutability": "view",
      "type": "function"
    },
    {
      "inputs": [],
      "name": "totalSupply",
      "outputs": [
        {
          "internalType": "uint256",
          "name": "",
          "type": "uint256"
        }
      ],
      "stateMutability": "view",
      "type": "function"
    },
    {
      "inputs": [
        {
          "internalType": "address",
          "name": "to",
          "type": "address"
        },
        {
          "internalType": "uint256",
          "name": "amount",
          "type": "uint256"
        }
      ],
      "name": "transfer",
      "outputs": [
        {
          "internalType": "bool",
          "name": "",
          "type": "bool"
        }
      ],
      "stateMutability": "nonpayable",
      "type": "function"
    },
    {
      "inputs": [
        {
          "internalType": "address",
          "name": "from",
          "type": "address"
        },
        {
          "internalType": "address",
          "name": "to",
          "type": "address"
        },
        {
          "internalType": "uint256",
          "name": "amount",
          "type": "uint256"
        }
      ],
      "name": "transferFrom",
      "outputs": [
        {
          "internalType": "bool",
          "name": "",
          "type": "bool"
        }
      ],
      "stateMutability": "nonpayable",
      "type": "function"
    },
    {
      "inputs": [
        {
          "internalType": "address",
          "name": "newOwner",
          "type": "address"
        }
      ],
      "name": "transferOwnership",
      "outputs": [],
      "stateMutability": "nonpayable",
      "type": "function"
    },
    {
      "inputs": [
        {
          "internalType": "address",
          "name": "to",
          "type": "address"
        },
        {
          "internalType": "uint256",
          "name": "amount",
          "type": "uint256"
        }
      ],
      "name": "mint",
      "outputs": [],
      "stateMutability": "nonpayable",
      "type": "function"
    }
  ],
  "bytecode": "0x60806040523480156200001157600080fd5b5060405162003e8d38038062003e8d8339818101604052810190620000379190620007e2565b806040518060400160405280601181526020017f53657276696365436861696e546f6b656e0000000000000000000000000000008152506040518060400160405280600381526020017f53435400000000000000000000000000000000000000000000000000000000008152508160039080519060200190620000bc929190620006c8565b508060049080519060200190620000d5929190620006c8565b505050620000f8620000ec6200018d60201b60201c565b6200019560201b60201c565b62000109816200025b60201b60201c565b506200011f6000801b336200039c60201b60201c565b620001517f9f2df0fed2c77648de5860a4cc508cd0818c85b8b8a1ab4ceeef8d981c8956a6336200039c60201b60201c565b6200018633601260ff16600a620001699190620009a1565b633b9aca006200017a9190620009f2565b6200048e60201b60201c565b5062000ca9565b600033905090565b6000600660009054906101000a900473ffffffffffffffffffffffffffffffffffffffff16905081600660006101000a81548173ffffffffffffffffffffffffffffffffffffffff021916908373ffffffffffffffffffffffffffffffffffffffff1602179055508173ffffffffffffffffffffffffffffffffffffffff168173ffffffffffffffffffffffffffffffffffffffff167f8be0079c531659141344cd1fd0a4f28419497f9722a3daafe3b4186f6b6457e060405160405180910390a35050565b6200026b6200018d60201b60201c565b73ffffffffffffffffffffffffffffffffffffffff16620002916200060660201b60201c565b73ffffffffffffffffffffffffffffffffffffffff1614620002ea576040517f08c379a0000000000000000000000000000000000000000000000000000000008152600401620002e19062000ab4565b60405180910390fd5b620003168173ffffffffffffffffffffffffffffffffffffffff166200063060201b620010691760201c565b62000358576040517f08c379a00000000000000000000000000000000000000000000000000000000081526004016200034f9062000b26565b60405180910390fd5b80600760006101000a81548173ffffffffffffffffffffffffffffffffffffffff021916908373ffffffffffffffffffffffffffffffffffffffff16021790555050565b620003ae82826200065360201b60201c565b6200048a5760016005600084815260200190815260200160002060000160008373ffffffffffffffffffffffffffffffffffffffff1673ffffffffffffffffffffffffffffffffffffffff16815260200190815260200160002060006101000a81548160ff0219169083151502179055506200042f6200018d60201b60201c565b73ffffffffffffffffffffffffffffffffffffffff168173ffffffffffffffffffffffffffffffffffffffff16837f2f8788117e7eff1d82e926ec794901d17c78024a50270940304540a733656f0d60405160405180910390a45b5050565b600073ffffffffffffffffffffffffffffffffffffffff168273ffffffffffffffffffffffffffffffffffffffff160362000500576040517f08c379a0000000000000000000000000000000000000000000000000000000008152600401620004f79062000b98565b60405180910390fd5b6200051460008383620006be60201b60201c565b806002600082825462000528919062000bba565b92505081905550806000808473ffffffffffffffffffffffffffffffffffffffff1673ffffffffffffffffffffffffffffffffffffffff16815260200190815260200160002060008282546200057f919062000bba565b925050819055508173ffffffffffffffffffffffffffffffffffffffff16600073ffffffffffffffffffffffffffffffffffffffff167fddf252ad1be2c89b69c2b068fc378daa952ba7f163c4a11628f55a4df523b3ef83604051620005e6919062000c28565b60405180910390a36200060260008383620006c360201b60201c565b5050565b6000600660009054906101000a900473ffffffffffffffffffffffffffffffffffffffff16905090565b6000808273ffffffffffffffffffffffffffffffffffffffff163b119050919050565b60006005600084815260200190815260200160002060000160008373ffffffffffffffffffffffffffffffffffffffff1673ffffffffffffffffffffffffffffffffffffffff16815260200190815260200160002060009054906101000a900460ff16905092915050565b505050565b505050565b828054620006d69062000c74565b90600052602060002090601f016020900481019282620006fa576000855562000746565b82601f106200071557805160ff191683800117855562000746565b8280016001018555821562000746579182015b828111156200074557825182559160200191906001019062000728565b5b50905062000755919062000759565b5090565b5b80821115620007745760008160009055506001016200075a565b5090565b600080fd5b600073ffffffffffffffffffffffffffffffffffffffff82169050919050565b6000620007aa826200077d565b9050919050565b620007bc816200079d565b8114620007c857600080fd5b50565b600081519050620007dc81620007b1565b92915050565b600060208284031215620007fb57620007fa62000778565b5b60006200080b84828501620007cb565b91505092915050565b7f4e487b7100000000000000000000000000000000000000000000000000000000600052601160045260246000fd5b60008160011c9050919050565b6000808291508390505b6001851115620008a2578086048111156200087a576200087962000814565b5b60018516156200088a5780820291505b80810290506200089a8562000843565b94506200085a565b94509492505050565b600082620008bd576001905062000990565b81620008cd576000905062000990565b8160018114620008e65760028114620008f15762000927565b600191505062000990565b60ff84111562000906576200090562000814565b5b8360020a91508482111562000920576200091f62000814565b5b5062000990565b5060208310610133831016604e8410600b8410161715620009615782820a9050838111156200095b576200095a62000814565b5b62000990565b62000970848484600162000850565b925090508184048111156200098a576200098962000814565b5b81810290505b9392505050565b6000819050919050565b6000620009ae8262000997565b9150620009bb8362000997565b9250620009ea7fffffffffffffffffffffffffffffffffffffffffffffffffffffffffffffffff8484620008ab565b905092915050565b6000620009ff8262000997565b915062000a0c8362000997565b9250817fffffffffffffffffffffffffffffffffffffffffffffffffffffffffffffffff048311821515161562000a485762000a4762000814565b5b828202905092915050565b600082825260208201905092915050565b7f4f776e61626c653a2063616c6c6572206973206e6f7420746865206f776e6572600082015250565b600062000a9c60208362000a53565b915062000aa98262000a64565b602082019050919050565b6000602082019050818103600083015262000acf8162000a8d565b9050919050565b7f627269646765206973206e6f74206120636f6e74726163740000000000000000600082015250565b600062000b0e60188362000a53565b915062000b1b8262000ad6565b602082019050919050565b6000602082019050818103600083015262000b418162000aff565b9050919050565b7f45524332303a206d696e7420746f20746865207a65726f206164647265737300600082015250565b600062000b80601f8362000a53565b915062000b8d8262000b48565b602082019050919050565b6000602082019050818103600083015262000bb38162000b71565b9050919050565b600062000bc78262000997565b915062000bd48362000997565b9250827fffffffffffffffffffffffffffffffffffffffffffffffffffffffffffffffff0382111562000c0c5762000c0b62000814565b5b828201905092915050565b62000c228162000997565b82525050565b600060208201905062000c3f600083018462000c17565b92915050565b7f4e487b7100000000000000000000000000000000000000000000000000000000600052602260045260246000fd5b6000600282049050600182168062000c8d57607f821691505b60208210810362000ca35762000ca262000c45565b5b50919050565b6131d48062000cb96000396000f3fe608060405234801561001057600080fd5b50600436106101f05760003560e01c8063715018a61161010f578063a457c2d7116100a2578063dd62ed3e11610071578063dd62ed3e146105bb578063e78cea92146105eb578063f2fde38b14610609578063f76f8d7814610625576101f0565b8063a457c2d714610521578063a9059cbb14610551578063d539139314610581578063d547741f1461059f576101f0565b806391d14854116100de57806391d148541461049757806395d89b41146104c7578063a217fddf146104e5578063a3f4df7e14610503576101f0565b8063715018a61461043757806379cc6790146104415780638da5cb5b1461045d5780638dd148021461047b576101f0565b80632ff2e9dc116101875780633dc3c9e1116101565780633dc3c9e1146103b357806340c10f19146103cf57806342966c68146103eb57806370a0823114610407576101f0565b80632ff2e9dc1461032b578063313ce5671461034957806336568abe146103675780633950935114610383576101f0565b806323b872dd116101c357806323b872dd14610291578063248a9ca3146102c15780632e0f2625146102f15780632f2ff15d1461030f576101f0565b806301ffc9a7146101f557806306fdde0314610225578063095ea7b31461024357806318160ddd14610273575b600080fd5b61020f600480360381019061020a9190611ee9565b610643565b60405161021c9190611f31565b60405180910390f35b61022d6106bd565b60405161023a9190611fe5565b60405180910390f35b61025d6004803603810190610258919061209b565b61074f565b60405161026a9190611f31565b60405180910390f35b61027b610772565b60405161028891906120ea565b60405180910390f35b6102ab60048036038101906102a69190612105565b61077c565b6040516102b89190611f31565b60405180910390f35b6102db60048036038101906102d6919061218e565b6107ab565b6040516102e891906121ca565b60405180910390f35b6102f96107cb565b6040516103069190612201565b60405180910390f35b6103296004803603810190610324919061221c565b6107d0565b005b6103336107f1565b60405161034091906120ea565b60405180910390f35b610351610814565b60405161035e9190612201565b60405180910390f35b610381600480360381019061037c919061221c565b61081d565b005b61039d6004803603810190610398919061209b565b6108a0565b6040516103aa9190611f31565b60405180910390f35b6103cd60048036038101906103c891906122c1565b6108d7565b005b6103e960048036038101906103e4919061209b565b6109eb565b005b61040560048036038101906104009190612349565b610a24565b005b610421600480360381019061041c9190612376565b610a38565b60405161042e91906120ea565b60405180910390f35b61043f610a80565b005b61045b6004803603810190610456919061209b565b610b08565b005b610465610b28565b60405161047291906123b2565b60405180910390f35b61049560048036038101906104909190612376565b610b52565b005b6104b160048036038101906104ac919061221c565b610c70565b6040516104be9190611f31565b60405180910390f35b6104cf610cdb565b6040516104dc9190611fe5565b60405180910390f35b6104ed610d6d565b6040516104fa91906121ca565b60405180910390f35b61050b610d74565b6040516105189190611fe5565b60405180910390f35b61053b6004803603810190610536919061209b565b610dad565b6040516105489190611f31565b60405180910390f35b61056b6004803603810190610566919061209b565b610e24565b6040516105789190611f31565b60405180910390f35b610589610e47565b60405161059691906121ca565b60405180910390f35b6105b960048036038101906105b4919061221c565b610e6b565b005b6105d560048036038101906105d091906123cd565b610e8c565b6040516105e291906120ea565b60405180910390f35b6105f3610f13565b60405161060091906123b2565b60405180910390f35b610623600480360381019061061e9190612376565b610f39565b005b61062d611030565b60405161063a9190611fe5565b60405180910390f35b60007f7965db0b000000000000000000000000000000000000000000000000000000007bffffffffffffffffffffffffffffffffffffffffffffffffffffffff1916827bffffffffffffffffffffffffffffffffffffffffffffffffffffffff191614806106b657506106b58261108c565b5b9050919050565b6060600380546106cc9061243c565b80601f01602080910402602001604051908101604052809291908181526020018280546106f89061243c565b80156107455780601f1061071a57610100808354040283529160200191610745565b820191906000526020600020905b81548152906001019060200180831161072857829003601f168201915b5050505050905090565b60008061075a6110f6565b90506107678185856110fe565b600191505092915050565b6000600254905090565b6000806107876110f6565b90506107948582856112c7565b61079f858585611353565b60019150509392505050565b600060056000838152602001908152602001600020600101549050919050565b601281565b6107d9826107ab565b6107e2816115d2565b6107ec83836115e6565b505050565b601260ff16600a61080291906125cf565b633b9aca00610811919061261a565b81565b60006012905090565b6108256110f6565b73ffffffffffffffffffffffffffffffffffffffff168173ffffffffffffffffffffffffffffffffffffffff1614610892576040517f08c379a0000000000000000000000000000000000000000000000000000000008152600401610889906126e6565b60405180910390fd5b61089c82826116c7565b5050565b6000806108ab6110f6565b90506108cc8185856108bd8589610e8c565b6108c79190612706565b6110fe565b600191505092915050565b61090e600760009054906101000a900473ffffffffffffffffffffffffffffffffffffffff1684876109099190612706565b610e24565b61094d576040517f08c379a0000000000000000000000000000000000000000000000000000000008152600401610944906127ce565b60405180910390fd5b600760009054906101000a900473ffffffffffffffffffffffffffffffffffffffff1673ffffffffffffffffffffffffffffffffffffffff1663f1656e533386888787876040518763ffffffff1660e01b81526004016109b29695949392919061283b565b600060405180830381600087803b1580156109cc57600080fd5b505af11580156109e0573d6000803e3d6000fd5b505050505050505050565b7f9f2df0fed2c77648de5860a4cc508cd0818c85b8b8a1ab4ceeef8d981c8956a6610a15816115d2565b610a1f83836117a9565b505050565b610a35610a2f6110f6565b82611908565b50565b60008060008373ffffffffffffffffffffffffffffffffffffffff1673ffffffffffffffffffffffffffffffffffffffff168152602001908152602001600020549050919050565b610a886110f6565b73ffffffffffffffffffffffffffffffffffffffff16610aa6610b28565b73ffffffffffffffffffffffffffffffffffffffff1614610afc576040517f08c379a0000000000000000000000000000000000000000000000000000000008152600401610af3906128e3565b60405180910390fd5b610b066000611ade565b565b610b1a82610b146110f6565b836112c7565b610b248282611908565b5050565b6000600660009054906101000a900473ffffffffffffffffffffffffffffffffffffffff16905090565b610b5a6110f6565b73ffffffffffffffffffffffffffffffffffffffff16610b78610b28565b73ffffffffffffffffffffffffffffffffffffffff1614610bce576040517f08c379a0000000000000000000000000000000000000000000000000000000008152600401610bc5906128e3565b60405180910390fd5b610bed8173ffffffffffffffffffffffffffffffffffffffff16611069565b610c2c576040517f08c379a0000000000000000000000000000000000000000000000000000000008152600401610c239061294f565b60405180910390fd5b80600760006101000a81548173ffffffffffffffffffffffffffffffffffffffff021916908373ffffffffffffffffffffffffffffffffffffffff16021790555050565b60006005600084815260200190815260200160002060000160008373ffffffffffffffffffffffffffffffffffffffff1673ffffffffffffffffffffffffffffffffffffffff16815260200190815260200160002060009054906101000a900460ff16905092915050565b606060048054610cea9061243c565b80601f0160208091040260200160405190810160405280929190818152602001828054610d169061243c565b8015610d635780601f10610d3857610100808354040283529160200191610d63565b820191906000526020600020905b815481529060010190602001808311610d4657829003601f168201915b5050505050905090565b6000801b81565b6040518060400160405280601181526020017f53657276696365436861696e546f6b656e00000000000000000000000000000081525081565b600080610db86110f6565b90506000610dc68286610e8c565b905083811015610e0b576040517f08c379a0000000000000000000000000000000000000000000000000000000008152600401610e02906129e1565b60405180910390fd5b610e1882868684036110fe565b60019250505092915050565b600080610e2f6110f6565b9050610e3c818585611353565b600191505092915050565b7f9f2df0fed2c77648de5860a4cc508cd0818c85b8b8a1ab4ceeef8d981c8956a681565b610e74826107ab565b610e7d816115d2565b610e8783836116c7565b505050565b6000600160008473ffffffffffffffffffffffffffffffffffffffff1673ffffffffffffffffffffffffffffffffffffffff16815260200190815260200160002060008373ffffffffffffffffffffffffffffffffffffffff1673ffffffffffffffffffffffffffffffffffffffff16815260200190815260200160002054905092915050565b600760009054906101000a900473ffffffffffffffffffffffffffffffffffffffff1681565b610f416110f6565b73ffffffffffffffffffffffffffffffffffffffff16610f5f610b28565b73ffffffffffffffffffffffffffffffffffffffff1614610fb5576040517f08c379a0000000000000000000000000000000000000000000000000000000008152600401610fac906128e3565b60405180910390fd5b600073ffffffffffffffffffffffffffffffffffffffff168173ffffffffffffffffffffffffffffffffffffffff1603611024576040517f08c379a000000000000000000000000000000000000000000000000000000000815260040161101b90612a73565b60405180910390fd5b61102d81611ade565b50565b6040518060400160405280600381526020017f534354000000000000000000000000000000000000000000000000000000000081525081565b6000808273ffffffffffffffffffffffffffffffffffffffff163b119050919050565b60007f01ffc9a7000000000000000000000000000000000000000000000000000000007bffffffffffffffffffffffffffffffffffffffffffffffffffffffff1916827bffffffffffffffffffffffffffffffffffffffffffffffffffffffff1916149050919050565b600033905090565b600073ffffffffffffffffffffffffffffffffffffffff168373ffffffffffffffffffffffffffffffffffffffff160361116d576040517f08c379a000000000000000000000000000000000000000000000000000000000815260040161116490612b05565b60405180910390fd5b600073ffffffffffffffffffffffffffffffffffffffff168273ffffffffffffffffffffffffffffffffffffffff16036111dc576040517f08c379a00000000000000000000000000000000000000000000000000000000081526004016111d390612b97565b60405180910390fd5b80600160008573ffffffffffffffffffffffffffffffffffffffff1673ffffffffffffffffffffffffffffffffffffffff16815260200190815260200160002060008473ffffffffffffffffffffffffffffffffffffffff1673ffffffffffffffffffffffffffffffffffffffff168152602001908152602001600020819055508173ffffffffffffffffffffffffffffffffffffffff168373ffffffffffffffffffffffffffffffffffffffff167f8c5be1e5ebec7d5bd14f71427d1e84f3dd0314c0f7b2291e5b200ac8c7c3b925836040516112ba91906120ea565b60405180910390a3505050565b60006112d38484610e8c565b90507fffffffffffffffffffffffffffffffffffffffffffffffffffffffffffffffff811461134d578181101561133f576040517f08c379a000000000000000000000000000000000000000000000000000000000815260040161133690612c03565b60405180910390fd5b61134c84848484036110fe565b5b50505050565b600073ffffffffffffffffffffffffffffffffffffffff168373ffffffffffffffffffffffffffffffffffffffff16036113c2576040517f08c379a00000000000000000000000000000000000000000000000000000000081526004016113b990612c95565b60405180910390fd5b600073ffffffffffffffffffffffffffffffffffffffff168273ffffffffffffffffffffffffffffffffffffffff1603611431576040517f08c379a000000000000000000000000000000000000000000000000000000000815260040161142890612d27565b60405180910390fd5b61143c838383611ba4565b60008060008573ffffffffffffffffffffffffffffffffffffffff1673ffffffffffffffffffffffffffffffffffffffff168152602001908152602001600020549050818110156114c2576040517f08c379a00000000000000000000000000000000000000000000000000000000081526004016114b990612db9565b60405180910390fd5b8181036000808673ffffffffffffffffffffffffffffffffffffffff1673ffffffffffffffffffffffffffffffffffffffff16815260200190815260200160002081905550816000808573ffffffffffffffffffffffffffffffffffffffff1673ffffffffffffffffffffffffffffffffffffffff16815260200190815260200160002060008282546115559190612706565b925050819055508273ffffffffffffffffffffffffffffffffffffffff168473ffffffffffffffffffffffffffffffffffffffff167fddf252ad1be2c89b69c2b068fc378daa952ba7f163c4a11628f55a4df523b3ef846040516115b991906120ea565b60405180910390a36115cc848484611ba9565b50505050565b6115e3816115de6110f6565b611bae565b50565b6115f08282610c70565b6116c35760016005600084815260200190815260200160002060000160008373ffffffffffffffffffffffffffffffffffffffff1673ffffffffffffffffffffffffffffffffffffffff16815260200190815260200160002060006101000a81548160ff0219169083151502179055506116686110f6565b73ffffffffffffffffffffffffffffffffffffffff168173ffffffffffffffffffffffffffffffffffffffff16837f2f8788117e7eff1d82e926ec794901d17c78024a50270940304540a733656f0d60405160405180910390a45b5050565b6116d18282610c70565b156117a55760006005600084815260200190815260200160002060000160008373ffffffffffffffffffffffffffffffffffffffff1673ffffffffffffffffffffffffffffffffffffffff16815260200190815260200160002060006101000a81548160ff02191690831515021790555061174a6110f6565b73ffffffffffffffffffffffffffffffffffffffff168173ffffffffffffffffffffffffffffffffffffffff16837ff6391f5c32d9c69d2a47ea670b442974b53935d1edc7fd64eb21e047a839171b60405160405180910390a45b5050565b600073ffffffffffffffffffffffffffffffffffffffff168273ffffffffffffffffffffffffffffffffffffffff1603611818576040517f08c379a000000000000000000000000000000000000000000000000000000000815260040161180f90612e25565b60405180910390fd5b61182460008383611ba4565b80600260008282546118369190612706565b92505081905550806000808473ffffffffffffffffffffffffffffffffffffffff1673ffffffffffffffffffffffffffffffffffffffff168152602001908152602001600020600082825461188b9190612706565b925050819055508173ffffffffffffffffffffffffffffffffffffffff16600073ffffffffffffffffffffffffffffffffffffffff167fddf252ad1be2c89b69c2b068fc378daa952ba7f163c4a11628f55a4df523b3ef836040516118f091906120ea565b60405180910390a361190460008383611ba9565b5050565b600073ffffffffffffffffffffffffffffffffffffffff168273ffffffffffffffffffffffffffffffffffffffff1603611977576040517f08c379a000000000000000000000000000000000000000000000000000000000815260040161196e90612eb7565b60405180910390fd5b61198382600083611ba4565b60008060008473ffffffffffffffffffffffffffffffffffffffff1673ffffffffffffffffffffffffffffffffffffffff16815260200190815260200160002054905081811015611a09576040517f08c379a0000000000000000000000000000000000000000000000000000000008152600401611a0090612f49565b60405180910390fd5b8181036000808573ffffffffffffffffffffffffffffffffffffffff1673ffffffffffffffffffffffffffffffffffffffff168152602001908152602001600020819055508160026000828254611a609190612f69565b92505081905550600073ffffffffffffffffffffffffffffffffffffffff168373ffffffffffffffffffffffffffffffffffffffff167fddf252ad1be2c89b69c2b068fc378daa952ba7f163c4a11628f55a4df523b3ef84604051611ac591906120ea565b60405180910390a3611ad983600084611ba9565b505050565b6000600660009054906101000a900473ffffffffffffffffffffffffffffffffffffffff16905081600660006101000a81548173ffffffffffffffffffffffffffffffffffffffff021916908373ffffffffffffffffffffffffffffffffffffffff1602179055508173ffffffffffffffffffffffffffffffffffffffff168173ffffffffffffffffffffffffffffffffffffffff167f8be0079c531659141344cd1fd0a4f28419497f9722a3daafe3b4186f6b6457e060405160405180910390a35050565b505050565b505050565b611bb88282610c70565b611c4757611bdd8173ffffffffffffffffffffffffffffffffffffffff166014611c4b565b611beb8360001c6020611c4b565b604051602001611bfc929190613071565b6040516020818303038152906040526040517f08c379a0000000000000000000000000000000000000000000000000000000008152600401611c3e9190611fe5565b60405180910390fd5b5050565b606060006002836002611c5e919061261a565b611c689190612706565b67ffffffffffffffff811115611c8157611c806130ab565b5b6040519080825280601f01601f191660200182016040528015611cb35781602001600182028036833780820191505090505b5090507f300000000000000000000000000000000000000000000000000000000000000081600081518110611ceb57611cea6130da565b5b60200101907effffffffffffffffffffffffffffffffffffffffffffffffffffffffffffff1916908160001a9053507f780000000000000000000000000000000000000000000000000000000000000081600181518110611d4f57611d4e6130da565b5b60200101907effffffffffffffffffffffffffffffffffffffffffffffffffffffffffffff1916908160001a90535060006001846002611d8f919061261a565b611d999190612706565b90505b6001811115611e39577f3031323334353637383961626364656600000000000000000000000000000000600f861660108110611ddb57611dda6130da565b5b1a60f81b828281518110611df257611df16130da565b5b60200101907effffffffffffffffffffffffffffffffffffffffffffffffffffffffffffff1916908160001a905350600485901c945080611e3290613109565b9050611d9c565b5060008414611e7d576040517f08c379a0000000000000000000000000000000000000000000000000000000008152600401611e749061317e565b60405180910390fd5b8091505092915050565b600080fd5b600080fd5b60007fffffffff0000000000000000000000000000000000000000000000000000000082169050919050565b611ec681611e91565b8114611ed157600080fd5b50565b600081359050611ee381611ebd565b92915050565b600060208284031215611eff57611efe611e87565b5b6000611f0d84828501611ed4565b91505092915050565b60008115159050919050565b611f2b81611f16565b82525050565b6000602082019050611f466000830184611f22565b92915050565b600081519050919050565b600082825260208201905092915050565b60005b83811015611f86578082015181840152602081019050611f6b565b83811115611f95576000848401525b50505050565b6000601f19601f8301169050919050565b6000611fb782611f4c565b611fc18185611f57565b9350611fd1818560208601611f68565b611fda81611f9b565b840191505092915050565b60006020820190508181036000830152611fff8184611fac565b905092915050565b600073ffffffffffffffffffffffffffffffffffffffff82169050919050565b600061203282612007565b9050919050565b61204281612027565b811461204d57600080fd5b50565b60008135905061205f81612039565b92915050565b6000819050919050565b61207881612065565b811461208357600080fd5b50565b6000813590506120958161206f565b92915050565b600080604083850312156120b2576120b1611e87565b5b60006120c085828601612050565b92505060206120d185828601612086565b9150509250929050565b6120e481612065565b82525050565b60006020820190506120ff60008301846120db565b92915050565b60008060006060848603121561211e5761211d611e87565b5b600061212c86828701612050565b935050602061213d86828701612050565b925050604061214e86828701612086565b9150509250925092565b6000819050919050565b61216b81612158565b811461217657600080fd5b50565b60008135905061218881612162565b92915050565b6000602082840312156121a4576121a3611e87565b5b60006121b284828501612179565b91505092915050565b6121c481612158565b82525050565b60006020820190506121df60008301846121bb565b92915050565b600060ff82169050919050565b6121fb816121e5565b82525050565b600060208201905061221660008301846121f2565b92915050565b6000806040838503121561223357612232611e87565b5b600061224185828601612179565b925050602061225285828601612050565b9150509250929050565b600080fd5b600080fd5b600080fd5b60008083601f8401126122815761228061225c565b5b8235905067ffffffffffffffff81111561229e5761229d612261565b5b6020830191508360018202830111156122ba576122b9612266565b5b9250929050565b6000806000806000608086880312156122dd576122dc611e87565b5b60006122eb88828901612086565b95505060206122fc88828901612050565b945050604061230d88828901612086565b935050606086013567ffffffffffffffff81111561232e5761232d611e8c565b5b61233a8882890161226b565b92509250509295509295909350565b60006020828403121561235f5761235e611e87565b5b600061236d84828501612086565b91505092915050565b60006020828403121561238c5761238b611e87565b5b600061239a84828501612050565b91505092915050565b6123ac81612027565b82525050565b60006020820190506123c760008301846123a3565b92915050565b600080604083850312156123e4576123e3611e87565b5b60006123f285828601612050565b925050602061240385828601612050565b9150509250929050565b7f4e487b7100000000000000000000000000000000000000000000000000000000600052602260045260246000fd5b6000600282049050600182168061245457607f821691505b6020821081036124675761246661240d565b5b50919050565b7f4e487b7100000000000000000000000000000000000000000000000000000000600052601160045260246000fd5b60008160011c9050919050565b6000808291508390505b60018511156124f3578086048111156124cf576124ce61246d565b5b60018516156124de5780820291505b80810290506124ec8561249c565b94506124b3565b94509492505050565b60008261250c57600190506125c8565b8161251a57600090506125c8565b8160018114612530576002811461253a57612569565b60019150506125c8565b60ff84111561254c5761254b61246d565b5b8360020a9150848211156125635761256261246d565b5b506125c8565b5060208310610133831016604e8410600b841016171561259e5782820a9050838111156125995761259861246d565b5b6125c8565b6125ab84848460016124a9565b925090508184048111156125c2576125c161246d565b5b81810290505b9392505050565b60006125da82612065565b91506125e583612065565b92506126127fffffffffffffffffffffffffffffffffffffffffffffffffffffffffffffffff84846124fc565b905092915050565b600061262582612065565b915061263083612065565b9250817fffffffffffffffffffffffffffffffffffffffffffffffffffffffffffffffff04831182151516156126695761266861246d565b5b828202905092915050565b7f416363657373436f6e74726f6c3a2063616e206f6e6c792072656e6f756e636560008201527f20726f6c657320666f722073656c660000000000000000000000000000000000602082015250565b60006126d0602f83611f57565b91506126db82612674565b604082019050919050565b600060208201905081810360008301526126ff816126c3565b9050919050565b600061271182612065565b915061271c83612065565b9250827fffffffffffffffffffffffffffffffffffffffffffffffffffffffffffffffff038211156127515761275061246d565b5b828201905092915050565b7f7265717565737456616c75655472616e736665723a207472616e73666572206660008201527f61696c6564000000000000000000000000000000000000000000000000000000602082015250565b60006127b8602583611f57565b91506127c38261275c565b604082019050919050565b600060208201905081810360008301526127e7816127ab565b9050919050565b600082825260208201905092915050565b82818337600083830152505050565b600061281a83856127ee565b93506128278385846127ff565b61283083611f9b565b840190509392505050565b600060a08201905061285060008301896123a3565b61285d60208301886123a3565b61286a60408301876120db565b61287760608301866120db565b818103608083015261288a81848661280e565b9050979650505050505050565b7f4f776e61626c653a2063616c6c6572206973206e6f7420746865206f776e6572600082015250565b60006128cd602083611f57565b91506128d882612897565b602082019050919050565b600060208201905081810360008301526128fc816128c0565b9050919050565b7f627269646765206973206e6f74206120636f6e74726163740000000000000000600082015250565b6000612939601883611f57565b915061294482612903565b602082019050919050565b600060208201905081810360008301526129688161292c565b9050919050565b7f45524332303a2064656372656173656420616c6c6f77616e63652062656c6f7760008201527f207a65726f000000000000000000000000000000000000000000000000000000602082015250565b60006129cb602583611f57565b91506129d68261296f565b604082019050919050565b600060208201905081810360008301526129fa816129be565b9050919050565b7f4f776e61626c653a206e6577206f776e657220697320746865207a65726f206160008201527f6464726573730000000000000000000000000000000000000000000000000000602082015250565b6000612a5d602683611f57565b9150612a6882612a01565b604082019050919050565b60006020820190508181036000830152612a8c81612a50565b9050919050565b7f45524332303a20617070726f76652066726f6d20746865207a65726f2061646460008201527f7265737300000000000000000000000000000000000000000000000000000000602082015250565b6000612aef602483611f57565b9150612afa82612a93565b604082019050919050565b60006020820190508181036000830152612b1e81612ae2565b9050919050565b7f45524332303a20617070726f766520746f20746865207a65726f20616464726560008201527f7373000000000000000000000000000000000000000000000000000000000000602082015250565b6000612b81602283611f57565b9150612b8c82612b25565b604082019050919050565b60006020820190508181036000830152612bb081612b74565b9050919050565b7f45524332303a20696e73756666696369656e7420616c6c6f77616e6365000000600082015250565b6000612bed601d83611f57565b9150612bf882612bb7565b602082019050919050565b60006020820190508181036000830152612c1c81612be0565b9050919050565b7f45524332303a207472616e736665722066726f6d20746865207a65726f20616460008201527f6472657373000000000000000000000000000000000000000000000000000000602082015250565b6000612c7f602583611f57565b9150612c8a82612c23565b604082019050919050565b60006020820190508181036000830152612cae81612c72565b9050919050565b7f45524332303a207472616e7366657220746f20746865207a65726f206164647260008201527f6573730000000000000000000000000000000000000000000000000000000000602082015250565b6000612d11602383611f57565b9150612d1c82612cb5565b604082019050919050565b60006020820190508181036000830152612d4081612d04565b9050919050565b7f45524332303a207472616e7366657220616d6f756e742065786365656473206260008201527f616c616e63650000000000000000000000000000000000000000000000000000602082015250565b6000612da3602683611f57565b9150612dae82612d47565b604082019050919050565b60006020820190508181036000830152612dd281612d96565b9050919050565b7f45524332303a206d696e7420746f20746865207a65726f206164647265737300600082015250565b6000612e0f601f83611f57565b9150612e1a82612dd9565b602082019050919050565b60006020820190508181036000830152612e3e81612e02565b9050919050565b7f45524332303a206275726e2066726f6d20746865207a65726f2061646472657360008201527f7300000000000000000000000000000000000000000000000000000000000000602082015250565b6000612ea1602183611f57565b9150612eac82612e45565b604082019050919050565b60006020820190508181036000830152612ed081612e94565b9050919050565b7f45524332303a206275726e20616d6f756e7420657863656564732062616c616e60008201527f6365000000000000000000000000000000000000000000000000000000000000602082015250565b6000612f33602283611f57565b9150612f3e82612ed7565b604082019050919050565b60006020820190508181036000830152612f6281612f26565b9050919050565b6000612f7482612065565b9150612f7f83612065565b925082821015612f9257612f9161246d565b5b828203905092915050565b600081905092915050565b7f416363657373436f6e74726f6c3a206163636f756e7420000000000000000000600082015250565b6000612fde601783612f9d565b9150612fe982612fa8565b601782019050919050565b6000612fff82611f4c565b6130098185612f9d565b9350613019818560208601611f68565b80840191505092915050565b7f206973206d697373696e6720726f6c6520000000000000000000000000000000600082015250565b600061305b601183612f9d565b915061306682613025565b601182019050919050565b600061307c82612fd1565b91506130888285612ff4565b91506130938261304e565b915061309f8284612ff4565b91508190509392505050565b7f4e487b7100000000000000000000000000000000000000000000000000000000600052604160045260246000fd5b7f4e487b7100000000000000000000000000000000000000000000000000000000600052603260045260246000fd5b600061311482612065565b9150600082036131275761312661246d565b5b600182039050919050565b7f537472696e67733a20686578206c656e67746820696e73756666696369656e74600082015250565b6000613168602083611f57565b915061317382613132565b602082019050919050565b600060208201905081810360008301526131978161315b565b905091905056fea264697066735822122049900ef4df1b3ffeb26812d6b493aa8eb3f0de92d407641354834cb20ba5f93e64736f6c634300080e0033",
  "immutableReferences": {},
  "source": "// SPDX-License-Identifier: MIT\n\n// Copyright 2019 The klaytn Authors\n// This file is part of the klaytn library.\n//\n// The klaytn library is free software: you can redistribute it and/or modify\n// it under the terms of the GNU Lesser General Public License as published by\n// the Free Software Foundation, either version 3 of the License, or\n// (at your option) any later version.\n//\n// The klaytn library is distributed in the hope that it will be useful,\n// but WITHOUT ANY WARRANTY; without even the implied warranty of\n// MERCHANTABILITY or FITNESS FOR A PARTICULAR PURPOSE. See the\n// GNU Lesser General Public License for more details.\n//\n// You should have received a copy of the GNU Lesser General Public License\n// along with the klaytn library. If not, see <http://www.gnu.org/licenses/>.\n\npragma solidity ^0.8.0;\n\nimport \"@klaytn/contracts/token/ERC20/ERC20.sol\";\nimport \"@klaytn/contracts/token/ERC20/extensions/ERC20Burnable.sol\";\nimport \"@klaytn/contracts/access/AccessControl.sol\";\nimport \"@klaytn/contracts/utils/Address.sol\";\n\nimport \"./ERC20ServiceChain.sol\";\n\ncontract ServiceChainToken is ERC20, ERC20Burnable, AccessControl, IERC20Mint, ERC20ServiceChain {\n    bytes32 public constant MINTER_ROLE = keccak256(\"MINTER_ROLE\");\n\n    string public constant NAME = \"ServiceChainToken\";\n    string public constant SYMBOL = \"SCT\";\n    uint8 public constant DECIMALS = 18;\n\n    // one billion in initial supply\n    uint256 public constant INITIAL_SUPPLY = 1000000000 * (10 ** uint256(DECIMALS));\n\n    constructor(address _bridge) ERC20(NAME, SYMBOL) ERC20ServiceChain(_bridge) {\n        _grantRole(DEFAULT_ADMIN_ROLE, msg.sender);\n        _grantRole(MINTER_ROLE, msg.sender);\n        _mint(msg.sender, INITIAL_SUPPLY);\n    }\n\n    function mint(address to, uint256 amount) public onlyRole(MINTER_ROLE) {\n        _mint(to, amount);\n    }\n}\n",
  "sourcePath": "/Users/henry/git/servicechain-bridge-contracts/contracts/sc/tokens/erc20/ServiceChainToken.sol",
  "compiler": {
    "name": "solc",
    "version": "0.8.14+commit.80d49f37.Emscripten.clang"
  },
  "schemaVersion": "3.4.7",
  "updatedAt": "2022-06-15T12:34:59.498Z",
  "devdoc": {
    "kind": "dev",
    "methods": {
      "allowance(address,address)": {
        "details": "See {IERC20-allowance}."
      },
      "approve(address,uint256)": {
        "details": "See {IERC20-approve}. NOTE: If `amount` is the maximum `uint256`, the allowance is not updated on `transferFrom`. This is semantically equivalent to an infinite approval. Requirements: - `spender` cannot be the zero address."
      },
      "balanceOf(address)": {
        "details": "See {IERC20-balanceOf}."
      },
      "burn(uint256)": {
        "details": "Destroys `amount` tokens from the caller. See {ERC20-_burn}."
      },
      "burnFrom(address,uint256)": {
        "details": "Destroys `amount` tokens from `account`, deducting from the caller's allowance. See {ERC20-_burn} and {ERC20-allowance}. Requirements: - the caller must have allowance for ``accounts``'s tokens of at least `amount`."
      },
      "decimals()": {
        "details": "Returns the number of decimals used to get its user representation. For example, if `decimals` equals `2`, a balance of `505` tokens should be displayed to a user as `5.05` (`505 / 10 ** 2`). Tokens usually opt for a value of 18, imitating the relationship between Ether and Wei. This is the value {ERC20} uses, unless this function is overridden; NOTE: This information is only used for _display_ purposes: it in no way affects any of the arithmetic of the contract, including {IERC20-balanceOf} and {IERC20-transfer}."
      },
      "decreaseAllowance(address,uint256)": {
        "details": "Atomically decreases the allowance granted to `spender` by the caller. This is an alternative to {approve} that can be used as a mitigation for problems described in {IERC20-approve}. Emits an {Approval} event indicating the updated allowance. Requirements: - `spender` cannot be the zero address. - `spender` must have allowance for the caller of at least `subtractedValue`."
      },
      "getRoleAdmin(bytes32)": {
        "details": "Returns the admin role that controls `role`. See {grantRole} and {revokeRole}. To change a role's admin, use {_setRoleAdmin}."
      },
      "grantRole(bytes32,address)": {
        "details": "Grants `role` to `account`. If `account` had not been already granted `role`, emits a {RoleGranted} event. Requirements: - the caller must have ``role``'s admin role. May emit a {RoleGranted} event."
      },
      "hasRole(bytes32,address)": {
        "details": "Returns `true` if `account` has been granted `role`."
      },
      "increaseAllowance(address,uint256)": {
        "details": "Atomically increases the allowance granted to `spender` by the caller. This is an alternative to {approve} that can be used as a mitigation for problems described in {IERC20-approve}. Emits an {Approval} event indicating the updated allowance. Requirements: - `spender` cannot be the zero address."
      },
      "name()": {
        "details": "Returns the name of the token."
      },
      "owner()": {
        "details": "Returns the address of the current owner."
      },
      "renounceOwnership()": {
        "details": "Leaves the contract without owner. It will not be possible to call `onlyOwner` functions anymore. Can only be called by the current owner. NOTE: Renouncing ownership will leave the contract without an owner, thereby removing any functionality that is only available to the owner."
      },
      "renounceRole(bytes32,address)": {
        "details": "Revokes `role` from the calling account. Roles are often managed via {grantRole} and {revokeRole}: this function's purpose is to provide a mechanism for accounts to lose their privileges if they are compromised (such as when a trusted device is misplaced). If the calling account had been revoked `role`, emits a {RoleRevoked} event. Requirements: - the caller must be `account`. May emit a {RoleRevoked} event."
      },
      "revokeRole(bytes32,address)": {
        "details": "Revokes `role` from `account`. If `account` had been granted `role`, emits a {RoleRevoked} event. Requirements: - the caller must have ``role``'s admin role. May emit a {RoleRevoked} event."
      },
      "supportsInterface(bytes4)": {
        "details": "See {IERC165-supportsInterface}."
      },
      "symbol()": {
        "details": "Returns the symbol of the token, usually a shorter version of the name."
      },
      "totalSupply()": {
        "details": "See {IERC20-totalSupply}."
      },
      "transfer(address,uint256)": {
        "details": "See {IERC20-transfer}. Requirements: - `to` cannot be the zero address. - the caller must have a balance of at least `amount`."
      },
      "transferFrom(address,address,uint256)": {
        "details": "See {IERC20-transferFrom}. Emits an {Approval} event indicating the updated allowance. This is not required by the EIP. See the note at the beginning of {ERC20}. NOTE: Does not update the allowance if the current allowance is the maximum `uint256`. Requirements: - `from` and `to` cannot be the zero address. - `from` must have a balance of at least `amount`. - the caller must have allowance for ``from``'s tokens of at least `amount`."
      },
      "transferOwnership(address)": {
        "details": "Transfers ownership of the contract to a new account (`newOwner`). Can only be called by the current owner."
      }
    },
    "version": 1
  },
  "userdoc": {
    "kind": "user",
    "methods": {},
    "version": 1
  }
}